{
  "contractName": "HelloWorld",
  "abi": [
    {
      "inputs": [],
      "stateMutability": "nonpayable",
      "type": "constructor"
    },
    {
      "inputs": [],
      "name": "buyer",
      "outputs": [
        {
          "internalType": "address",
          "name": "",
          "type": "address"
        }
      ],
      "stateMutability": "view",
      "type": "function",
      "constant": true
    },
    {
      "inputs": [
        {
          "internalType": "uint256",
          "name": "",
          "type": "uint256"
        }
      ],
      "name": "nftOwnerships",
      "outputs": [
        {
          "internalType": "address",
          "name": "owner",
          "type": "address"
        },
        {
          "internalType": "uint256",
          "name": "nftId",
          "type": "uint256"
        },
        {
          "internalType": "uint256",
          "name": "droptime",
          "type": "uint256"
        }
      ],
      "stateMutability": "view",
      "type": "function",
      "constant": true
    },
    {
      "inputs": [
        {
          "internalType": "uint256",
          "name": "",
          "type": "uint256"
        }
      ],
      "name": "nfts",
      "outputs": [
        {
          "internalType": "uint256",
          "name": "",
          "type": "uint256"
        }
      ],
      "stateMutability": "view",
      "type": "function",
      "constant": true
    },
    {
      "inputs": [],
      "name": "mockNFT",
      "outputs": [
        {
          "internalType": "uint256",
          "name": "",
          "type": "uint256"
        }
      ],
      "stateMutability": "nonpayable",
      "type": "function"
    },
    {
      "inputs": [
        {
          "internalType": "uint256",
          "name": "price",
          "type": "uint256"
        },
        {
          "internalType": "uint256",
          "name": "nftHash",
          "type": "uint256"
        }
      ],
      "name": "buyNFT",
      "outputs": [
        {
          "internalType": "address",
          "name": "",
          "type": "address"
        }
      ],
      "stateMutability": "payable",
      "type": "function",
      "payable": true
    },
    {
      "inputs": [],
      "name": "getNFTidentifier",
      "outputs": [
        {
          "internalType": "uint256",
          "name": "",
          "type": "uint256"
        }
      ],
      "stateMutability": "nonpayable",
      "type": "function"
    }
  ],
  "bytecode": "0x608060405234801561001057600080fd5b503373ffffffffffffffffffffffffffffffffffffffff16600160009054906101000a9050505073c77787e364e3420c0609a249f18de47430900f0c6000806101000a81548173ffffffffffffffffffffffffffffffffffffffff021916908373ffffffffffffffffffffffffffffffffffffffff160217905550610a418061009a6000396000f3fe6080604052600436106100555760003560e01c80631d85bf031461005a578063265aa6211461008a5780636ed2644d146100c75780637150d8ae1461010657806381b16ff414610131578063ec67a4631461015c575b600080fd5b610074600480360381019061006f91906105e4565b610187565b6040516100819190610665565b60405180910390f35b34801561009657600080fd5b506100b160048036038101906100ac9190610680565b610346565b6040516100be91906106bc565b60405180910390f35b3480156100d357600080fd5b506100ee60048036038101906100e99190610680565b61036a565b6040516100fd939291906106d7565b60405180910390f35b34801561011257600080fd5b5061011b6103b4565b6040516101289190610665565b60405180910390f35b34801561013d57600080fd5b506101466103da565b60405161015391906106bc565b60405180910390f35b34801561016857600080fd5b50610171610502565b60405161017e91906106bc565b60405180910390f35b600042600360008481526020019081526020016000206002015411154260036000858152602001908152602001600020600201546101c5919061073d565b6040516020016101d5919061081a565b60405160208183030381529060405290610225576040517f08c379a000000000000000000000000000000000000000000000000000000000815260040161021c91906108e3565b60405180910390fd5b5034925060008054906101000a900473ffffffffffffffffffffffffffffffffffffffff1673ffffffffffffffffffffffffffffffffffffffff166108fc849081150290604051600060405180830381858888f1935050505015801561028f573d6000803e3d6000fd5b50600160009054906101000a900473ffffffffffffffffffffffffffffffffffffffff166003600084815260200190815260200160002060000160006101000a81548173ffffffffffffffffffffffffffffffffffffffff021916908373ffffffffffffffffffffffffffffffffffffffff1602179055506003600083815260200190815260200160002060000160009054906101000a900473ffffffffffffffffffffffffffffffffffffffff16905092915050565b6002818154811061035657600080fd5b906000526020600020016000915090505481565b60036020528060005260406000206000915090508060000160009054906101000a900473ffffffffffffffffffffffffffffffffffffffff16908060010154908060020154905083565b600160009054906101000a900473ffffffffffffffffffffffffffffffffffffffff1681565b6000806103e5610502565b90506103ef610572565b8181602001818152505060008054906101000a900473ffffffffffffffffffffffffffffffffffffffff16816000019073ffffffffffffffffffffffffffffffffffffffff16908173ffffffffffffffffffffffffffffffffffffffff1681525050636193ef69816040018181525050806003600084815260200190815260200160002060008201518160000160006101000a81548173ffffffffffffffffffffffffffffffffffffffff021916908373ffffffffffffffffffffffffffffffffffffffff16021790555060208201518160010155604082015181600201559050506002829080600181540180825580915050600190039060005260206000200160009091909190915055819250505090565b6000806103e842433360405160200161051d9392919061096e565b6040516020818303038152906040528051906020012060001c61054091906109da565b905060028190806001815401808255809150506001900390600052602060002001600090919091909150558091505090565b6040518060600160405280600073ffffffffffffffffffffffffffffffffffffffff16815260200160008152602001600081525090565b600080fd5b6000819050919050565b6105c1816105ae565b81146105cc57600080fd5b50565b6000813590506105de816105b8565b92915050565b600080604083850312156105fb576105fa6105a9565b5b6000610609858286016105cf565b925050602061061a858286016105cf565b9150509250929050565b600073ffffffffffffffffffffffffffffffffffffffff82169050919050565b600061064f82610624565b9050919050565b61065f81610644565b82525050565b600060208201905061067a6000830184610656565b92915050565b600060208284031215610696576106956105a9565b5b60006106a4848285016105cf565b91505092915050565b6106b6816105ae565b82525050565b60006020820190506106d160008301846106ad565b92915050565b60006060820190506106ec6000830186610656565b6106f960208301856106ad565b61070660408301846106ad565b949350505050565b7f4e487b7100000000000000000000000000000000000000000000000000000000600052601160045260246000fd5b6000610748826105ae565b9150610753836105ae565b9250828210156107665761076561070e565b5b828203905092915050565b600082825260208201905092915050565b7f44726f7020686173206e6f742073746172746564207965742120000000000000600082015250565b60006107b8601a83610771565b91506107c382610782565b602082019050919050565b7f5365636f6e6473206c6566742100000000000000000000000000000000000000600082015250565b6000610804600d83610771565b915061080f826107ce565b602082019050919050565b60006060820190508181036000830152610833816107ab565b905061084260208301846106ad565b8181036040830152610853816107f7565b905092915050565b600081519050919050565b60005b83811015610884578082015181840152602081019050610869565b83811115610893576000848401525b50505050565b6000601f19601f8301169050919050565b60006108b58261085b565b6108bf8185610771565b93506108cf818560208601610866565b6108d881610899565b840191505092915050565b600060208201905081810360008301526108fd81846108aa565b905092915050565b6000819050919050565b61092061091b826105ae565b610905565b82525050565b60008160601b9050919050565b600061093e82610926565b9050919050565b600061095082610933565b9050919050565b61096861096382610644565b610945565b82525050565b600061097a828661090f565b60208201915061098a828561090f565b60208201915061099a8284610957565b601482019150819050949350505050565b7f4e487b7100000000000000000000000000000000000000000000000000000000600052601260045260246000fd5b60006109e5826105ae565b91506109f0836105ae565b925082610a00576109ff6109ab565b5b82820690509291505056fea2646970667358221220cdac5c92a3980c79fbda4f9f660f18cd792d0d1a2ddcb86b539973b91143965664736f6c63430008090033",
  "immutableReferences": {},
  "source": "pragma solidity ^0.8.0;\r\n\r\ncontract HelloWorld {\r\n    address payable nftOwner;\r\n    address public buyer;\r\n\r\n\r\n    uint256[] public nfts;\r\n\r\n    struct NFTOwnership {\r\n        address owner;\r\n        uint256 nftId;\r\n        uint droptime;\r\n    }\r\n\r\n    mapping(uint256 => NFTOwnership) public nftOwnerships;\r\n\r\n\r\n    constructor() {\r\n        buyer == msg.sender;\r\n        nftOwner = payable(0xC77787e364E3420c0609a249F18De47430900f0C);\r\n    }\r\n\r\n    // create a NFT\r\n    function mockNFT() public returns (uint256) {\r\n        uint256 nftHash = getNFTidentifier();\r\n        NFTOwnership memory nftOwnership;\r\n        nftOwnership.nftId = nftHash;\r\n        nftOwnership.owner = nftOwner;\r\n        nftOwnership.droptime = 1637085033;\r\n        nftOwnerships[nftHash] = nftOwnership;\r\n        nfts.push(nftHash);\r\n        return nftHash;\r\n    }\r\n\r\n    function buyNFT(uint256 price, uint256 nftHash) public payable returns(address) {\r\n        require(nftOwnerships[nftHash].droptime<=block.timestamp,string(abi.encode(\"Drop has not started yet! \",(nftOwnerships[nftHash].droptime-block.timestamp),\"Seconds left!\")));\r\n        price = msg.value;\r\n        nftOwner.transfer(price);\r\n        nftOwnerships[nftHash].owner = buyer;\r\n        return nftOwnerships[nftHash].owner;\r\n    }\r\n\r\n    function getNFTidentifier() public returns (uint256) {\r\n        uint256 randomNumber = uint256(\r\n            keccak256(abi.encodePacked(block.timestamp, block.number, msg.sender))\r\n        ) % 1000;\r\n        nfts.push(randomNumber);\r\n        return randomNumber;\r\n    }\r\n\r\n}\r\n",
  "sourcePath": "C:\\Users\\jannis.max.pilgrim@sap.com\\Desktop\\Git\\amos2021ws07-nft-development\\blockchain\\contracts\\HelloWorld.sol",
  "compiler": {
    "name": "solc",
    "version": "0.8.9+commit.e5eed63a.Emscripten.clang"
  },
  "schemaVersion": "3.4.3",
  "updatedAt": "2021-11-13T19:03:59.750Z",
  "networkType": "ethereum",
  "devdoc": {
    "kind": "dev",
    "methods": {},
    "version": 1
  },
  "userdoc": {
    "kind": "user",
    "methods": {},
    "version": 1
  }
}