{
  "contractName": "MintTheWorld",
  "abi": [
    {
      "inputs": [],
      "stateMutability": "nonpayable",
      "type": "constructor"
    },
    {
      "anonymous": false,
      "inputs": [
        {
          "indexed": true,
          "internalType": "address",
          "name": "owner",
          "type": "address"
        },
        {
          "indexed": true,
          "internalType": "address",
          "name": "approved",
          "type": "address"
        },
        {
          "indexed": true,
          "internalType": "uint256",
          "name": "tokenId",
          "type": "uint256"
        }
      ],
      "name": "Approval",
      "type": "event"
    },
    {
      "anonymous": false,
      "inputs": [
        {
          "indexed": true,
          "internalType": "address",
          "name": "owner",
          "type": "address"
        },
        {
          "indexed": true,
          "internalType": "address",
          "name": "operator",
          "type": "address"
        },
        {
          "indexed": false,
          "internalType": "bool",
          "name": "approved",
          "type": "bool"
        }
      ],
      "name": "ApprovalForAll",
      "type": "event"
    },
    {
      "anonymous": false,
      "inputs": [
        {
          "indexed": true,
          "internalType": "address",
          "name": "from",
          "type": "address"
        },
        {
          "indexed": true,
          "internalType": "address",
          "name": "to",
          "type": "address"
        },
        {
          "indexed": true,
          "internalType": "uint256",
          "name": "tokenId",
          "type": "uint256"
        }
      ],
      "name": "Transfer",
      "type": "event"
    },
    {
      "inputs": [
        {
          "internalType": "address",
          "name": "to",
          "type": "address"
        },
        {
          "internalType": "uint256",
          "name": "tokenId",
          "type": "uint256"
        }
      ],
      "name": "approve",
      "outputs": [],
      "stateMutability": "nonpayable",
      "type": "function"
    },
    {
      "inputs": [
        {
          "internalType": "address",
          "name": "owner",
          "type": "address"
        }
      ],
      "name": "balanceOf",
      "outputs": [
        {
          "internalType": "uint256",
          "name": "",
          "type": "uint256"
        }
      ],
      "stateMutability": "view",
      "type": "function"
    },
    {
      "inputs": [
        {
          "internalType": "uint256",
          "name": "tokenId",
          "type": "uint256"
        }
      ],
      "name": "getApproved",
      "outputs": [
        {
          "internalType": "address",
          "name": "",
          "type": "address"
        }
      ],
      "stateMutability": "view",
      "type": "function"
    },
    {
      "inputs": [
        {
          "internalType": "address",
          "name": "owner",
          "type": "address"
        },
        {
          "internalType": "address",
          "name": "operator",
          "type": "address"
        }
      ],
      "name": "isApprovedForAll",
      "outputs": [
        {
          "internalType": "bool",
          "name": "",
          "type": "bool"
        }
      ],
      "stateMutability": "view",
      "type": "function"
    },
    {
      "inputs": [],
      "name": "name",
      "outputs": [
        {
          "internalType": "string",
          "name": "",
          "type": "string"
        }
      ],
      "stateMutability": "view",
      "type": "function"
    },
    {
      "inputs": [
        {
          "internalType": "uint256",
          "name": "tokenId",
          "type": "uint256"
        }
      ],
      "name": "ownerOf",
      "outputs": [
        {
          "internalType": "address",
          "name": "",
          "type": "address"
        }
      ],
      "stateMutability": "view",
      "type": "function"
    },
    {
      "inputs": [
        {
          "internalType": "address",
          "name": "from",
          "type": "address"
        },
        {
          "internalType": "address",
          "name": "to",
          "type": "address"
        },
        {
          "internalType": "uint256",
          "name": "tokenId",
          "type": "uint256"
        }
      ],
      "name": "safeTransferFrom",
      "outputs": [],
      "stateMutability": "nonpayable",
      "type": "function"
    },
    {
      "inputs": [
        {
          "internalType": "address",
          "name": "from",
          "type": "address"
        },
        {
          "internalType": "address",
          "name": "to",
          "type": "address"
        },
        {
          "internalType": "uint256",
          "name": "tokenId",
          "type": "uint256"
        },
        {
          "internalType": "bytes",
          "name": "_data",
          "type": "bytes"
        }
      ],
      "name": "safeTransferFrom",
      "outputs": [],
      "stateMutability": "nonpayable",
      "type": "function"
    },
    {
      "inputs": [
        {
          "internalType": "address",
          "name": "operator",
          "type": "address"
        },
        {
          "internalType": "bool",
          "name": "approved",
          "type": "bool"
        }
      ],
      "name": "setApprovalForAll",
      "outputs": [],
      "stateMutability": "nonpayable",
      "type": "function"
    },
    {
      "inputs": [
        {
          "internalType": "bytes4",
          "name": "interfaceId",
          "type": "bytes4"
        }
      ],
      "name": "supportsInterface",
      "outputs": [
        {
          "internalType": "bool",
          "name": "",
          "type": "bool"
        }
      ],
      "stateMutability": "view",
      "type": "function"
    },
    {
      "inputs": [],
      "name": "symbol",
      "outputs": [
        {
          "internalType": "string",
          "name": "",
          "type": "string"
        }
      ],
      "stateMutability": "view",
      "type": "function"
    },
    {
      "inputs": [],
      "name": "tokenCounter",
      "outputs": [
        {
          "internalType": "uint256",
          "name": "",
          "type": "uint256"
        }
      ],
      "stateMutability": "view",
      "type": "function"
    },
    {
      "inputs": [
        {
          "internalType": "uint256",
          "name": "tokenId",
          "type": "uint256"
        }
      ],
      "name": "tokenURI",
      "outputs": [
        {
          "internalType": "string",
          "name": "",
          "type": "string"
        }
      ],
      "stateMutability": "view",
      "type": "function"
    },
    {
      "inputs": [
        {
          "internalType": "address",
          "name": "from",
          "type": "address"
        },
        {
          "internalType": "address",
          "name": "to",
          "type": "address"
        },
        {
          "internalType": "uint256",
          "name": "tokenId",
          "type": "uint256"
        }
      ],
      "name": "transferFrom",
      "outputs": [],
      "stateMutability": "nonpayable",
      "type": "function"
    },
    {
      "inputs": [
        {
          "internalType": "string",
          "name": "tokenURI",
          "type": "string"
        },
        {
          "internalType": "address",
          "name": "receiver",
          "type": "address"
        }
      ],
      "name": "mintNFT",
      "outputs": [
        {
          "internalType": "uint256",
          "name": "",
          "type": "uint256"
        }
      ],
      "stateMutability": "nonpayable",
      "type": "function"
    }
  ],
  "bytecode": "0x60806040523480156200001157600080fd5b506040518060400160405280600b81526020017f4e4654546865576f726c640000000000000000000000000000000000000000008152506040518060400160405280600f81526020017f50696563654f66546865576f726c640000000000000000000000000000000000815250816000908051906020019062000096929190620000c0565b508060019080519060200190620000af929190620000c0565b5050506000600781905550620001d5565b828054620000ce906200019f565b90600052602060002090601f016020900481019282620000f257600085556200013e565b82601f106200010d57805160ff19168380011785556200013e565b828001600101855582156200013e579182015b828111156200013d57825182559160200191906001019062000120565b5b5090506200014d919062000151565b5090565b5b808211156200016c57600081600090555060010162000152565b5090565b7f4e487b7100000000000000000000000000000000000000000000000000000000600052602260045260246000fd5b60006002820490506001821680620001b857607f821691505b60208210811415620001cf57620001ce62000170565b5b50919050565b612cbf80620001e56000396000f3fe608060405234801561001057600080fd5b50600436106100f55760003560e01c80636352211e11610097578063b88d4fde11610066578063b88d4fde14610296578063c87b56dd146102b2578063d082e381146102e2578063e985e9c514610300576100f5565b80636352211e146101fc57806370a082311461022c57806395d89b411461025c578063a22cb4651461027a576100f5565b8063081812fc116100d3578063081812fc14610178578063095ea7b3146101a857806323b872dd146101c457806342842e0e146101e0576100f5565b806301ffc9a7146100fa57806304f322791461012a57806306fdde031461015a575b600080fd5b610114600480360381019061010f91906119c3565b610330565b6040516101219190611a0b565b60405180910390f35b610144600480360381019061013f9190611bca565b610412565b6040516101519190611c3f565b60405180910390f35b610162610455565b60405161016f9190611ce2565b60405180910390f35b610192600480360381019061018d9190611d30565b6104e7565b60405161019f9190611d6c565b60405180910390f35b6101c260048036038101906101bd9190611d87565b61056c565b005b6101de60048036038101906101d99190611dc7565b610684565b005b6101fa60048036038101906101f59190611dc7565b6106e4565b005b61021660048036038101906102119190611d30565b610704565b6040516102239190611d6c565b60405180910390f35b61024660048036038101906102419190611e1a565b6107b6565b6040516102539190611c3f565b60405180910390f35b61026461086e565b6040516102719190611ce2565b60405180910390f35b610294600480360381019061028f9190611e73565b610900565b005b6102b060048036038101906102ab9190611f54565b610916565b005b6102cc60048036038101906102c79190611d30565b610978565b6040516102d99190611ce2565b60405180910390f35b6102ea610aca565b6040516102f79190611c3f565b60405180910390f35b61031a60048036038101906103159190611fd7565b610ad0565b6040516103279190611a0b565b60405180910390f35b60007f80ac58cd000000000000000000000000000000000000000000000000000000007bffffffffffffffffffffffffffffffffffffffffffffffffffffffff1916827bffffffffffffffffffffffffffffffffffffffffffffffffffffffff191614806103fb57507f5b5e139f000000000000000000000000000000000000000000000000000000007bffffffffffffffffffffffffffffffffffffffffffffffffffffffff1916827bffffffffffffffffffffffffffffffffffffffffffffffffffffffff1916145b8061040b575061040a82610b64565b5b9050919050565b600080610420600754610bce565b905060016007546104319190612046565b6007819055506104418382610c0a565b61044b8185610c28565b8091505092915050565b606060008054610464906120cb565b80601f0160208091040260200160405190810160405280929190818152602001828054610490906120cb565b80156104dd5780601f106104b2576101008083540402835291602001916104dd565b820191906000526020600020905b8154815290600101906020018083116104c057829003601f168201915b5050505050905090565b60006104f282610c9c565b610531576040517f08c379a00000000000000000000000000000000000000000000000000000000081526004016105289061216f565b60405180910390fd5b6004600083815260200190815260200160002060009054906101000a900473ffffffffffffffffffffffffffffffffffffffff169050919050565b600061057782610704565b90508073ffffffffffffffffffffffffffffffffffffffff168373ffffffffffffffffffffffffffffffffffffffff1614156105e8576040517f08c379a00000000000000000000000000000000000000000000000000000000081526004016105df90612201565b60405180910390fd5b8073ffffffffffffffffffffffffffffffffffffffff16610607610d08565b73ffffffffffffffffffffffffffffffffffffffff161480610636575061063581610630610d08565b610ad0565b5b610675576040517f08c379a000000000000000000000000000000000000000000000000000000000815260040161066c90612293565b60405180910390fd5b61067f8383610d10565b505050565b61069561068f610d08565b82610dc9565b6106d4576040517f08c379a00000000000000000000000000000000000000000000000000000000081526004016106cb90612325565b60405180910390fd5b6106df838383610ea7565b505050565b6106ff83838360405180602001604052806000815250610916565b505050565b6000806002600084815260200190815260200160002060009054906101000a900473ffffffffffffffffffffffffffffffffffffffff169050600073ffffffffffffffffffffffffffffffffffffffff168173ffffffffffffffffffffffffffffffffffffffff1614156107ad576040517f08c379a00000000000000000000000000000000000000000000000000000000081526004016107a4906123b7565b60405180910390fd5b80915050919050565b60008073ffffffffffffffffffffffffffffffffffffffff168273ffffffffffffffffffffffffffffffffffffffff161415610827576040517f08c379a000000000000000000000000000000000000000000000000000000000815260040161081e90612449565b60405180910390fd5b600360008373ffffffffffffffffffffffffffffffffffffffff1673ffffffffffffffffffffffffffffffffffffffff168152602001908152602001600020549050919050565b60606001805461087d906120cb565b80601f01602080910402602001604051908101604052809291908181526020018280546108a9906120cb565b80156108f65780601f106108cb576101008083540402835291602001916108f6565b820191906000526020600020905b8154815290600101906020018083116108d957829003601f168201915b5050505050905090565b61091261090b610d08565b8383611103565b5050565b610927610921610d08565b83610dc9565b610966576040517f08c379a000000000000000000000000000000000000000000000000000000000815260040161095d90612325565b60405180910390fd5b61097284848484611270565b50505050565b606061098382610c9c565b6109c2576040517f08c379a00000000000000000000000000000000000000000000000000000000081526004016109b9906124db565b60405180910390fd5b60006006600084815260200190815260200160002080546109e2906120cb565b80601f0160208091040260200160405190810160405280929190818152602001828054610a0e906120cb565b8015610a5b5780601f10610a3057610100808354040283529160200191610a5b565b820191906000526020600020905b815481529060010190602001808311610a3e57829003601f168201915b505050505090506000610a6c6112cc565b9050600081511415610a82578192505050610ac5565b600082511115610ab7578082604051602001610a9f929190612537565b60405160208183030381529060405292505050610ac5565b610ac0846112e3565b925050505b919050565b60075481565b6000600560008473ffffffffffffffffffffffffffffffffffffffff1673ffffffffffffffffffffffffffffffffffffffff16815260200190815260200160002060008373ffffffffffffffffffffffffffffffffffffffff1673ffffffffffffffffffffffffffffffffffffffff16815260200190815260200160002060009054906101000a900460ff16905092915050565b60007f01ffc9a7000000000000000000000000000000000000000000000000000000007bffffffffffffffffffffffffffffffffffffffffffffffffffffffff1916827bffffffffffffffffffffffffffffffffffffffffffffffffffffffff1916149050919050565b600080424384604051602001610be69392919061257c565b6040516020818303038152906040528051906020012060001c905080915050919050565b610c2482826040518060200160405280600081525061138a565b5050565b610c3182610c9c565b610c70576040517f08c379a0000000000000000000000000000000000000000000000000000000008152600401610c679061262b565b60405180910390fd5b80600660008481526020019081526020016000209080519060200190610c979291906118b4565b505050565b60008073ffffffffffffffffffffffffffffffffffffffff166002600084815260200190815260200160002060009054906101000a900473ffffffffffffffffffffffffffffffffffffffff1673ffffffffffffffffffffffffffffffffffffffff1614159050919050565b600033905090565b816004600083815260200190815260200160002060006101000a81548173ffffffffffffffffffffffffffffffffffffffff021916908373ffffffffffffffffffffffffffffffffffffffff160217905550808273ffffffffffffffffffffffffffffffffffffffff16610d8383610704565b73ffffffffffffffffffffffffffffffffffffffff167f8c5be1e5ebec7d5bd14f71427d1e84f3dd0314c0f7b2291e5b200ac8c7c3b92560405160405180910390a45050565b6000610dd482610c9c565b610e13576040517f08c379a0000000000000000000000000000000000000000000000000000000008152600401610e0a906126bd565b60405180910390fd5b6000610e1e83610704565b90508073ffffffffffffffffffffffffffffffffffffffff168473ffffffffffffffffffffffffffffffffffffffff161480610e8d57508373ffffffffffffffffffffffffffffffffffffffff16610e75846104e7565b73ffffffffffffffffffffffffffffffffffffffff16145b80610e9e5750610e9d8185610ad0565b5b91505092915050565b8273ffffffffffffffffffffffffffffffffffffffff16610ec782610704565b73ffffffffffffffffffffffffffffffffffffffff1614610f1d576040517f08c379a0000000000000000000000000000000000000000000000000000000008152600401610f149061274f565b60405180910390fd5b600073ffffffffffffffffffffffffffffffffffffffff168273ffffffffffffffffffffffffffffffffffffffff161415610f8d576040517f08c379a0000000000000000000000000000000000000000000000000000000008152600401610f84906127e1565b60405180910390fd5b610f988383836113e5565b610fa3600082610d10565b6001600360008573ffffffffffffffffffffffffffffffffffffffff1673ffffffffffffffffffffffffffffffffffffffff1681526020019081526020016000206000828254610ff39190612801565b925050819055506001600360008473ffffffffffffffffffffffffffffffffffffffff1673ffffffffffffffffffffffffffffffffffffffff168152602001908152602001600020600082825461104a9190612046565b92505081905550816002600083815260200190815260200160002060006101000a81548173ffffffffffffffffffffffffffffffffffffffff021916908373ffffffffffffffffffffffffffffffffffffffff160217905550808273ffffffffffffffffffffffffffffffffffffffff168473ffffffffffffffffffffffffffffffffffffffff167fddf252ad1be2c89b69c2b068fc378daa952ba7f163c4a11628f55a4df523b3ef60405160405180910390a4505050565b8173ffffffffffffffffffffffffffffffffffffffff168373ffffffffffffffffffffffffffffffffffffffff161415611172576040517f08c379a000000000000000000000000000000000000000000000000000000000815260040161116990612881565b60405180910390fd5b80600560008573ffffffffffffffffffffffffffffffffffffffff1673ffffffffffffffffffffffffffffffffffffffff16815260200190815260200160002060008473ffffffffffffffffffffffffffffffffffffffff1673ffffffffffffffffffffffffffffffffffffffff16815260200190815260200160002060006101000a81548160ff0219169083151502179055508173ffffffffffffffffffffffffffffffffffffffff168373ffffffffffffffffffffffffffffffffffffffff167f17307eab39ab6107e8899845ad3d59bd9653f200f220920489ca2b5937696c31836040516112639190611a0b565b60405180910390a3505050565b61127b848484610ea7565b611287848484846113ea565b6112c6576040517f08c379a00000000000000000000000000000000000000000000000000000000081526004016112bd90612913565b60405180910390fd5b50505050565b606060405180602001604052806000815250905090565b60606112ee82610c9c565b61132d576040517f08c379a0000000000000000000000000000000000000000000000000000000008152600401611324906129a5565b60405180910390fd5b60006113376112cc565b905060008151116113575760405180602001604052806000815250611382565b8061136184611572565b604051602001611372929190612537565b6040516020818303038152906040525b915050919050565b61139483836116d3565b6113a160008484846113ea565b6113e0576040517f08c379a00000000000000000000000000000000000000000000000000000000081526004016113d790612913565b60405180910390fd5b505050565b505050565b600061140b8473ffffffffffffffffffffffffffffffffffffffff166118a1565b15611565578373ffffffffffffffffffffffffffffffffffffffff1663150b7a02611434610d08565b8786866040518563ffffffff1660e01b81526004016114569493929190612a1a565b6020604051808303816000875af192505050801561149257506040513d601f19601f8201168201806040525081019061148f9190612a7b565b60015b611515573d80600081146114c2576040519150601f19603f3d011682016040523d82523d6000602084013e6114c7565b606091505b5060008151141561150d576040517f08c379a000000000000000000000000000000000000000000000000000000000815260040161150490612913565b60405180910390fd5b805181602001fd5b63150b7a0260e01b7bffffffffffffffffffffffffffffffffffffffffffffffffffffffff1916817bffffffffffffffffffffffffffffffffffffffffffffffffffffffff19161491505061156a565b600190505b949350505050565b606060008214156115ba576040518060400160405280600181526020017f300000000000000000000000000000000000000000000000000000000000000081525090506116ce565b600082905060005b600082146115ec5780806115d590612aa8565b915050600a826115e59190612b20565b91506115c2565b60008167ffffffffffffffff81111561160857611607611a41565b5b6040519080825280601f01601f19166020018201604052801561163a5781602001600182028036833780820191505090505b5090505b600085146116c7576001826116539190612801565b9150600a856116629190612b51565b603061166e9190612046565b60f81b81838151811061168457611683612b82565b5b60200101907effffffffffffffffffffffffffffffffffffffffffffffffffffffffffffff1916908160001a905350600a856116c09190612b20565b945061163e565b8093505050505b919050565b600073ffffffffffffffffffffffffffffffffffffffff168273ffffffffffffffffffffffffffffffffffffffff161415611743576040517f08c379a000000000000000000000000000000000000000000000000000000000815260040161173a90612bfd565b60405180910390fd5b61174c81610c9c565b1561178c576040517f08c379a000000000000000000000000000000000000000000000000000000000815260040161178390612c69565b60405180910390fd5b611798600083836113e5565b6001600360008473ffffffffffffffffffffffffffffffffffffffff1673ffffffffffffffffffffffffffffffffffffffff16815260200190815260200160002060008282546117e89190612046565b92505081905550816002600083815260200190815260200160002060006101000a81548173ffffffffffffffffffffffffffffffffffffffff021916908373ffffffffffffffffffffffffffffffffffffffff160217905550808273ffffffffffffffffffffffffffffffffffffffff16600073ffffffffffffffffffffffffffffffffffffffff167fddf252ad1be2c89b69c2b068fc378daa952ba7f163c4a11628f55a4df523b3ef60405160405180910390a45050565b600080823b905060008111915050919050565b8280546118c0906120cb565b90600052602060002090601f0160209004810192826118e25760008555611929565b82601f106118fb57805160ff1916838001178555611929565b82800160010185558215611929579182015b8281111561192857825182559160200191906001019061190d565b5b509050611936919061193a565b5090565b5b8082111561195357600081600090555060010161193b565b5090565b6000604051905090565b600080fd5b600080fd5b60007fffffffff0000000000000000000000000000000000000000000000000000000082169050919050565b6119a08161196b565b81146119ab57600080fd5b50565b6000813590506119bd81611997565b92915050565b6000602082840312156119d9576119d8611961565b5b60006119e7848285016119ae565b91505092915050565b60008115159050919050565b611a05816119f0565b82525050565b6000602082019050611a2060008301846119fc565b92915050565b600080fd5b600080fd5b6000601f19601f8301169050919050565b7f4e487b7100000000000000000000000000000000000000000000000000000000600052604160045260246000fd5b611a7982611a30565b810181811067ffffffffffffffff82111715611a9857611a97611a41565b5b80604052505050565b6000611aab611957565b9050611ab78282611a70565b919050565b600067ffffffffffffffff821115611ad757611ad6611a41565b5b611ae082611a30565b9050602081019050919050565b82818337600083830152505050565b6000611b0f611b0a84611abc565b611aa1565b905082815260208101848484011115611b2b57611b2a611a2b565b5b611b36848285611aed565b509392505050565b600082601f830112611b5357611b52611a26565b5b8135611b63848260208601611afc565b91505092915050565b600073ffffffffffffffffffffffffffffffffffffffff82169050919050565b6000611b9782611b6c565b9050919050565b611ba781611b8c565b8114611bb257600080fd5b50565b600081359050611bc481611b9e565b92915050565b60008060408385031215611be157611be0611961565b5b600083013567ffffffffffffffff811115611bff57611bfe611966565b5b611c0b85828601611b3e565b9250506020611c1c85828601611bb5565b9150509250929050565b6000819050919050565b611c3981611c26565b82525050565b6000602082019050611c546000830184611c30565b92915050565b600081519050919050565b600082825260208201905092915050565b60005b83811015611c94578082015181840152602081019050611c79565b83811115611ca3576000848401525b50505050565b6000611cb482611c5a565b611cbe8185611c65565b9350611cce818560208601611c76565b611cd781611a30565b840191505092915050565b60006020820190508181036000830152611cfc8184611ca9565b905092915050565b611d0d81611c26565b8114611d1857600080fd5b50565b600081359050611d2a81611d04565b92915050565b600060208284031215611d4657611d45611961565b5b6000611d5484828501611d1b565b91505092915050565b611d6681611b8c565b82525050565b6000602082019050611d816000830184611d5d565b92915050565b60008060408385031215611d9e57611d9d611961565b5b6000611dac85828601611bb5565b9250506020611dbd85828601611d1b565b9150509250929050565b600080600060608486031215611de057611ddf611961565b5b6000611dee86828701611bb5565b9350506020611dff86828701611bb5565b9250506040611e1086828701611d1b565b9150509250925092565b600060208284031215611e3057611e2f611961565b5b6000611e3e84828501611bb5565b91505092915050565b611e50816119f0565b8114611e5b57600080fd5b50565b600081359050611e6d81611e47565b92915050565b60008060408385031215611e8a57611e89611961565b5b6000611e9885828601611bb5565b9250506020611ea985828601611e5e565b9150509250929050565b600067ffffffffffffffff821115611ece57611ecd611a41565b5b611ed782611a30565b9050602081019050919050565b6000611ef7611ef284611eb3565b611aa1565b905082815260208101848484011115611f1357611f12611a2b565b5b611f1e848285611aed565b509392505050565b600082601f830112611f3b57611f3a611a26565b5b8135611f4b848260208601611ee4565b91505092915050565b60008060008060808587031215611f6e57611f6d611961565b5b6000611f7c87828801611bb5565b9450506020611f8d87828801611bb5565b9350506040611f9e87828801611d1b565b925050606085013567ffffffffffffffff811115611fbf57611fbe611966565b5b611fcb87828801611f26565b91505092959194509250565b60008060408385031215611fee57611fed611961565b5b6000611ffc85828601611bb5565b925050602061200d85828601611bb5565b9150509250929050565b7f4e487b7100000000000000000000000000000000000000000000000000000000600052601160045260246000fd5b600061205182611c26565b915061205c83611c26565b9250827fffffffffffffffffffffffffffffffffffffffffffffffffffffffffffffffff0382111561209157612090612017565b5b828201905092915050565b7f4e487b7100000000000000000000000000000000000000000000000000000000600052602260045260246000fd5b600060028204905060018216806120e357607f821691505b602082108114156120f7576120f661209c565b5b50919050565b7f4552433732313a20617070726f76656420717565727920666f72206e6f6e657860008201527f697374656e7420746f6b656e0000000000000000000000000000000000000000602082015250565b6000612159602c83611c65565b9150612164826120fd565b604082019050919050565b600060208201905081810360008301526121888161214c565b9050919050565b7f4552433732313a20617070726f76616c20746f2063757272656e74206f776e6560008201527f7200000000000000000000000000000000000000000000000000000000000000602082015250565b60006121eb602183611c65565b91506121f68261218f565b604082019050919050565b6000602082019050818103600083015261221a816121de565b9050919050565b7f4552433732313a20617070726f76652063616c6c6572206973206e6f74206f7760008201527f6e6572206e6f7220617070726f76656420666f7220616c6c0000000000000000602082015250565b600061227d603883611c65565b915061228882612221565b604082019050919050565b600060208201905081810360008301526122ac81612270565b9050919050565b7f4552433732313a207472616e736665722063616c6c6572206973206e6f74206f60008201527f776e6572206e6f7220617070726f766564000000000000000000000000000000602082015250565b600061230f603183611c65565b915061231a826122b3565b604082019050919050565b6000602082019050818103600083015261233e81612302565b9050919050565b7f4552433732313a206f776e657220717565727920666f72206e6f6e657869737460008201527f656e7420746f6b656e0000000000000000000000000000000000000000000000602082015250565b60006123a1602983611c65565b91506123ac82612345565b604082019050919050565b600060208201905081810360008301526123d081612394565b9050919050565b7f4552433732313a2062616c616e636520717565727920666f7220746865207a6560008201527f726f206164647265737300000000000000000000000000000000000000000000602082015250565b6000612433602a83611c65565b915061243e826123d7565b604082019050919050565b6000602082019050818103600083015261246281612426565b9050919050565b7f45524337323155524953746f726167653a2055524920717565727920666f722060008201527f6e6f6e6578697374656e7420746f6b656e000000000000000000000000000000602082015250565b60006124c5603183611c65565b91506124d082612469565b604082019050919050565b600060208201905081810360008301526124f4816124b8565b9050919050565b600081905092915050565b600061251182611c5a565b61251b81856124fb565b935061252b818560208601611c76565b80840191505092915050565b60006125438285612506565b915061254f8284612506565b91508190509392505050565b6000819050919050565b61257661257182611c26565b61255b565b82525050565b60006125888286612565565b6020820191506125988285612565565b6020820191506125a88284612565565b602082019150819050949350505050565b7f45524337323155524953746f726167653a2055524920736574206f66206e6f6e60008201527f6578697374656e7420746f6b656e000000000000000000000000000000000000602082015250565b6000612615602e83611c65565b9150612620826125b9565b604082019050919050565b6000602082019050818103600083015261264481612608565b9050919050565b7f4552433732313a206f70657261746f7220717565727920666f72206e6f6e657860008201527f697374656e7420746f6b656e0000000000000000000000000000000000000000602082015250565b60006126a7602c83611c65565b91506126b28261264b565b604082019050919050565b600060208201905081810360008301526126d68161269a565b9050919050565b7f4552433732313a207472616e73666572206f6620746f6b656e2074686174206960008201527f73206e6f74206f776e0000000000000000000000000000000000000000000000602082015250565b6000612739602983611c65565b9150612744826126dd565b604082019050919050565b600060208201905081810360008301526127688161272c565b9050919050565b7f4552433732313a207472616e7366657220746f20746865207a65726f2061646460008201527f7265737300000000000000000000000000000000000000000000000000000000602082015250565b60006127cb602483611c65565b91506127d68261276f565b604082019050919050565b600060208201905081810360008301526127fa816127be565b9050919050565b600061280c82611c26565b915061281783611c26565b92508282101561282a57612829612017565b5b828203905092915050565b7f4552433732313a20617070726f766520746f2063616c6c657200000000000000600082015250565b600061286b601983611c65565b915061287682612835565b602082019050919050565b6000602082019050818103600083015261289a8161285e565b9050919050565b7f4552433732313a207472616e7366657220746f206e6f6e20455243373231526560008201527f63656976657220696d706c656d656e7465720000000000000000000000000000602082015250565b60006128fd603283611c65565b9150612908826128a1565b604082019050919050565b6000602082019050818103600083015261292c816128f0565b9050919050565b7f4552433732314d657461646174613a2055524920717565727920666f72206e6f60008201527f6e6578697374656e7420746f6b656e0000000000000000000000000000000000602082015250565b600061298f602f83611c65565b915061299a82612933565b604082019050919050565b600060208201905081810360008301526129be81612982565b9050919050565b600081519050919050565b600082825260208201905092915050565b60006129ec826129c5565b6129f681856129d0565b9350612a06818560208601611c76565b612a0f81611a30565b840191505092915050565b6000608082019050612a2f6000830187611d5d565b612a3c6020830186611d5d565b612a496040830185611c30565b8181036060830152612a5b81846129e1565b905095945050505050565b600081519050612a7581611997565b92915050565b600060208284031215612a9157612a90611961565b5b6000612a9f84828501612a66565b91505092915050565b6000612ab382611c26565b91507fffffffffffffffffffffffffffffffffffffffffffffffffffffffffffffffff821415612ae657612ae5612017565b5b600182019050919050565b7f4e487b7100000000000000000000000000000000000000000000000000000000600052601260045260246000fd5b6000612b2b82611c26565b9150612b3683611c26565b925082612b4657612b45612af1565b5b828204905092915050565b6000612b5c82611c26565b9150612b6783611c26565b925082612b7757612b76612af1565b5b828206905092915050565b7f4e487b7100000000000000000000000000000000000000000000000000000000600052603260045260246000fd5b7f4552433732313a206d696e7420746f20746865207a65726f2061646472657373600082015250565b6000612be7602083611c65565b9150612bf282612bb1565b602082019050919050565b60006020820190508181036000830152612c1681612bda565b9050919050565b7f4552433732313a20746f6b656e20616c7265616479206d696e74656400000000600082015250565b6000612c53601c83611c65565b9150612c5e82612c1d565b602082019050919050565b60006020820190508181036000830152612c8281612c46565b905091905056fea26469706673582212203fa998d0475b75abe47de4f5f5f191cd561a0437fb6c8904c3f656cbe8f439b564736f6c634300080a0033",
  "immutableReferences": {},
  "source": "// File: @openzeppelin/contracts/utils/introspection/IERC165.sol\n\n// OpenZeppelin Contracts v4.4.0 (utils/introspection/IERC165.sol)\n\npragma solidity ^0.8.0;\n\n/**\n * @dev Interface of the ERC165 standard, as defined in the\n * https://eips.ethereum.org/EIPS/eip-165[EIP].\n *\n * Implementers can declare support of contract interfaces, which can then be\n * queried by others ({ERC165Checker}).\n *\n * For an implementation, see {ERC165}.\n */\ninterface IERC165 {\n    /**\n     * @dev Returns true if this contract implements the interface defined by\n     * `interfaceId`. See the corresponding\n     * https://eips.ethereum.org/EIPS/eip-165#how-interfaces-are-identified[EIP section]\n     * to learn more about how these ids are created.\n     *\n     * This function call must use less than 30 000 gas.\n     */\n    function supportsInterface(bytes4 interfaceId) external view returns (bool);\n}\n\n// File: @openzeppelin/contracts/token/ERC721/IERC721.sol\n\n// OpenZeppelin Contracts v4.4.0 (token/ERC721/IERC721.sol)\n\npragma solidity ^0.8.0;\n\n/**\n * @dev Required interface of an ERC721 compliant contract.\n */\ninterface IERC721 is IERC165 {\n    /**\n     * @dev Emitted when `tokenId` token is transferred from `from` to `to`.\n     */\n    event Transfer(\n        address indexed from,\n        address indexed to,\n        uint256 indexed tokenId\n    );\n\n    /**\n     * @dev Emitted when `owner` enables `approved` to manage the `tokenId` token.\n     */\n    event Approval(\n        address indexed owner,\n        address indexed approved,\n        uint256 indexed tokenId\n    );\n\n    /**\n     * @dev Emitted when `owner` enables or disables (`approved`) `operator` to manage all of its assets.\n     */\n    event ApprovalForAll(\n        address indexed owner,\n        address indexed operator,\n        bool approved\n    );\n\n    /**\n     * @dev Returns the number of tokens in ``owner``'s account.\n     */\n    function balanceOf(address owner) external view returns (uint256 balance);\n\n    /**\n     * @dev Returns the owner of the `tokenId` token.\n     *\n     * Requirements:\n     *\n     * - `tokenId` must exist.\n     */\n    function ownerOf(uint256 tokenId) external view returns (address owner);\n\n    /**\n     * @dev Safely transfers `tokenId` token from `from` to `to`, checking first that contract recipients\n     * are aware of the ERC721 protocol to prevent tokens from being forever locked.\n     *\n     * Requirements:\n     *\n     * - `from` cannot be the zero address.\n     * - `to` cannot be the zero address.\n     * - `tokenId` token must exist and be owned by `from`.\n     * - If the caller is not `from`, it must be have been allowed to move this token by either {approve} or {setApprovalForAll}.\n     * - If `to` refers to a smart contract, it must implement {IERC721Receiver-onERC721Received}, which is called upon a safe transfer.\n     *\n     * Emits a {Transfer} event.\n     */\n    function safeTransferFrom(\n        address from,\n        address to,\n        uint256 tokenId\n    ) external;\n\n    /**\n     * @dev Transfers `tokenId` token from `from` to `to`.\n     *\n     * WARNING: Usage of this method is discouraged, use {safeTransferFrom} whenever possible.\n     *\n     * Requirements:\n     *\n     * - `from` cannot be the zero address.\n     * - `to` cannot be the zero address.\n     * - `tokenId` token must be owned by `from`.\n     * - If the caller is not `from`, it must be approved to move this token by either {approve} or {setApprovalForAll}.\n     *\n     * Emits a {Transfer} event.\n     */\n    function transferFrom(\n        address from,\n        address to,\n        uint256 tokenId\n    ) external;\n\n    /**\n     * @dev Gives permission to `to` to transfer `tokenId` token to another account.\n     * The approval is cleared when the token is transferred.\n     *\n     * Only a single account can be approved at a time, so approving the zero address clears previous approvals.\n     *\n     * Requirements:\n     *\n     * - The caller must own the token or be an approved operator.\n     * - `tokenId` must exist.\n     *\n     * Emits an {Approval} event.\n     */\n    function approve(address to, uint256 tokenId) external;\n\n    /**\n     * @dev Returns the account approved for `tokenId` token.\n     *\n     * Requirements:\n     *\n     * - `tokenId` must exist.\n     */\n    function getApproved(uint256 tokenId)\n        external\n        view\n        returns (address operator);\n\n    /**\n     * @dev Approve or remove `operator` as an operator for the caller.\n     * Operators can call {transferFrom} or {safeTransferFrom} for any token owned by the caller.\n     *\n     * Requirements:\n     *\n     * - The `operator` cannot be the caller.\n     *\n     * Emits an {ApprovalForAll} event.\n     */\n    function setApprovalForAll(address operator, bool _approved) external;\n\n    /**\n     * @dev Returns if the `operator` is allowed to manage all of the assets of `owner`.\n     *\n     * See {setApprovalForAll}\n     */\n    function isApprovedForAll(address owner, address operator)\n        external\n        view\n        returns (bool);\n\n    /**\n     * @dev Safely transfers `tokenId` token from `from` to `to`.\n     *\n     * Requirements:\n     *\n     * - `from` cannot be the zero address.\n     * - `to` cannot be the zero address.\n     * - `tokenId` token must exist and be owned by `from`.\n     * - If the caller is not `from`, it must be approved to move this token by either {approve} or {setApprovalForAll}.\n     * - If `to` refers to a smart contract, it must implement {IERC721Receiver-onERC721Received}, which is called upon a safe transfer.\n     *\n     * Emits a {Transfer} event.\n     */\n    function safeTransferFrom(\n        address from,\n        address to,\n        uint256 tokenId,\n        bytes calldata data\n    ) external;\n}\n\n// File: @openzeppelin/contracts/token/ERC721/IERC721Receiver.sol\n\n// OpenZeppelin Contracts v4.4.0 (token/ERC721/IERC721Receiver.sol)\n\npragma solidity ^0.8.0;\n\n/**\n * @title ERC721 token receiver interface\n * @dev Interface for any contract that wants to support safeTransfers\n * from ERC721 asset contracts.\n */\ninterface IERC721Receiver {\n    /**\n     * @dev Whenever an {IERC721} `tokenId` token is transferred to this contract via {IERC721-safeTransferFrom}\n     * by `operator` from `from`, this function is called.\n     *\n     * It must return its Solidity selector to confirm the token transfer.\n     * If any other value is returned or the interface is not implemented by the recipient, the transfer will be reverted.\n     *\n     * The selector can be obtained in Solidity with `IERC721.onERC721Received.selector`.\n     */\n    function onERC721Received(\n        address operator,\n        address from,\n        uint256 tokenId,\n        bytes calldata data\n    ) external returns (bytes4);\n}\n\n// File: @openzeppelin/contracts/token/ERC721/extensions/IERC721Metadata.sol\n\n// OpenZeppelin Contracts v4.4.0 (token/ERC721/extensions/IERC721Metadata.sol)\n\npragma solidity ^0.8.0;\n\n/**\n * @title ERC-721 Non-Fungible Token Standard, optional metadata extension\n * @dev See https://eips.ethereum.org/EIPS/eip-721\n */\ninterface IERC721Metadata is IERC721 {\n    /**\n     * @dev Returns the token collection name.\n     */\n    function name() external view returns (string memory);\n\n    /**\n     * @dev Returns the token collection symbol.\n     */\n    function symbol() external view returns (string memory);\n\n    /**\n     * @dev Returns the Uniform Resource Identifier (URI) for `tokenId` token.\n     */\n    function tokenURI(uint256 tokenId) external view returns (string memory);\n}\n\n// File: @openzeppelin/contracts/utils/Address.sol\n\n// OpenZeppelin Contracts v4.4.0 (utils/Address.sol)\n\npragma solidity ^0.8.0;\n\n/**\n * @dev Collection of functions related to the address type\n */\nlibrary Address {\n    /**\n     * @dev Returns true if `account` is a contract.\n     *\n     * [IMPORTANT]\n     * ====\n     * It is unsafe to assume that an address for which this function returns\n     * false is an externally-owned account (EOA) and not a contract.\n     *\n     * Among others, `isContract` will return false for the following\n     * types of addresses:\n     *\n     *  - an externally-owned account\n     *  - a contract in construction\n     *  - an address where a contract will be created\n     *  - an address where a contract lived, but was destroyed\n     * ====\n     */\n    function isContract(address account) internal view returns (bool) {\n        // This method relies on extcodesize, which returns 0 for contracts in\n        // construction, since the code is only stored at the end of the\n        // constructor execution.\n\n        uint256 size;\n        assembly {\n            size := extcodesize(account)\n        }\n        return size > 0;\n    }\n\n    /**\n     * @dev Replacement for Solidity's `transfer`: sends `amount` wei to\n     * `recipient`, forwarding all available gas and reverting on errors.\n     *\n     * https://eips.ethereum.org/EIPS/eip-1884[EIP1884] increases the gas cost\n     * of certain opcodes, possibly making contracts go over the 2300 gas limit\n     * imposed by `transfer`, making them unable to receive funds via\n     * `transfer`. {sendValue} removes this limitation.\n     *\n     * https://diligence.consensys.net/posts/2019/09/stop-using-soliditys-transfer-now/[Learn more].\n     *\n     * IMPORTANT: because control is transferred to `recipient`, care must be\n     * taken to not create reentrancy vulnerabilities. Consider using\n     * {ReentrancyGuard} or the\n     * https://solidity.readthedocs.io/en/v0.5.11/security-considerations.html#use-the-checks-effects-interactions-pattern[checks-effects-interactions pattern].\n     */\n    function sendValue(address payable recipient, uint256 amount) internal {\n        require(\n            address(this).balance >= amount,\n            \"Address: insufficient balance\"\n        );\n\n        (bool success, ) = recipient.call{value: amount}(\"\");\n        require(\n            success,\n            \"Address: unable to send value, recipient may have reverted\"\n        );\n    }\n\n    /**\n     * @dev Performs a Solidity function call using a low level `call`. A\n     * plain `call` is an unsafe replacement for a function call: use this\n     * function instead.\n     *\n     * If `target` reverts with a revert reason, it is bubbled up by this\n     * function (like regular Solidity function calls).\n     *\n     * Returns the raw returned data. To convert to the expected return value,\n     * use https://solidity.readthedocs.io/en/latest/units-and-global-variables.html?highlight=abi.decode#abi-encoding-and-decoding-functions[`abi.decode`].\n     *\n     * Requirements:\n     *\n     * - `target` must be a contract.\n     * - calling `target` with `data` must not revert.\n     *\n     * _Available since v3.1._\n     */\n    function functionCall(address target, bytes memory data)\n        internal\n        returns (bytes memory)\n    {\n        return functionCall(target, data, \"Address: low-level call failed\");\n    }\n\n    /**\n     * @dev Same as {xref-Address-functionCall-address-bytes-}[`functionCall`], but with\n     * `errorMessage` as a fallback revert reason when `target` reverts.\n     *\n     * _Available since v3.1._\n     */\n    function functionCall(\n        address target,\n        bytes memory data,\n        string memory errorMessage\n    ) internal returns (bytes memory) {\n        return functionCallWithValue(target, data, 0, errorMessage);\n    }\n\n    /**\n     * @dev Same as {xref-Address-functionCall-address-bytes-}[`functionCall`],\n     * but also transferring `value` wei to `target`.\n     *\n     * Requirements:\n     *\n     * - the calling contract must have an ETH balance of at least `value`.\n     * - the called Solidity function must be `payable`.\n     *\n     * _Available since v3.1._\n     */\n    function functionCallWithValue(\n        address target,\n        bytes memory data,\n        uint256 value\n    ) internal returns (bytes memory) {\n        return\n            functionCallWithValue(\n                target,\n                data,\n                value,\n                \"Address: low-level call with value failed\"\n            );\n    }\n\n    /**\n     * @dev Same as {xref-Address-functionCallWithValue-address-bytes-uint256-}[`functionCallWithValue`], but\n     * with `errorMessage` as a fallback revert reason when `target` reverts.\n     *\n     * _Available since v3.1._\n     */\n    function functionCallWithValue(\n        address target,\n        bytes memory data,\n        uint256 value,\n        string memory errorMessage\n    ) internal returns (bytes memory) {\n        require(\n            address(this).balance >= value,\n            \"Address: insufficient balance for call\"\n        );\n        require(isContract(target), \"Address: call to non-contract\");\n\n        (bool success, bytes memory returndata) = target.call{value: value}(\n            data\n        );\n        return verifyCallResult(success, returndata, errorMessage);\n    }\n\n    /**\n     * @dev Same as {xref-Address-functionCall-address-bytes-}[`functionCall`],\n     * but performing a static call.\n     *\n     * _Available since v3.3._\n     */\n    function functionStaticCall(address target, bytes memory data)\n        internal\n        view\n        returns (bytes memory)\n    {\n        return\n            functionStaticCall(\n                target,\n                data,\n                \"Address: low-level static call failed\"\n            );\n    }\n\n    /**\n     * @dev Same as {xref-Address-functionCall-address-bytes-string-}[`functionCall`],\n     * but performing a static call.\n     *\n     * _Available since v3.3._\n     */\n    function functionStaticCall(\n        address target,\n        bytes memory data,\n        string memory errorMessage\n    ) internal view returns (bytes memory) {\n        require(isContract(target), \"Address: static call to non-contract\");\n\n        (bool success, bytes memory returndata) = target.staticcall(data);\n        return verifyCallResult(success, returndata, errorMessage);\n    }\n\n    /**\n     * @dev Same as {xref-Address-functionCall-address-bytes-}[`functionCall`],\n     * but performing a delegate call.\n     *\n     * _Available since v3.4._\n     */\n    function functionDelegateCall(address target, bytes memory data)\n        internal\n        returns (bytes memory)\n    {\n        return\n            functionDelegateCall(\n                target,\n                data,\n                \"Address: low-level delegate call failed\"\n            );\n    }\n\n    /**\n     * @dev Same as {xref-Address-functionCall-address-bytes-string-}[`functionCall`],\n     * but performing a delegate call.\n     *\n     * _Available since v3.4._\n     */\n    function functionDelegateCall(\n        address target,\n        bytes memory data,\n        string memory errorMessage\n    ) internal returns (bytes memory) {\n        require(isContract(target), \"Address: delegate call to non-contract\");\n\n        (bool success, bytes memory returndata) = target.delegatecall(data);\n        return verifyCallResult(success, returndata, errorMessage);\n    }\n\n    /**\n     * @dev Tool to verifies that a low level call was successful, and revert if it wasn't, either by bubbling the\n     * revert reason using the provided one.\n     *\n     * _Available since v4.3._\n     */\n    function verifyCallResult(\n        bool success,\n        bytes memory returndata,\n        string memory errorMessage\n    ) internal pure returns (bytes memory) {\n        if (success) {\n            return returndata;\n        } else {\n            // Look for revert reason and bubble it up if present\n            if (returndata.length > 0) {\n                // The easiest way to bubble the revert reason is using memory via assembly\n\n                assembly {\n                    let returndata_size := mload(returndata)\n                    revert(add(32, returndata), returndata_size)\n                }\n            } else {\n                revert(errorMessage);\n            }\n        }\n    }\n}\n\n// File: @openzeppelin/contracts/utils/Context.sol\n\n// OpenZeppelin Contracts v4.4.0 (utils/Context.sol)\n\npragma solidity ^0.8.0;\n\n/**\n * @dev Provides information about the current execution context, including the\n * sender of the transaction and its data. While these are generally available\n * via msg.sender and msg.data, they should not be accessed in such a direct\n * manner, since when dealing with meta-transactions the account sending and\n * paying for execution may not be the actual sender (as far as an application\n * is concerned).\n *\n * This contract is only required for intermediate, library-like contracts.\n */\nabstract contract Context {\n    function _msgSender() internal view virtual returns (address) {\n        return msg.sender;\n    }\n\n    function _msgData() internal view virtual returns (bytes calldata) {\n        return msg.data;\n    }\n}\n\n// File: @openzeppelin/contracts/utils/Strings.sol\n\n// OpenZeppelin Contracts v4.4.0 (utils/Strings.sol)\n\npragma solidity ^0.8.0;\n\n/**\n * @dev String operations.\n */\nlibrary Strings {\n    bytes16 private constant _HEX_SYMBOLS = \"0123456789abcdef\";\n\n    /**\n     * @dev Converts a `uint256` to its ASCII `string` decimal representation.\n     */\n    function toString(uint256 value) internal pure returns (string memory) {\n        // Inspired by OraclizeAPI's implementation - MIT licence\n        // https://github.com/oraclize/ethereum-api/blob/b42146b063c7d6ee1358846c198246239e9360e8/oraclizeAPI_0.4.25.sol\n\n        if (value == 0) {\n            return \"0\";\n        }\n        uint256 temp = value;\n        uint256 digits;\n        while (temp != 0) {\n            digits++;\n            temp /= 10;\n        }\n        bytes memory buffer = new bytes(digits);\n        while (value != 0) {\n            digits -= 1;\n            buffer[digits] = bytes1(uint8(48 + uint256(value % 10)));\n            value /= 10;\n        }\n        return string(buffer);\n    }\n\n    /**\n     * @dev Converts a `uint256` to its ASCII `string` hexadecimal representation.\n     */\n    function toHexString(uint256 value) internal pure returns (string memory) {\n        if (value == 0) {\n            return \"0x00\";\n        }\n        uint256 temp = value;\n        uint256 length = 0;\n        while (temp != 0) {\n            length++;\n            temp >>= 8;\n        }\n        return toHexString(value, length);\n    }\n\n    /**\n     * @dev Converts a `uint256` to its ASCII `string` hexadecimal representation with fixed length.\n     */\n    function toHexString(uint256 value, uint256 length)\n        internal\n        pure\n        returns (string memory)\n    {\n        bytes memory buffer = new bytes(2 * length + 2);\n        buffer[0] = \"0\";\n        buffer[1] = \"x\";\n        for (uint256 i = 2 * length + 1; i > 1; --i) {\n            buffer[i] = _HEX_SYMBOLS[value & 0xf];\n            value >>= 4;\n        }\n        require(value == 0, \"Strings: hex length insufficient\");\n        return string(buffer);\n    }\n}\n\n// File: @openzeppelin/contracts/utils/introspection/ERC165.sol\n\n// OpenZeppelin Contracts v4.4.0 (utils/introspection/ERC165.sol)\n\npragma solidity ^0.8.0;\n\n/**\n * @dev Implementation of the {IERC165} interface.\n *\n * Contracts that want to implement ERC165 should inherit from this contract and override {supportsInterface} to check\n * for the additional interface id that will be supported. For example:\n *\n * ```solidity\n * function supportsInterface(bytes4 interfaceId) public view virtual override returns (bool) {\n *     return interfaceId == type(MyInterface).interfaceId || super.supportsInterface(interfaceId);\n * }\n * ```\n *\n * Alternatively, {ERC165Storage} provides an easier to use but more expensive implementation.\n */\nabstract contract ERC165 is IERC165 {\n    /**\n     * @dev See {IERC165-supportsInterface}.\n     */\n    function supportsInterface(bytes4 interfaceId)\n        public\n        view\n        virtual\n        override\n        returns (bool)\n    {\n        return interfaceId == type(IERC165).interfaceId;\n    }\n}\n\n// File: @openzeppelin/contracts/token/ERC721/ERC721.sol\n\n// OpenZeppelin Contracts v4.4.0 (token/ERC721/ERC721.sol)\n\npragma solidity ^0.8.0;\n\n/**\n * @dev Implementation of https://eips.ethereum.org/EIPS/eip-721[ERC721] Non-Fungible Token Standard, including\n * the Metadata extension, but not including the Enumerable extension, which is available separately as\n * {ERC721Enumerable}.\n */\ncontract ERC721 is Context, ERC165, IERC721, IERC721Metadata {\n    using Address for address;\n    using Strings for uint256;\n\n    // Token name\n    string private _name;\n\n    // Token symbol\n    string private _symbol;\n\n    // Mapping from token ID to owner address\n    mapping(uint256 => address) private _owners;\n\n    // Mapping owner address to token count\n    mapping(address => uint256) private _balances;\n\n    // Mapping from token ID to approved address\n    mapping(uint256 => address) private _tokenApprovals;\n\n    // Mapping from owner to operator approvals\n    mapping(address => mapping(address => bool)) private _operatorApprovals;\n\n    /**\n     * @dev Initializes the contract by setting a `name` and a `symbol` to the token collection.\n     */\n    constructor(string memory name_, string memory symbol_) {\n        _name = name_;\n        _symbol = symbol_;\n    }\n\n    /**\n     * @dev See {IERC165-supportsInterface}.\n     */\n    function supportsInterface(bytes4 interfaceId)\n        public\n        view\n        virtual\n        override(ERC165, IERC165)\n        returns (bool)\n    {\n        return\n            interfaceId == type(IERC721).interfaceId ||\n            interfaceId == type(IERC721Metadata).interfaceId ||\n            super.supportsInterface(interfaceId);\n    }\n\n    /**\n     * @dev See {IERC721-balanceOf}.\n     */\n    function balanceOf(address owner)\n        public\n        view\n        virtual\n        override\n        returns (uint256)\n    {\n        require(\n            owner != address(0),\n            \"ERC721: balance query for the zero address\"\n        );\n        return _balances[owner];\n    }\n\n    /**\n     * @dev See {IERC721-ownerOf}.\n     */\n    function ownerOf(uint256 tokenId)\n        public\n        view\n        virtual\n        override\n        returns (address)\n    {\n        address owner = _owners[tokenId];\n        require(\n            owner != address(0),\n            \"ERC721: owner query for nonexistent token\"\n        );\n        return owner;\n    }\n\n    /**\n     * @dev See {IERC721Metadata-name}.\n     */\n    function name() public view virtual override returns (string memory) {\n        return _name;\n    }\n\n    /**\n     * @dev See {IERC721Metadata-symbol}.\n     */\n    function symbol() public view virtual override returns (string memory) {\n        return _symbol;\n    }\n\n    /**\n     * @dev See {IERC721Metadata-tokenURI}.\n     */\n    function tokenURI(uint256 tokenId)\n        public\n        view\n        virtual\n        override\n        returns (string memory)\n    {\n        require(\n            _exists(tokenId),\n            \"ERC721Metadata: URI query for nonexistent token\"\n        );\n\n        string memory baseURI = _baseURI();\n        return\n            bytes(baseURI).length > 0\n                ? string(abi.encodePacked(baseURI, tokenId.toString()))\n                : \"\";\n    }\n\n    /**\n     * @dev Base URI for computing {tokenURI}. If set, the resulting URI for each\n     * token will be the concatenation of the `baseURI` and the `tokenId`. Empty\n     * by default, can be overriden in child contracts.\n     */\n    function _baseURI() internal view virtual returns (string memory) {\n        return \"\";\n    }\n\n    /**\n     * @dev See {IERC721-approve}.\n     */\n    function approve(address to, uint256 tokenId) public virtual override {\n        address owner = ERC721.ownerOf(tokenId);\n        require(to != owner, \"ERC721: approval to current owner\");\n\n        require(\n            _msgSender() == owner || isApprovedForAll(owner, _msgSender()),\n            \"ERC721: approve caller is not owner nor approved for all\"\n        );\n\n        _approve(to, tokenId);\n    }\n\n    /**\n     * @dev See {IERC721-getApproved}.\n     */\n    function getApproved(uint256 tokenId)\n        public\n        view\n        virtual\n        override\n        returns (address)\n    {\n        require(\n            _exists(tokenId),\n            \"ERC721: approved query for nonexistent token\"\n        );\n\n        return _tokenApprovals[tokenId];\n    }\n\n    /**\n     * @dev See {IERC721-setApprovalForAll}.\n     */\n    function setApprovalForAll(address operator, bool approved)\n        public\n        virtual\n        override\n    {\n        _setApprovalForAll(_msgSender(), operator, approved);\n    }\n\n    /**\n     * @dev See {IERC721-isApprovedForAll}.\n     */\n    function isApprovedForAll(address owner, address operator)\n        public\n        view\n        virtual\n        override\n        returns (bool)\n    {\n        return _operatorApprovals[owner][operator];\n    }\n\n    /**\n     * @dev See {IERC721-transferFrom}.\n     */\n    function transferFrom(\n        address from,\n        address to,\n        uint256 tokenId\n    ) public virtual override {\n        //solhint-disable-next-line max-line-length\n        require(\n            _isApprovedOrOwner(_msgSender(), tokenId),\n            \"ERC721: transfer caller is not owner nor approved\"\n        );\n\n        _transfer(from, to, tokenId);\n    }\n\n    /**\n     * @dev See {IERC721-safeTransferFrom}.\n     */\n    function safeTransferFrom(\n        address from,\n        address to,\n        uint256 tokenId\n    ) public virtual override {\n        safeTransferFrom(from, to, tokenId, \"\");\n    }\n\n    /**\n     * @dev See {IERC721-safeTransferFrom}.\n     */\n    function safeTransferFrom(\n        address from,\n        address to,\n        uint256 tokenId,\n        bytes memory _data\n    ) public virtual override {\n        require(\n            _isApprovedOrOwner(_msgSender(), tokenId),\n            \"ERC721: transfer caller is not owner nor approved\"\n        );\n        _safeTransfer(from, to, tokenId, _data);\n    }\n\n    /**\n     * @dev Safely transfers `tokenId` token from `from` to `to`, checking first that contract recipients\n     * are aware of the ERC721 protocol to prevent tokens from being forever locked.\n     *\n     * `_data` is additional data, it has no specified format and it is sent in call to `to`.\n     *\n     * This internal function is equivalent to {safeTransferFrom}, and can be used to e.g.\n     * implement alternative mechanisms to perform token transfer, such as signature-based.\n     *\n     * Requirements:\n     *\n     * - `from` cannot be the zero address.\n     * - `to` cannot be the zero address.\n     * - `tokenId` token must exist and be owned by `from`.\n     * - If `to` refers to a smart contract, it must implement {IERC721Receiver-onERC721Received}, which is called upon a safe transfer.\n     *\n     * Emits a {Transfer} event.\n     */\n    function _safeTransfer(\n        address from,\n        address to,\n        uint256 tokenId,\n        bytes memory _data\n    ) internal virtual {\n        _transfer(from, to, tokenId);\n        require(\n            _checkOnERC721Received(from, to, tokenId, _data),\n            \"ERC721: transfer to non ERC721Receiver implementer\"\n        );\n    }\n\n    /**\n     * @dev Returns whether `tokenId` exists.\n     *\n     * Tokens can be managed by their owner or approved accounts via {approve} or {setApprovalForAll}.\n     *\n     * Tokens start existing when they are minted (`_mint`),\n     * and stop existing when they are burned (`_burn`).\n     */\n    function _exists(uint256 tokenId) internal view virtual returns (bool) {\n        return _owners[tokenId] != address(0);\n    }\n\n    /**\n     * @dev Returns whether `spender` is allowed to manage `tokenId`.\n     *\n     * Requirements:\n     *\n     * - `tokenId` must exist.\n     */\n    function _isApprovedOrOwner(address spender, uint256 tokenId)\n        internal\n        view\n        virtual\n        returns (bool)\n    {\n        require(\n            _exists(tokenId),\n            \"ERC721: operator query for nonexistent token\"\n        );\n        address owner = ERC721.ownerOf(tokenId);\n        return (spender == owner ||\n            getApproved(tokenId) == spender ||\n            isApprovedForAll(owner, spender));\n    }\n\n    /**\n     * @dev Safely mints `tokenId` and transfers it to `to`.\n     *\n     * Requirements:\n     *\n     * - `tokenId` must not exist.\n     * - If `to` refers to a smart contract, it must implement {IERC721Receiver-onERC721Received}, which is called upon a safe transfer.\n     *\n     * Emits a {Transfer} event.\n     */\n    function _safeMint(address to, uint256 tokenId) internal virtual {\n        _safeMint(to, tokenId, \"\");\n    }\n\n    /**\n     * @dev Same as {xref-ERC721-_safeMint-address-uint256-}[`_safeMint`], with an additional `data` parameter which is\n     * forwarded in {IERC721Receiver-onERC721Received} to contract recipients.\n     */\n    function _safeMint(\n        address to,\n        uint256 tokenId,\n        bytes memory _data\n    ) internal virtual {\n        _mint(to, tokenId);\n        require(\n            _checkOnERC721Received(address(0), to, tokenId, _data),\n            \"ERC721: transfer to non ERC721Receiver implementer\"\n        );\n    }\n\n    /**\n     * @dev Mints `tokenId` and transfers it to `to`.\n     *\n     * WARNING: Usage of this method is discouraged, use {_safeMint} whenever possible\n     *\n     * Requirements:\n     *\n     * - `tokenId` must not exist.\n     * - `to` cannot be the zero address.\n     *\n     * Emits a {Transfer} event.\n     */\n    function _mint(address to, uint256 tokenId) internal virtual {\n        require(to != address(0), \"ERC721: mint to the zero address\");\n        require(!_exists(tokenId), \"ERC721: token already minted\");\n\n        _beforeTokenTransfer(address(0), to, tokenId);\n\n        _balances[to] += 1;\n        _owners[tokenId] = to;\n\n        emit Transfer(address(0), to, tokenId);\n    }\n\n    /**\n     * @dev Destroys `tokenId`.\n     * The approval is cleared when the token is burned.\n     *\n     * Requirements:\n     *\n     * - `tokenId` must exist.\n     *\n     * Emits a {Transfer} event.\n     */\n    function _burn(uint256 tokenId) internal virtual {\n        address owner = ERC721.ownerOf(tokenId);\n\n        _beforeTokenTransfer(owner, address(0), tokenId);\n\n        // Clear approvals\n        _approve(address(0), tokenId);\n\n        _balances[owner] -= 1;\n        delete _owners[tokenId];\n\n        emit Transfer(owner, address(0), tokenId);\n    }\n\n    /**\n     * @dev Transfers `tokenId` from `from` to `to`.\n     *  As opposed to {transferFrom}, this imposes no restrictions on msg.sender.\n     *\n     * Requirements:\n     *\n     * - `to` cannot be the zero address.\n     * - `tokenId` token must be owned by `from`.\n     *\n     * Emits a {Transfer} event.\n     */\n    function _transfer(\n        address from,\n        address to,\n        uint256 tokenId\n    ) internal virtual {\n        require(\n            ERC721.ownerOf(tokenId) == from,\n            \"ERC721: transfer of token that is not own\"\n        );\n        require(to != address(0), \"ERC721: transfer to the zero address\");\n\n        _beforeTokenTransfer(from, to, tokenId);\n\n        // Clear approvals from the previous owner\n        _approve(address(0), tokenId);\n\n        _balances[from] -= 1;\n        _balances[to] += 1;\n        _owners[tokenId] = to;\n\n        emit Transfer(from, to, tokenId);\n    }\n\n    /**\n     * @dev Approve `to` to operate on `tokenId`\n     *\n     * Emits a {Approval} event.\n     */\n    function _approve(address to, uint256 tokenId) internal virtual {\n        _tokenApprovals[tokenId] = to;\n        emit Approval(ERC721.ownerOf(tokenId), to, tokenId);\n    }\n\n    /**\n     * @dev Approve `operator` to operate on all of `owner` tokens\n     *\n     * Emits a {ApprovalForAll} event.\n     */\n    function _setApprovalForAll(\n        address owner,\n        address operator,\n        bool approved\n    ) internal virtual {\n        require(owner != operator, \"ERC721: approve to caller\");\n        _operatorApprovals[owner][operator] = approved;\n        emit ApprovalForAll(owner, operator, approved);\n    }\n\n    /**\n     * @dev Internal function to invoke {IERC721Receiver-onERC721Received} on a target address.\n     * The call is not executed if the target address is not a contract.\n     *\n     * @param from address representing the previous owner of the given token ID\n     * @param to target address that will receive the tokens\n     * @param tokenId uint256 ID of the token to be transferred\n     * @param _data bytes optional data to send along with the call\n     * @return bool whether the call correctly returned the expected magic value\n     */\n    function _checkOnERC721Received(\n        address from,\n        address to,\n        uint256 tokenId,\n        bytes memory _data\n    ) private returns (bool) {\n        if (to.isContract()) {\n            try\n                IERC721Receiver(to).onERC721Received(\n                    _msgSender(),\n                    from,\n                    tokenId,\n                    _data\n                )\n            returns (bytes4 retval) {\n                return retval == IERC721Receiver.onERC721Received.selector;\n            } catch (bytes memory reason) {\n                if (reason.length == 0) {\n                    revert(\n                        \"ERC721: transfer to non ERC721Receiver implementer\"\n                    );\n                } else {\n                    assembly {\n                        revert(add(32, reason), mload(reason))\n                    }\n                }\n            }\n        } else {\n            return true;\n        }\n    }\n\n    /**\n     * @dev Hook that is called before any token transfer. This includes minting\n     * and burning.\n     *\n     * Calling conditions:\n     *\n     * - When `from` and `to` are both non-zero, ``from``'s `tokenId` will be\n     * transferred to `to`.\n     * - When `from` is zero, `tokenId` will be minted for `to`.\n     * - When `to` is zero, ``from``'s `tokenId` will be burned.\n     * - `from` and `to` are never both zero.\n     *\n     * To learn more about hooks, head to xref:ROOT:extending-contracts.adoc#using-hooks[Using Hooks].\n     */\n    function _beforeTokenTransfer(\n        address from,\n        address to,\n        uint256 tokenId\n    ) internal virtual {}\n}\n\n// File: @openzeppelin/contracts/token/ERC721/extensions/ERC721URIStorage.sol\n\n// OpenZeppelin Contracts v4.4.0 (token/ERC721/extensions/ERC721URIStorage.sol)\n\npragma solidity ^0.8.0;\n\n/**\n * @dev ERC721 token with storage based token URI management.\n */\nabstract contract ERC721URIStorage is ERC721 {\n    using Strings for uint256;\n\n    // Optional mapping for token URIs\n    mapping(uint256 => string) private _tokenURIs;\n\n    /**\n     * @dev See {IERC721Metadata-tokenURI}.\n     */\n    function tokenURI(uint256 tokenId)\n        public\n        view\n        virtual\n        override\n        returns (string memory)\n    {\n        require(\n            _exists(tokenId),\n            \"ERC721URIStorage: URI query for nonexistent token\"\n        );\n\n        string memory _tokenURI = _tokenURIs[tokenId];\n        string memory base = _baseURI();\n\n        // If there is no base URI, return the token URI.\n        if (bytes(base).length == 0) {\n            return _tokenURI;\n        }\n        // If both are set, concatenate the baseURI and tokenURI (via abi.encodePacked).\n        if (bytes(_tokenURI).length > 0) {\n            return string(abi.encodePacked(base, _tokenURI));\n        }\n\n        return super.tokenURI(tokenId);\n    }\n\n    /**\n     * @dev Sets `_tokenURI` as the tokenURI of `tokenId`.\n     *\n     * Requirements:\n     *\n     * - `tokenId` must exist.\n     */\n    function _setTokenURI(uint256 tokenId, string memory _tokenURI)\n        internal\n        virtual\n    {\n        require(\n            _exists(tokenId),\n            \"ERC721URIStorage: URI set of nonexistent token\"\n        );\n        _tokenURIs[tokenId] = _tokenURI;\n    }\n\n    /**\n     * @dev Destroys `tokenId`.\n     * The approval is cleared when the token is burned.\n     *\n     * Requirements:\n     *\n     * - `tokenId` must exist.\n     *\n     * Emits a {Transfer} event.\n     */\n    function _burn(uint256 tokenId) internal virtual override {\n        super._burn(tokenId);\n\n        if (bytes(_tokenURIs[tokenId]).length != 0) {\n            delete _tokenURIs[tokenId];\n        }\n    }\n}\n\n// File: contracts/NFTtheWorld.sol\n\n// SPDX-License-Identifier: MIT\n// SPDX-FileCopyrightText: 2021 Berinike Tech <tech@campus.tu-berlin.de>, Jannis Pilgrim <j.pilgrim@campus.tu-berlin.de>\n\npragma solidity ^0.8.0;\n\ncontract NFTtheWorld {\n    address payable nftOwner;\n\n    uint256 percentageLimit;\n\n    address public user;\n\n    uint256[] public dropHashes;\n\n    struct NFTOwnership {\n        address payable owner;\n        string uri;\n        uint256 dropId;\n        uint256 dropTime;\n        address reservedFor;\n        uint256 weiPrice;\n    }\n\n    // For testing reasons this is public\n    // To check if an address is an admin\n    mapping(address => bool) public adminRights;\n    // Dictionary of form <dropHash>: list of NFTOwnerships\n    mapping(uint256 => NFTOwnership[]) public nftOwnerships;\n    // Dictionary of form <user address>: <<dropHash>: <number of reserved NFTs>>\n    mapping(address => mapping(uint256 => uint256)) public nftReservations;\n    // Dictionary of form <dropHash>: <list of nftHashes>\n    mapping(uint256 => string[]) public availableNFTs;\n    // Dictionary of form  <dropHash>: <nftCount>\n    mapping(uint256 => uint256) public availableNFTsCount;\n    // Dictionary of form <dropHash>: <maximal number of NFTs a user can reserve/buy from this drop>\n    mapping(uint256 => uint256) private maxNumberOfNFTsToBuy;\n    // Dictionary of form <dropHash>: <number of NFTs that have been requested by users>\n    mapping(uint256 => uint256) public reservedNFTsCount;\n\n    mapping(address => mapping(uint256 => string[]))\n        private nftReservationInformationOfUsers;\n    mapping(address => uint256[]) public nftAssetsInformationOfUsers;\n\n    // Used to track which addresses have joined the drop\n    mapping(uint256 => address[]) private joinedUsers;\n\n    //TODO add all of us in list of admins\n    constructor() {\n        adminRights[msg.sender] = true;\n    }\n\n    // This function lets a user create a drop by specifiyng a drop time and the number of available NFTs.\n    // During the creation of the drop, the maximum number of NFTs a user can reserve/buy in this drop is calculated.\n    // It is one for a total number of NFTs lower than 20 and 5% otherwise.\n    function createDrop(\n        uint256 _dropTime,\n        uint256 _numberOfNFTS,\n        string[] memory _uris,\n        uint256 _weiPrice\n    ) public onlyByAdmins {\n        uint256 dropHash = generateRandomNumber(_dropTime);\n        // TODO: check that numberOfNFTs equals length of uris\n\n        for (uint256 i = 0; i < _numberOfNFTS; i++) {\n            NFTOwnership memory nftOwnership;\n            nftOwnership.uri = _uris[i];\n            nftOwnership.owner = payable(msg.sender);\n            nftOwnership.reservedFor = msg.sender;\n            nftOwnership.dropTime = _dropTime;\n            nftOwnership.dropId = dropHash;\n            nftOwnership.weiPrice = _weiPrice;\n            nftOwnerships[dropHash].push(nftOwnership);\n            availableNFTs[dropHash].push(_uris[i]);\n        }\n\n        // We need to let users buy 1 NFT instead of 5% if there are less than 20\n        if (_numberOfNFTS < 20) {\n            maxNumberOfNFTsToBuy[dropHash] = 1;\n        } else {\n            maxNumberOfNFTsToBuy[dropHash] = (_numberOfNFTS * 5) / 100;\n        }\n        availableNFTsCount[dropHash] = availableNFTs[dropHash].length;\n        //TODO create mapping creator address -> dropHashes\n        dropHashes.push(dropHash);\n        reservedNFTsCount[dropHash] = 0;\n    }\n\n    // This function lets a user join a drop by specifying the number of NFTs she would like to reserve.\n    function joinDrop(uint256 _numberOfNFTs, uint256 _dropHash) public {\n        require(\n            reservedNFTsCount[_dropHash] != availableNFTs[_dropHash].length,\n            \"You cannot join the drop anymore.\"\n        );\n        require(\n            _numberOfNFTs <= maxNumberOfNFTsToBuy[_dropHash],\n            \"Sorry, you can't reserve more that 5% of the NFTs.\"\n        );\n        // We have to make sure that not more NFTs get reserved by users than we have NFTs available\n        require(\n            _numberOfNFTs <=\n                availableNFTs[_dropHash].length - reservedNFTsCount[_dropHash],\n            \"Sorry, not enough NFTs left for your request\"\n        );\n        reservedNFTsCount[_dropHash] += _numberOfNFTs;\n        nftReservations[msg.sender][_dropHash] = _numberOfNFTs;\n        joinedUsers[_dropHash].push(msg.sender);\n    }\n\n    // This function executes a drop.\n    // During the execution all joined users get their previously specificed number of NFTs randomly assigned.\n    // To make sure no NFT gets assigned to multiple users, it is removed from the list of available NFTs.\n    function drop(uint256 _dropHash) public {\n        require(\n            nftOwnerships[_dropHash][0].dropTime <= block.timestamp,\n            \"Droptime not yet reached!\"\n        );\n        for (uint256 i = 0; i < joinedUsers[_dropHash].length; i++) {\n            shuffle(_dropHash);\n            // loop trough the number of NFTs j reserved by user i\n            for (\n                uint256 j = 0;\n                j < nftReservations[joinedUsers[_dropHash][i]][_dropHash];\n                j++\n            ) {\n                uint256 nftElement = getNFTIndex(\n                    availableNFTs[_dropHash][j],\n                    _dropHash\n                );\n                nftOwnerships[_dropHash][nftElement].reservedFor = joinedUsers[\n                    _dropHash\n                ][i];\n                nftReservationInformationOfUsers[joinedUsers[_dropHash][i]][\n                    _dropHash\n                ].push(nftOwnerships[_dropHash][nftElement].uri);\n                remove(j, _dropHash);\n            }\n        }\n    }\n\n    // This function lets a user buy her reserved NFTs\n    //TODO: Think about a time span during which the reserved NFTs have to be bought\n    function buyNFT(uint256 _dropHash) public payable {\n        require(\n            nftOwnerships[_dropHash][0].dropTime <= block.timestamp,\n            \"Droptime not yet reached!\"\n        );\n        require(\n            nftOwnerships[_dropHash][0].weiPrice *\n                nftReservationInformationOfUsers[msg.sender][_dropHash]\n                    .length <=\n                msg.value,\n            \"You have sent insufficient funds\"\n        );\n        for (\n            uint256 i;\n            i < nftReservationInformationOfUsers[msg.sender][_dropHash].length;\n            i++\n        ) {\n            string storage uri = nftReservationInformationOfUsers[msg.sender][\n                _dropHash\n            ][i];\n            MintTheWorld tokenContract;\n            tokenContract = new MintTheWorld();\n            uint256 nftToken = tokenContract.mintNFT(uri, msg.sender);\n            uint256 nftIndex = getNFTIndex(uri, _dropHash);\n            nftOwnerships[_dropHash][nftIndex].owner.transfer(\n                nftOwnerships[_dropHash][nftIndex].weiPrice\n            );\n            nftOwnerships[_dropHash][nftIndex].owner = payable(msg.sender);\n            nftAssetsInformationOfUsers[msg.sender].push(nftToken);\n        }\n    }\n\n    // Helper function to created hashes\n    function generateRandomNumber(uint256 number)\n        internal\n        view\n        returns (uint256)\n    {\n        uint256 randomNumber = uint256(\n            keccak256(abi.encodePacked(block.timestamp, block.number, number))\n        ) % 1000;\n        return randomNumber;\n    }\n\n    // Helper function to remove NFT from list of available NFTs\n    function remove(uint256 _index, uint256 _dropHash) internal {\n        if (_index >= availableNFTs[_dropHash].length) return;\n\n        for (uint256 i = _index; i < availableNFTs[_dropHash].length - 1; i++) {\n            availableNFTs[_dropHash][i] = availableNFTs[_dropHash][i + 1];\n        }\n        availableNFTs[_dropHash].pop();\n        availableNFTsCount[_dropHash] = availableNFTs[_dropHash].length;\n    }\n\n    // Helper function to shuffle a list\n    function shuffle(uint256 _dropHash) internal {\n        for (uint256 i = 0; i < availableNFTs[_dropHash].length; i++) {\n            uint256 n = i +\n                (uint256(keccak256(abi.encodePacked(block.timestamp))) %\n                    (availableNFTs[_dropHash].length - i));\n            string memory temp = availableNFTs[_dropHash][n];\n            availableNFTs[_dropHash][n] = availableNFTs[_dropHash][i];\n            availableNFTs[_dropHash][i] = temp;\n        }\n    }\n\n    function getNFTIndex(string memory _uri, uint256 _dropHash)\n        internal\n        view\n        returns (uint256 index)\n    {\n        NFTOwnership[] memory nfts = nftOwnerships[_dropHash];\n        for (uint256 i = 0; i < nfts.length; i++) {\n            if (compareStrings(nfts[i].uri, _uri)) {\n                return i;\n            }\n        }\n    }\n\n    function compareStrings(string memory a, string memory b)\n        private\n        pure\n        returns (bool)\n    {\n        return (keccak256(abi.encodePacked((a))) ==\n            keccak256(abi.encodePacked((b))));\n    }\n\n    function getDropTime(uint256 _dropHash)\n        public\n        view\n        returns (uint256 dropTime)\n    {\n        return nftOwnerships[_dropHash][0].dropTime;\n    }\n\n    // Modifier to check if msg.sender is elligible\n    modifier onlyByAdmins() {\n        require(\n            adminRights[msg.sender] == true,\n            \"Your are not elligible to perform this action.\"\n        );\n        _;\n    }\n\n    function addToAdmins(address payable _addressToAdd) public onlyByAdmins {\n        adminRights[_addressToAdd] = true;\n    }\n\n    //Restriction to not remove oneself from admin list has been commented out for testing reasons, but generally is desired\n    function removeFromAdmins(address payable _addressToRemove)\n        public\n        onlyByAdmins\n    {\n        adminRights[_addressToRemove] = false;\n    }\n}\n\ncontract MintTheWorld is ERC721URIStorage {\n    uint256 public tokenCounter;\n\n    constructor() ERC721(\"NFTTheWorld\", \"PieceOfTheWorld\") {\n        tokenCounter = 0;\n    }\n\n    function mintNFT(string memory tokenURI, address receiver)\n        public\n        returns (uint256)\n    {\n        uint256 newItemId = generateRandomNumber(tokenCounter);\n        tokenCounter = tokenCounter + 1;\n        _safeMint(receiver, newItemId);\n        _setTokenURI(newItemId, tokenURI);\n\n        return newItemId;\n    }\n\n    // Helper function to created hashes\n    function generateRandomNumber(uint256 number)\n        internal\n        view\n        returns (uint256)\n    {\n        uint256 randomNumber = uint256(\n            keccak256(abi.encodePacked(block.timestamp, block.number, number))\n        );\n        return randomNumber;\n    }\n}\n",
  "sourcePath": "/Users/nike/nft-project/amos2021ws07-nft-development/blockchain/contracts/FlatNFTtheWorld.sol",
  "compiler": {
    "name": "solc",
    "version": "0.8.10+commit.fc410830.Emscripten.clang"
  },
  "schemaVersion": "3.4.3",
  "updatedAt": "2021-12-07T12:34:19.242Z",
  "devdoc": {
    "kind": "dev",
    "methods": {
      "approve(address,uint256)": {
        "details": "See {IERC721-approve}."
      },
      "balanceOf(address)": {
        "details": "See {IERC721-balanceOf}."
      },
      "getApproved(uint256)": {
        "details": "See {IERC721-getApproved}."
      },
      "isApprovedForAll(address,address)": {
        "details": "See {IERC721-isApprovedForAll}."
      },
      "name()": {
        "details": "See {IERC721Metadata-name}."
      },
      "ownerOf(uint256)": {
        "details": "See {IERC721-ownerOf}."
      },
      "safeTransferFrom(address,address,uint256)": {
        "details": "See {IERC721-safeTransferFrom}."
      },
      "safeTransferFrom(address,address,uint256,bytes)": {
        "details": "See {IERC721-safeTransferFrom}."
      },
      "setApprovalForAll(address,bool)": {
        "details": "See {IERC721-setApprovalForAll}."
      },
      "supportsInterface(bytes4)": {
        "details": "See {IERC165-supportsInterface}."
      },
      "symbol()": {
        "details": "See {IERC721Metadata-symbol}."
      },
      "tokenURI(uint256)": {
        "details": "See {IERC721Metadata-tokenURI}."
      },
      "transferFrom(address,address,uint256)": {
        "details": "See {IERC721-transferFrom}."
      }
    },
    "version": 1
  },
  "userdoc": {
    "kind": "user",
    "methods": {},
    "version": 1
  }
}