{
  "contractName": "NFTtheWorld",
  "abi": [
    {
      "inputs": [],
      "stateMutability": "nonpayable",
      "type": "constructor"
    },
    {
      "inputs": [
        {
          "internalType": "address",
          "name": "",
          "type": "address"
        },
        {
          "internalType": "uint256",
          "name": "",
          "type": "uint256"
        }
      ],
      "name": "nftAssetsInformationOfUsers",
      "outputs": [
        {
          "internalType": "uint256",
          "name": "",
          "type": "uint256"
        }
      ],
      "stateMutability": "view",
      "type": "function",
      "constant": true
    },
    {
      "inputs": [],
      "name": "numberOfDrops",
      "outputs": [
        {
          "internalType": "uint256",
          "name": "",
          "type": "uint256"
        }
      ],
      "stateMutability": "view",
      "type": "function",
      "constant": true
    },
    {
      "inputs": [],
      "name": "user",
      "outputs": [
        {
          "internalType": "address",
          "name": "",
          "type": "address"
        }
      ],
      "stateMutability": "view",
      "type": "function",
      "constant": true
    },
    {
      "inputs": [
        {
          "internalType": "uint256",
          "name": "_dropTime",
          "type": "uint256"
        },
        {
          "internalType": "string[]",
          "name": "_uris",
          "type": "string[]"
        },
        {
          "internalType": "uint256",
          "name": "_weiPrice",
          "type": "uint256"
        },
        {
          "internalType": "string",
          "name": "_nftName",
          "type": "string"
        },
        {
          "internalType": "string",
          "name": "_nftSymbol",
          "type": "string"
        }
      ],
      "name": "createDrop",
      "outputs": [],
      "stateMutability": "nonpayable",
      "type": "function"
    },
    {
      "inputs": [
        {
          "internalType": "uint256",
          "name": "_numberOfNFTs",
          "type": "uint256"
        },
        {
          "internalType": "uint256",
          "name": "_dropHash",
          "type": "uint256"
        }
      ],
      "name": "joinDrop",
      "outputs": [],
      "stateMutability": "nonpayable",
      "type": "function"
    },
    {
      "inputs": [
        {
          "internalType": "uint256",
          "name": "_dropHash",
          "type": "uint256"
        }
      ],
      "name": "drop",
      "outputs": [],
      "stateMutability": "nonpayable",
      "type": "function"
    },
    {
      "inputs": [
        {
          "internalType": "uint256",
          "name": "_dropHash",
          "type": "uint256"
        }
      ],
      "name": "buyNFT",
      "outputs": [],
      "stateMutability": "payable",
      "type": "function",
      "payable": true
    },
    {
      "inputs": [
        {
          "internalType": "uint256",
          "name": "_dropHash",
          "type": "uint256"
        }
      ],
      "name": "getDropTime",
      "outputs": [
        {
          "internalType": "uint256",
          "name": "dropTime",
          "type": "uint256"
        }
      ],
      "stateMutability": "view",
      "type": "function",
      "constant": true
    },
    {
      "inputs": [
        {
          "internalType": "address payable",
          "name": "_addressToAdd",
          "type": "address"
        }
      ],
      "name": "addToAdmins",
      "outputs": [],
      "stateMutability": "nonpayable",
      "type": "function"
    },
    {
      "inputs": [
        {
          "internalType": "address payable",
          "name": "_addressToRemove",
          "type": "address"
        }
      ],
      "name": "removeFromAdmins",
      "outputs": [],
      "stateMutability": "nonpayable",
      "type": "function"
    }
  ],
  "bytecode": "0x608060405234801561001057600080fd5b506001600460003373ffffffffffffffffffffffffffffffffffffffff1673ffffffffffffffffffffffffffffffffffffffff16815260200190815260200160002060006101000a81548160ff021916908315150217905550615f00806100786000396000f3fe6080604052600436106200009e5760003560e01c806381de5bd9116200006157806381de5bd9146200017d57806394f4307a14620001ad5780639554c1bb14620001f1578063a8a5afe81462000235578063e2db82721462000263576200009e565b8063211d9a5314620000a35780634488750e14620000d15780634f8632ba14620000ff57806351ed8288146200012f5780635b10dcb8146200014f575b600080fd5b348015620000b057600080fd5b50620000cf6004803603810190620000c9919062001fe1565b62000291565b005b348015620000de57600080fd5b50620000fd6004803603810190620000f7919062002078565b620006e2565b005b3480156200010c57600080fd5b5062000117620007d3565b604051620001269190620020cf565b60405180910390f35b6200014d600480360381019062000147919062001fe1565b620007f9565b005b3480156200015c57600080fd5b506200017b600480360381019062000175919062002078565b62000dd8565b005b3480156200018a57600080fd5b506200019562000f3b565b604051620001a49190620020fd565b60405180910390f35b348015620001ba57600080fd5b50620001d96004803603810190620001d3919062001fe1565b62000f41565b604051620001e89190620020fd565b60405180910390f35b348015620001fe57600080fd5b506200021d60048036038101906200021791906200214b565b62000f85565b6040516200022c9190620020fd565b60405180910390f35b3480156200024257600080fd5b506200026160048036038101906200025b919062002192565b62000fb7565b005b3480156200027057600080fd5b506200028f600480360381019062000289919062002437565b620011f4565b005b4260056000838152602001908152602001600020600081548110620002bb57620002ba6200251c565b5b906000526020600020906008020160030154111562000311576040517f08c379a00000000000000000000000000000000000000000000000000000000081526004016200030890620025ac565b60405180910390fd5b60005b600d600083815260200190815260200160002080549050811015620006de576200033e8262001605565b60005b60066000600d600086815260200190815260200160002084815481106200036d576200036c6200251c565b5b9060005260206000200160009054906101000a900473ffffffffffffffffffffffffffffffffffffffff1673ffffffffffffffffffffffffffffffffffffffff1673ffffffffffffffffffffffffffffffffffffffff168152602001908152602001600020600084815260200190815260200160002054811015620006c7576000620004bc6007600086815260200190815260200160002083815481106200041a57620004196200251c565b5b9060005260206000200180546200043190620025fd565b80601f01602080910402602001604051908101604052809291908181526020018280546200045f90620025fd565b8015620004b05780601f106200048457610100808354040283529160200191620004b0565b820191906000526020600020905b8154815290600101906020018083116200049257829003601f168201915b50505050508562001840565b9050600d60008581526020019081526020016000208381548110620004e657620004e56200251c565b5b9060005260206000200160009054906101000a900473ffffffffffffffffffffffffffffffffffffffff166005600086815260200190815260200160002082815481106200053957620005386200251c565b5b906000526020600020906008020160040160006101000a81548173ffffffffffffffffffffffffffffffffffffffff021916908373ffffffffffffffffffffffffffffffffffffffff160217905550600b6000600d60008781526020019081526020016000208581548110620005b457620005b36200251c565b5b9060005260206000200160009054906101000a900473ffffffffffffffffffffffffffffffffffffffff1673ffffffffffffffffffffffffffffffffffffffff1673ffffffffffffffffffffffffffffffffffffffff16815260200190815260200160002060008581526020019081526020016000206005600086815260200190815260200160002082815481106200065257620006516200251c565b5b9060005260206000209060080201600101908060018154018082558091505060019003906000526020600020016000909190919091509080546200069690620025fd565b620006a392919062001d85565b50620006b0828562001bb3565b508080620006be9062002662565b91505062000341565b508080620006d59062002662565b91505062000314565b5050565b60011515600460003373ffffffffffffffffffffffffffffffffffffffff1673ffffffffffffffffffffffffffffffffffffffff16815260200190815260200160002060009054906101000a900460ff1615151462000778576040517f08c379a00000000000000000000000000000000000000000000000000000000081526004016200076f9062002700565b60405180910390fd5b6001600460008373ffffffffffffffffffffffffffffffffffffffff1673ffffffffffffffffffffffffffffffffffffffff16815260200190815260200160002060006101000a81548160ff02191690831515021790555050565b600260009054906101000a900473ffffffffffffffffffffffffffffffffffffffff1681565b42600560008381526020019081526020016000206000815481106200082357620008226200251c565b5b906000526020600020906008020160030154111562000879576040517f08c379a00000000000000000000000000000000000000000000000000000000081526004016200087090620025ac565b60405180910390fd5b34600b60003373ffffffffffffffffffffffffffffffffffffffff1673ffffffffffffffffffffffffffffffffffffffff16815260200190815260200160002060008381526020019081526020016000208054905060056000848152602001908152602001600020600081548110620008f757620008f66200251c565b5b90600052602060002090600802016005015462000915919062002722565b111562000959576040517f08c379a00000000000000000000000000000000000000000000000000000000081526004016200095090620027d3565b60405180910390fd5b60005b600b60003373ffffffffffffffffffffffffffffffffffffffff1673ffffffffffffffffffffffffffffffffffffffff16815260200190815260200160002060008381526020019081526020016000208054905081101562000dd4576000600b60003373ffffffffffffffffffffffffffffffffffffffff1673ffffffffffffffffffffffffffffffffffffffff1681526020019081526020016000206000848152602001908152602001600020828154811062000a1f5762000a1e6200251c565b5b906000526020600020019050600062000aca82805462000a3f90620025fd565b80601f016020809104026020016040519081016040528092919081815260200182805462000a6d90620025fd565b801562000abe5780601f1062000a925761010080835404028352916020019162000abe565b820191906000526020600020905b81548152906001019060200180831162000aa057829003601f168201915b50505050508562001840565b9050600060056000868152602001908152602001600020828154811062000af65762000af56200251c565b5b906000526020600020906008020160070160056000878152602001908152602001600020838154811062000b2f5762000b2e6200251c565b5b906000526020600020906008020160060160405162000b4e9062001e1d565b62000b5b92919062002896565b604051809103906000f08015801562000b78573d6000803e3d6000fd5b50905060008173ffffffffffffffffffffffffffffffffffffffff166304f3227985336040518363ffffffff1660e01b815260040162000bba92919062002972565b6020604051808303816000875af115801562000bda573d6000803e3d6000fd5b505050506040513d601f19601f8201168201806040525081019062000c009190620029bd565b905060056000878152602001908152602001600020838154811062000c2a5762000c296200251c565b5b906000526020600020906008020160000160009054906101000a900473ffffffffffffffffffffffffffffffffffffffff1673ffffffffffffffffffffffffffffffffffffffff166108fc60056000898152602001908152602001600020858154811062000c9d5762000c9c6200251c565b5b9060005260206000209060080201600501549081150290604051600060405180830381858888f1935050505015801562000cdb573d6000803e3d6000fd5b503360056000888152602001908152602001600020848154811062000d055762000d046200251c565b5b906000526020600020906008020160000160006101000a81548173ffffffffffffffffffffffffffffffffffffffff021916908373ffffffffffffffffffffffffffffffffffffffff160217905550600c60003373ffffffffffffffffffffffffffffffffffffffff1673ffffffffffffffffffffffffffffffffffffffff16815260200190815260200160002081908060018154018082558091505060019003906000526020600020016000909190919091505550505050808062000dcb9062002662565b9150506200095c565b5050565b60011515600460003373ffffffffffffffffffffffffffffffffffffffff1673ffffffffffffffffffffffffffffffffffffffff16815260200190815260200160002060009054906101000a900460ff1615151462000e6e576040517f08c379a000000000000000000000000000000000000000000000000000000000815260040162000e659062002700565b60405180910390fd5b8073ffffffffffffffffffffffffffffffffffffffff163373ffffffffffffffffffffffffffffffffffffffff16141562000ee0576040517f08c379a000000000000000000000000000000000000000000000000000000000815260040162000ed79062002a3f565b60405180910390fd5b6000600460008373ffffffffffffffffffffffffffffffffffffffff1673ffffffffffffffffffffffffffffffffffffffff16815260200190815260200160002060006101000a81548160ff02191690831515021790555050565b60035481565b60006005600083815260200190815260200160002060008154811062000f6c5762000f6b6200251c565b5b9060005260206000209060080201600301549050919050565b600c602052816000526040600020818154811062000fa257600080fd5b90600052602060002001600091509150505481565b6007600082815260200190815260200160002080549050600a600083815260200190815260200160002054141562001026576040517f08c379a00000000000000000000000000000000000000000000000000000000081526004016200101d9062002ab1565b60405180910390fd5b60096000828152602001908152602001600020548211156200107f576040517f08c379a0000000000000000000000000000000000000000000000000000000008152600401620010769062002b49565b60405180910390fd5b600a6000828152602001908152602001600020546007600083815260200190815260200160002080549050620010b6919062002b6b565b821115620010fb576040517f08c379a0000000000000000000000000000000000000000000000000000000008152600401620010f29062002c1c565b60405180910390fd5b81600a6000838152602001908152602001600020600082825462001120919062002c3e565b9250508190555081600660003373ffffffffffffffffffffffffffffffffffffffff1673ffffffffffffffffffffffffffffffffffffffff168152602001908152602001600020600083815260200190815260200160002081905550600d6000828152602001908152602001600020339080600181540180825580915050600190039060005260206000200160009091909190916101000a81548173ffffffffffffffffffffffffffffffffffffffff021916908373ffffffffffffffffffffffffffffffffffffffff1602179055505050565b60011515600460003373ffffffffffffffffffffffffffffffffffffffff1673ffffffffffffffffffffffffffffffffffffffff16815260200190815260200160002060009054906101000a900460ff161515146200128a576040517f08c379a0000000000000000000000000000000000000000000000000000000008152600401620012819062002700565b60405180910390fd5b6000600354905060005b85518110156200153957620012a862001e2b565b868281518110620012be57620012bd6200251c565b5b6020026020010151816020018190525033816000019073ffffffffffffffffffffffffffffffffffffffff16908173ffffffffffffffffffffffffffffffffffffffff168152505033816080019073ffffffffffffffffffffffffffffffffffffffff16908173ffffffffffffffffffffffffffffffffffffffff16815250508781606001818152505082816040018181525050858160a0018181525050848160e00181905250838160c001819052506005600084815260200190815260200160002081908060018154018082558091505060019003906000526020600020906008020160009091909190915060008201518160000160006101000a81548173ffffffffffffffffffffffffffffffffffffffff021916908373ffffffffffffffffffffffffffffffffffffffff16021790555060208201518160010190805190602001906200141092919062001e9c565b50604082015181600201556060820151816003015560808201518160040160006101000a81548173ffffffffffffffffffffffffffffffffffffffff021916908373ffffffffffffffffffffffffffffffffffffffff16021790555060a0820151816005015560c08201518160060190805190602001906200149492919062001e9c565b5060e0820151816007019080519060200190620014b392919062001e9c565b50505060076000848152602001908152602001600020878381518110620014df57620014de6200251c565b5b60200260200101519080600181540180825580915050600190039060005260206000200160009091909190915090805190602001906200152192919062001e9c565b50508080620015309062002662565b91505062001294565b506014855110156200156457600160096000838152602001908152602001600020819055506200159a565b60646005865162001576919062002722565b62001582919062002cca565b60096000838152602001908152602001600020819055505b60076000828152602001908152602001600020805490506008600083815260200190815260200160002081905550600160036000828254620015dd919062002c3e565b925050819055506000600a600083815260200190815260200160002081905550505050505050565b60005b60076000838152602001908152602001600020805490508110156200183c5760008160076000858152602001908152602001600020805490506200164d919062002b6b565b4260405160200162001660919062002d27565b6040516020818303038152906040528051906020012060001c62001685919062002d44565b8262001692919062002c3e565b90506000600760008581526020019081526020016000208281548110620016be57620016bd6200251c565b5b906000526020600020018054620016d590620025fd565b80601f01602080910402602001604051908101604052809291908181526020018280546200170390620025fd565b8015620017545780601f10620017285761010080835404028352916020019162001754565b820191906000526020600020905b8154815290600101906020018083116200173657829003601f168201915b505050505090506007600085815260200190815260200160002083815481106200178357620017826200251c565b5b90600052602060002001600760008681526020019081526020016000208381548110620017b557620017b46200251c565b5b90600052602060002001908054620017cd90620025fd565b620017da92919062001d85565b50806007600086815260200190815260200160002084815481106200180457620018036200251c565b5b9060005260206000200190805190602001906200182392919062001e9c565b5050508080620018339062002662565b91505062001608565b5050565b60008060056000848152602001908152602001600020805480602002602001604051908101604052809291908181526020016000905b8282101562001b435783829060005260206000209060080201604051806101000160405290816000820160009054906101000a900473ffffffffffffffffffffffffffffffffffffffff1673ffffffffffffffffffffffffffffffffffffffff1673ffffffffffffffffffffffffffffffffffffffff1681526020016001820180546200190390620025fd565b80601f01602080910402602001604051908101604052809291908181526020018280546200193190620025fd565b8015620019825780601f10620019565761010080835404028352916020019162001982565b820191906000526020600020905b8154815290600101906020018083116200196457829003601f168201915b5050505050815260200160028201548152602001600382015481526020016004820160009054906101000a900473ffffffffffffffffffffffffffffffffffffffff1673ffffffffffffffffffffffffffffffffffffffff1673ffffffffffffffffffffffffffffffffffffffff1681526020016005820154815260200160068201805462001a1190620025fd565b80601f016020809104026020016040519081016040528092919081815260200182805462001a3f90620025fd565b801562001a905780601f1062001a645761010080835404028352916020019162001a90565b820191906000526020600020905b81548152906001019060200180831162001a7257829003601f168201915b5050505050815260200160078201805462001aab90620025fd565b80601f016020809104026020016040519081016040528092919081815260200182805462001ad990620025fd565b801562001b2a5780601f1062001afe5761010080835404028352916020019162001b2a565b820191906000526020600020905b81548152906001019060200180831162001b0c57829003601f168201915b5050505050815250508152602001906001019062001876565b50505050905060005b815181101562001baa5762001b8382828151811062001b705762001b6f6200251c565b5b6020026020010151602001518662001d28565b1562001b9457809250505062001bad565b808062001ba19062002662565b91505062001b4c565b50505b92915050565b6007600082815260200190815260200160002080549050821062001bd75762001d24565b60008290505b6001600760008481526020019081526020016000208054905062001c02919062002b6b565b81101562001cae576007600083815260200190815260200160002060018262001c2c919062002c3e565b8154811062001c405762001c3f6200251c565b5b9060005260206000200160076000848152602001908152602001600020828154811062001c725762001c716200251c565b5b9060005260206000200190805462001c8a90620025fd565b62001c9792919062001d85565b50808062001ca59062002662565b91505062001bdd565b506007600082815260200190815260200160002080548062001cd55762001cd462002d7c565b5b60019003818190600052602060002001600062001cf3919062001f2d565b9055600760008281526020019081526020016000208054905060086000838152602001908152602001600020819055505b5050565b60008160405160200162001d3d919062002e2e565b604051602081830303815290604052805190602001208360405160200162001d66919062002e2e565b6040516020818303038152906040528051906020012014905092915050565b82805462001d9390620025fd565b90600052602060002090601f01602090048101928262001db7576000855562001e0a565b82601f1062001dca578054855562001e0a565b8280016001018555821562001e0a57600052602060002091601f016020900482015b8281111562001e0957825482559160010191906001019062001dec565b5b50905062001e19919062001f73565b5090565b6130838062002e4883390190565b604051806101000160405280600073ffffffffffffffffffffffffffffffffffffffff168152602001606081526020016000815260200160008152602001600073ffffffffffffffffffffffffffffffffffffffff1681526020016000815260200160608152602001606081525090565b82805462001eaa90620025fd565b90600052602060002090601f01602090048101928262001ece576000855562001f1a565b82601f1062001ee957805160ff191683800117855562001f1a565b8280016001018555821562001f1a579182015b8281111562001f1957825182559160200191906001019062001efc565b5b50905062001f29919062001f73565b5090565b50805462001f3b90620025fd565b6000825580601f1062001f4f575062001f70565b601f01602090049060005260206000209081019062001f6f919062001f73565b5b50565b5b8082111562001f8e57600081600090555060010162001f74565b5090565b6000604051905090565b600080fd5b600080fd5b6000819050919050565b62001fbb8162001fa6565b811462001fc757600080fd5b50565b60008135905062001fdb8162001fb0565b92915050565b60006020828403121562001ffa5762001ff962001f9c565b5b60006200200a8482850162001fca565b91505092915050565b600073ffffffffffffffffffffffffffffffffffffffff82169050919050565b6000620020408262002013565b9050919050565b620020528162002033565b81146200205e57600080fd5b50565b600081359050620020728162002047565b92915050565b60006020828403121562002091576200209062001f9c565b5b6000620020a18482850162002061565b91505092915050565b6000620020b78262002013565b9050919050565b620020c981620020aa565b82525050565b6000602082019050620020e66000830184620020be565b92915050565b620020f78162001fa6565b82525050565b6000602082019050620021146000830184620020ec565b92915050565b6200212581620020aa565b81146200213157600080fd5b50565b60008135905062002145816200211a565b92915050565b6000806040838503121562002165576200216462001f9c565b5b6000620021758582860162002134565b9250506020620021888582860162001fca565b9150509250929050565b60008060408385031215620021ac57620021ab62001f9c565b5b6000620021bc8582860162001fca565b9250506020620021cf8582860162001fca565b9150509250929050565b600080fd5b6000601f19601f8301169050919050565b7f4e487b7100000000000000000000000000000000000000000000000000000000600052604160045260246000fd5b6200222982620021de565b810181811067ffffffffffffffff821117156200224b576200224a620021ef565b5b80604052505050565b60006200226062001f92565b90506200226e82826200221e565b919050565b600067ffffffffffffffff821115620022915762002290620021ef565b5b602082029050602081019050919050565b600080fd5b600080fd5b600067ffffffffffffffff821115620022ca57620022c9620021ef565b5b620022d582620021de565b9050602081019050919050565b82818337600083830152505050565b6000620023086200230284620022ac565b62002254565b905082815260208101848484011115620023275762002326620022a7565b5b62002334848285620022e2565b509392505050565b600082601f830112620023545762002353620021d9565b5b813562002366848260208601620022f1565b91505092915050565b600062002386620023808462002273565b62002254565b90508083825260208201905060208402830185811115620023ac57620023ab620022a2565b5b835b81811015620023fa57803567ffffffffffffffff811115620023d557620023d4620021d9565b5b808601620023e489826200233c565b85526020850194505050602081019050620023ae565b5050509392505050565b600082601f8301126200241c576200241b620021d9565b5b81356200242e8482602086016200236f565b91505092915050565b600080600080600060a0868803121562002456576200245562001f9c565b5b6000620024668882890162001fca565b955050602086013567ffffffffffffffff8111156200248a576200248962001fa1565b5b620024988882890162002404565b9450506040620024ab8882890162001fca565b935050606086013567ffffffffffffffff811115620024cf57620024ce62001fa1565b5b620024dd888289016200233c565b925050608086013567ffffffffffffffff81111562002501576200250062001fa1565b5b6200250f888289016200233c565b9150509295509295909350565b7f4e487b7100000000000000000000000000000000000000000000000000000000600052603260045260246000fd5b600082825260208201905092915050565b7f44726f7074696d65206e6f742079657420726561636865642100000000000000600082015250565b6000620025946019836200254b565b9150620025a1826200255c565b602082019050919050565b60006020820190508181036000830152620025c78162002585565b9050919050565b7f4e487b7100000000000000000000000000000000000000000000000000000000600052602260045260246000fd5b600060028204905060018216806200261657607f821691505b602082108114156200262d576200262c620025ce565b5b50919050565b7f4e487b7100000000000000000000000000000000000000000000000000000000600052601160045260246000fd5b60006200266f8262001fa6565b91507fffffffffffffffffffffffffffffffffffffffffffffffffffffffffffffffff821415620026a557620026a462002633565b5b600182019050919050565b7f596f757220617265206e6f7420656c6c696769626c6500000000000000000000600082015250565b6000620026e86016836200254b565b9150620026f582620026b0565b602082019050919050565b600060208201905081810360008301526200271b81620026d9565b9050919050565b60006200272f8262001fa6565b91506200273c8362001fa6565b9250817fffffffffffffffffffffffffffffffffffffffffffffffffffffffffffffffff048311821515161562002778576200277762002633565b5b828202905092915050565b7f4e6f7420656e6f7567682066756e647300000000000000000000000000000000600082015250565b6000620027bb6010836200254b565b9150620027c88262002783565b602082019050919050565b60006020820190508181036000830152620027ee81620027ac565b9050919050565b60008190508160005260206000209050919050565b600081546200281981620025fd565b6200282581866200254b565b9450600182166000811462002843576001811462002856576200288d565b60ff19831686526020860193506200288d565b6200286185620027f5565b60005b83811015620028855781548189015260018201915060208101905062002864565b808801955050505b50505092915050565b60006040820190508181036000830152620028b281856200280a565b90508181036020830152620028c881846200280a565b90509392505050565b60008190508160005260206000209050919050565b60008154620028f581620025fd565b6200290181866200254b565b945060018216600081146200291f5760018114620029325762002969565b60ff198316865260208601935062002969565b6200293d85620028d1565b60005b83811015620029615781548189015260018201915060208101905062002940565b808801955050505b50505092915050565b600060408201905081810360008301526200298e8185620028e6565b90506200299f6020830184620020be565b9392505050565b600081519050620029b78162001fb0565b92915050565b600060208284031215620029d657620029d562001f9c565b5b6000620029e684828501620029a6565b91505092915050565b7f596f752063616e27742072656d6f766520796f757273656c6600000000000000600082015250565b600062002a276019836200254b565b915062002a3482620029ef565b602082019050919050565b6000602082019050818103600083015262002a5a8162002a18565b9050919050565b7f43616e6e6f74206a6f696e207468652064726f7020616e796d6f72652e000000600082015250565b600062002a99601d836200254b565b915062002aa68262002a61565b602082019050919050565b6000602082019050818103600083015262002acc8162002a8a565b9050919050565b7f536f7272792c20796f752063616e27742072657365727665206d6f726520746860008201527f6174203525206f6620746865204e4654732e0000000000000000000000000000602082015250565b600062002b316032836200254b565b915062002b3e8262002ad3565b604082019050919050565b6000602082019050818103600083015262002b648162002b22565b9050919050565b600062002b788262001fa6565b915062002b858362001fa6565b92508282101562002b9b5762002b9a62002633565b5b828203905092915050565b7f536f7272792c206e6f7420656e6f756768204e465473206c65667420666f722060008201527f796f757220726571756573740000000000000000000000000000000000000000602082015250565b600062002c04602c836200254b565b915062002c118262002ba6565b604082019050919050565b6000602082019050818103600083015262002c378162002bf5565b9050919050565b600062002c4b8262001fa6565b915062002c588362001fa6565b9250827fffffffffffffffffffffffffffffffffffffffffffffffffffffffffffffffff0382111562002c905762002c8f62002633565b5b828201905092915050565b7f4e487b7100000000000000000000000000000000000000000000000000000000600052601260045260246000fd5b600062002cd78262001fa6565b915062002ce48362001fa6565b92508262002cf75762002cf662002c9b565b5b828204905092915050565b6000819050919050565b62002d2162002d1b8262001fa6565b62002d02565b82525050565b600062002d35828462002d0c565b60208201915081905092915050565b600062002d518262001fa6565b915062002d5e8362001fa6565b92508262002d715762002d7062002c9b565b5b828206905092915050565b7f4e487b7100000000000000000000000000000000000000000000000000000000600052603160045260246000fd5b600081519050919050565b600081905092915050565b60005b8381101562002de157808201518184015260208101905062002dc4565b8381111562002df1576000848401525b50505050565b600062002e048262002dab565b62002e10818562002db6565b935062002e2281856020860162002dc1565b80840191505092915050565b600062002e3c828462002df7565b91508190509291505056fe60806040523480156200001157600080fd5b5060405162003083380380620030838339818101604052810190620000379190620002ca565b81818160009080519060200190620000519291906200007d565b5080600190805190602001906200006a9291906200007d565b50505060006007819055505050620003b4565b8280546200008b906200037e565b90600052602060002090601f016020900481019282620000af5760008555620000fb565b82601f10620000ca57805160ff1916838001178555620000fb565b82800160010185558215620000fb579182015b82811115620000fa578251825591602001919060010190620000dd565b5b5090506200010a91906200010e565b5090565b5b80821115620001295760008160009055506001016200010f565b5090565b6000604051905090565b600080fd5b600080fd5b600080fd5b600080fd5b6000601f19601f8301169050919050565b7f4e487b7100000000000000000000000000000000000000000000000000000000600052604160045260246000fd5b62000196826200014b565b810181811067ffffffffffffffff82111715620001b857620001b76200015c565b5b80604052505050565b6000620001cd6200012d565b9050620001db82826200018b565b919050565b600067ffffffffffffffff821115620001fe57620001fd6200015c565b5b62000209826200014b565b9050602081019050919050565b60005b838110156200023657808201518184015260208101905062000219565b8381111562000246576000848401525b50505050565b6000620002636200025d84620001e0565b620001c1565b90508281526020810184848401111562000282576200028162000146565b5b6200028f84828562000216565b509392505050565b600082601f830112620002af57620002ae62000141565b5b8151620002c18482602086016200024c565b91505092915050565b60008060408385031215620002e457620002e362000137565b5b600083015167ffffffffffffffff8111156200030557620003046200013c565b5b620003138582860162000297565b925050602083015167ffffffffffffffff8111156200033757620003366200013c565b5b620003458582860162000297565b9150509250929050565b7f4e487b7100000000000000000000000000000000000000000000000000000000600052602260045260246000fd5b600060028204905060018216806200039757607f821691505b60208210811415620003ae57620003ad6200034f565b5b50919050565b612cbf80620003c46000396000f3fe608060405234801561001057600080fd5b50600436106100f55760003560e01c80636352211e11610097578063b88d4fde11610066578063b88d4fde14610296578063c87b56dd146102b2578063d082e381146102e2578063e985e9c514610300576100f5565b80636352211e146101fc57806370a082311461022c57806395d89b411461025c578063a22cb4651461027a576100f5565b8063081812fc116100d3578063081812fc14610178578063095ea7b3146101a857806323b872dd146101c457806342842e0e146101e0576100f5565b806301ffc9a7146100fa57806304f322791461012a57806306fdde031461015a575b600080fd5b610114600480360381019061010f91906119c3565b610330565b6040516101219190611a0b565b60405180910390f35b610144600480360381019061013f9190611bca565b610412565b6040516101519190611c3f565b60405180910390f35b610162610455565b60405161016f9190611ce2565b60405180910390f35b610192600480360381019061018d9190611d30565b6104e7565b60405161019f9190611d6c565b60405180910390f35b6101c260048036038101906101bd9190611d87565b61056c565b005b6101de60048036038101906101d99190611dc7565b610684565b005b6101fa60048036038101906101f59190611dc7565b6106e4565b005b61021660048036038101906102119190611d30565b610704565b6040516102239190611d6c565b60405180910390f35b61024660048036038101906102419190611e1a565b6107b6565b6040516102539190611c3f565b60405180910390f35b61026461086e565b6040516102719190611ce2565b60405180910390f35b610294600480360381019061028f9190611e73565b610900565b005b6102b060048036038101906102ab9190611f54565b610916565b005b6102cc60048036038101906102c79190611d30565b610978565b6040516102d99190611ce2565b60405180910390f35b6102ea610aca565b6040516102f79190611c3f565b60405180910390f35b61031a60048036038101906103159190611fd7565b610ad0565b6040516103279190611a0b565b60405180910390f35b60007f80ac58cd000000000000000000000000000000000000000000000000000000007bffffffffffffffffffffffffffffffffffffffffffffffffffffffff1916827bffffffffffffffffffffffffffffffffffffffffffffffffffffffff191614806103fb57507f5b5e139f000000000000000000000000000000000000000000000000000000007bffffffffffffffffffffffffffffffffffffffffffffffffffffffff1916827bffffffffffffffffffffffffffffffffffffffffffffffffffffffff1916145b8061040b575061040a82610b64565b5b9050919050565b600080610420600754610bce565b905060016007546104319190612046565b6007819055506104418382610c0a565b61044b8185610c28565b8091505092915050565b606060008054610464906120cb565b80601f0160208091040260200160405190810160405280929190818152602001828054610490906120cb565b80156104dd5780601f106104b2576101008083540402835291602001916104dd565b820191906000526020600020905b8154815290600101906020018083116104c057829003601f168201915b5050505050905090565b60006104f282610c9c565b610531576040517f08c379a00000000000000000000000000000000000000000000000000000000081526004016105289061216f565b60405180910390fd5b6004600083815260200190815260200160002060009054906101000a900473ffffffffffffffffffffffffffffffffffffffff169050919050565b600061057782610704565b90508073ffffffffffffffffffffffffffffffffffffffff168373ffffffffffffffffffffffffffffffffffffffff1614156105e8576040517f08c379a00000000000000000000000000000000000000000000000000000000081526004016105df90612201565b60405180910390fd5b8073ffffffffffffffffffffffffffffffffffffffff16610607610d08565b73ffffffffffffffffffffffffffffffffffffffff161480610636575061063581610630610d08565b610ad0565b5b610675576040517f08c379a000000000000000000000000000000000000000000000000000000000815260040161066c90612293565b60405180910390fd5b61067f8383610d10565b505050565b61069561068f610d08565b82610dc9565b6106d4576040517f08c379a00000000000000000000000000000000000000000000000000000000081526004016106cb90612325565b60405180910390fd5b6106df838383610ea7565b505050565b6106ff83838360405180602001604052806000815250610916565b505050565b6000806002600084815260200190815260200160002060009054906101000a900473ffffffffffffffffffffffffffffffffffffffff169050600073ffffffffffffffffffffffffffffffffffffffff168173ffffffffffffffffffffffffffffffffffffffff1614156107ad576040517f08c379a00000000000000000000000000000000000000000000000000000000081526004016107a4906123b7565b60405180910390fd5b80915050919050565b60008073ffffffffffffffffffffffffffffffffffffffff168273ffffffffffffffffffffffffffffffffffffffff161415610827576040517f08c379a000000000000000000000000000000000000000000000000000000000815260040161081e90612449565b60405180910390fd5b600360008373ffffffffffffffffffffffffffffffffffffffff1673ffffffffffffffffffffffffffffffffffffffff168152602001908152602001600020549050919050565b60606001805461087d906120cb565b80601f01602080910402602001604051908101604052809291908181526020018280546108a9906120cb565b80156108f65780601f106108cb576101008083540402835291602001916108f6565b820191906000526020600020905b8154815290600101906020018083116108d957829003601f168201915b5050505050905090565b61091261090b610d08565b8383611103565b5050565b610927610921610d08565b83610dc9565b610966576040517f08c379a000000000000000000000000000000000000000000000000000000000815260040161095d90612325565b60405180910390fd5b61097284848484611270565b50505050565b606061098382610c9c565b6109c2576040517f08c379a00000000000000000000000000000000000000000000000000000000081526004016109b9906124db565b60405180910390fd5b60006006600084815260200190815260200160002080546109e2906120cb565b80601f0160208091040260200160405190810160405280929190818152602001828054610a0e906120cb565b8015610a5b5780601f10610a3057610100808354040283529160200191610a5b565b820191906000526020600020905b815481529060010190602001808311610a3e57829003601f168201915b505050505090506000610a6c6112cc565b9050600081511415610a82578192505050610ac5565b600082511115610ab7578082604051602001610a9f929190612537565b60405160208183030381529060405292505050610ac5565b610ac0846112e3565b925050505b919050565b60075481565b6000600560008473ffffffffffffffffffffffffffffffffffffffff1673ffffffffffffffffffffffffffffffffffffffff16815260200190815260200160002060008373ffffffffffffffffffffffffffffffffffffffff1673ffffffffffffffffffffffffffffffffffffffff16815260200190815260200160002060009054906101000a900460ff16905092915050565b60007f01ffc9a7000000000000000000000000000000000000000000000000000000007bffffffffffffffffffffffffffffffffffffffffffffffffffffffff1916827bffffffffffffffffffffffffffffffffffffffffffffffffffffffff1916149050919050565b600080424384604051602001610be69392919061257c565b6040516020818303038152906040528051906020012060001c905080915050919050565b610c2482826040518060200160405280600081525061138a565b5050565b610c3182610c9c565b610c70576040517f08c379a0000000000000000000000000000000000000000000000000000000008152600401610c679061262b565b60405180910390fd5b80600660008481526020019081526020016000209080519060200190610c979291906118b4565b505050565b60008073ffffffffffffffffffffffffffffffffffffffff166002600084815260200190815260200160002060009054906101000a900473ffffffffffffffffffffffffffffffffffffffff1673ffffffffffffffffffffffffffffffffffffffff1614159050919050565b600033905090565b816004600083815260200190815260200160002060006101000a81548173ffffffffffffffffffffffffffffffffffffffff021916908373ffffffffffffffffffffffffffffffffffffffff160217905550808273ffffffffffffffffffffffffffffffffffffffff16610d8383610704565b73ffffffffffffffffffffffffffffffffffffffff167f8c5be1e5ebec7d5bd14f71427d1e84f3dd0314c0f7b2291e5b200ac8c7c3b92560405160405180910390a45050565b6000610dd482610c9c565b610e13576040517f08c379a0000000000000000000000000000000000000000000000000000000008152600401610e0a906126bd565b60405180910390fd5b6000610e1e83610704565b90508073ffffffffffffffffffffffffffffffffffffffff168473ffffffffffffffffffffffffffffffffffffffff161480610e8d57508373ffffffffffffffffffffffffffffffffffffffff16610e75846104e7565b73ffffffffffffffffffffffffffffffffffffffff16145b80610e9e5750610e9d8185610ad0565b5b91505092915050565b8273ffffffffffffffffffffffffffffffffffffffff16610ec782610704565b73ffffffffffffffffffffffffffffffffffffffff1614610f1d576040517f08c379a0000000000000000000000000000000000000000000000000000000008152600401610f149061274f565b60405180910390fd5b600073ffffffffffffffffffffffffffffffffffffffff168273ffffffffffffffffffffffffffffffffffffffff161415610f8d576040517f08c379a0000000000000000000000000000000000000000000000000000000008152600401610f84906127e1565b60405180910390fd5b610f988383836113e5565b610fa3600082610d10565b6001600360008573ffffffffffffffffffffffffffffffffffffffff1673ffffffffffffffffffffffffffffffffffffffff1681526020019081526020016000206000828254610ff39190612801565b925050819055506001600360008473ffffffffffffffffffffffffffffffffffffffff1673ffffffffffffffffffffffffffffffffffffffff168152602001908152602001600020600082825461104a9190612046565b92505081905550816002600083815260200190815260200160002060006101000a81548173ffffffffffffffffffffffffffffffffffffffff021916908373ffffffffffffffffffffffffffffffffffffffff160217905550808273ffffffffffffffffffffffffffffffffffffffff168473ffffffffffffffffffffffffffffffffffffffff167fddf252ad1be2c89b69c2b068fc378daa952ba7f163c4a11628f55a4df523b3ef60405160405180910390a4505050565b8173ffffffffffffffffffffffffffffffffffffffff168373ffffffffffffffffffffffffffffffffffffffff161415611172576040517f08c379a000000000000000000000000000000000000000000000000000000000815260040161116990612881565b60405180910390fd5b80600560008573ffffffffffffffffffffffffffffffffffffffff1673ffffffffffffffffffffffffffffffffffffffff16815260200190815260200160002060008473ffffffffffffffffffffffffffffffffffffffff1673ffffffffffffffffffffffffffffffffffffffff16815260200190815260200160002060006101000a81548160ff0219169083151502179055508173ffffffffffffffffffffffffffffffffffffffff168373ffffffffffffffffffffffffffffffffffffffff167f17307eab39ab6107e8899845ad3d59bd9653f200f220920489ca2b5937696c31836040516112639190611a0b565b60405180910390a3505050565b61127b848484610ea7565b611287848484846113ea565b6112c6576040517f08c379a00000000000000000000000000000000000000000000000000000000081526004016112bd90612913565b60405180910390fd5b50505050565b606060405180602001604052806000815250905090565b60606112ee82610c9c565b61132d576040517f08c379a0000000000000000000000000000000000000000000000000000000008152600401611324906129a5565b60405180910390fd5b60006113376112cc565b905060008151116113575760405180602001604052806000815250611382565b8061136184611572565b604051602001611372929190612537565b6040516020818303038152906040525b915050919050565b61139483836116d3565b6113a160008484846113ea565b6113e0576040517f08c379a00000000000000000000000000000000000000000000000000000000081526004016113d790612913565b60405180910390fd5b505050565b505050565b600061140b8473ffffffffffffffffffffffffffffffffffffffff166118a1565b15611565578373ffffffffffffffffffffffffffffffffffffffff1663150b7a02611434610d08565b8786866040518563ffffffff1660e01b81526004016114569493929190612a1a565b6020604051808303816000875af192505050801561149257506040513d601f19601f8201168201806040525081019061148f9190612a7b565b60015b611515573d80600081146114c2576040519150601f19603f3d011682016040523d82523d6000602084013e6114c7565b606091505b5060008151141561150d576040517f08c379a000000000000000000000000000000000000000000000000000000000815260040161150490612913565b60405180910390fd5b805181602001fd5b63150b7a0260e01b7bffffffffffffffffffffffffffffffffffffffffffffffffffffffff1916817bffffffffffffffffffffffffffffffffffffffffffffffffffffffff19161491505061156a565b600190505b949350505050565b606060008214156115ba576040518060400160405280600181526020017f300000000000000000000000000000000000000000000000000000000000000081525090506116ce565b600082905060005b600082146115ec5780806115d590612aa8565b915050600a826115e59190612b20565b91506115c2565b60008167ffffffffffffffff81111561160857611607611a41565b5b6040519080825280601f01601f19166020018201604052801561163a5781602001600182028036833780820191505090505b5090505b600085146116c7576001826116539190612801565b9150600a856116629190612b51565b603061166e9190612046565b60f81b81838151811061168457611683612b82565b5b60200101907effffffffffffffffffffffffffffffffffffffffffffffffffffffffffffff1916908160001a905350600a856116c09190612b20565b945061163e565b8093505050505b919050565b600073ffffffffffffffffffffffffffffffffffffffff168273ffffffffffffffffffffffffffffffffffffffff161415611743576040517f08c379a000000000000000000000000000000000000000000000000000000000815260040161173a90612bfd565b60405180910390fd5b61174c81610c9c565b1561178c576040517f08c379a000000000000000000000000000000000000000000000000000000000815260040161178390612c69565b60405180910390fd5b611798600083836113e5565b6001600360008473ffffffffffffffffffffffffffffffffffffffff1673ffffffffffffffffffffffffffffffffffffffff16815260200190815260200160002060008282546117e89190612046565b92505081905550816002600083815260200190815260200160002060006101000a81548173ffffffffffffffffffffffffffffffffffffffff021916908373ffffffffffffffffffffffffffffffffffffffff160217905550808273ffffffffffffffffffffffffffffffffffffffff16600073ffffffffffffffffffffffffffffffffffffffff167fddf252ad1be2c89b69c2b068fc378daa952ba7f163c4a11628f55a4df523b3ef60405160405180910390a45050565b600080823b905060008111915050919050565b8280546118c0906120cb565b90600052602060002090601f0160209004810192826118e25760008555611929565b82601f106118fb57805160ff1916838001178555611929565b82800160010185558215611929579182015b8281111561192857825182559160200191906001019061190d565b5b509050611936919061193a565b5090565b5b8082111561195357600081600090555060010161193b565b5090565b6000604051905090565b600080fd5b600080fd5b60007fffffffff0000000000000000000000000000000000000000000000000000000082169050919050565b6119a08161196b565b81146119ab57600080fd5b50565b6000813590506119bd81611997565b92915050565b6000602082840312156119d9576119d8611961565b5b60006119e7848285016119ae565b91505092915050565b60008115159050919050565b611a05816119f0565b82525050565b6000602082019050611a2060008301846119fc565b92915050565b600080fd5b600080fd5b6000601f19601f8301169050919050565b7f4e487b7100000000000000000000000000000000000000000000000000000000600052604160045260246000fd5b611a7982611a30565b810181811067ffffffffffffffff82111715611a9857611a97611a41565b5b80604052505050565b6000611aab611957565b9050611ab78282611a70565b919050565b600067ffffffffffffffff821115611ad757611ad6611a41565b5b611ae082611a30565b9050602081019050919050565b82818337600083830152505050565b6000611b0f611b0a84611abc565b611aa1565b905082815260208101848484011115611b2b57611b2a611a2b565b5b611b36848285611aed565b509392505050565b600082601f830112611b5357611b52611a26565b5b8135611b63848260208601611afc565b91505092915050565b600073ffffffffffffffffffffffffffffffffffffffff82169050919050565b6000611b9782611b6c565b9050919050565b611ba781611b8c565b8114611bb257600080fd5b50565b600081359050611bc481611b9e565b92915050565b60008060408385031215611be157611be0611961565b5b600083013567ffffffffffffffff811115611bff57611bfe611966565b5b611c0b85828601611b3e565b9250506020611c1c85828601611bb5565b9150509250929050565b6000819050919050565b611c3981611c26565b82525050565b6000602082019050611c546000830184611c30565b92915050565b600081519050919050565b600082825260208201905092915050565b60005b83811015611c94578082015181840152602081019050611c79565b83811115611ca3576000848401525b50505050565b6000611cb482611c5a565b611cbe8185611c65565b9350611cce818560208601611c76565b611cd781611a30565b840191505092915050565b60006020820190508181036000830152611cfc8184611ca9565b905092915050565b611d0d81611c26565b8114611d1857600080fd5b50565b600081359050611d2a81611d04565b92915050565b600060208284031215611d4657611d45611961565b5b6000611d5484828501611d1b565b91505092915050565b611d6681611b8c565b82525050565b6000602082019050611d816000830184611d5d565b92915050565b60008060408385031215611d9e57611d9d611961565b5b6000611dac85828601611bb5565b9250506020611dbd85828601611d1b565b9150509250929050565b600080600060608486031215611de057611ddf611961565b5b6000611dee86828701611bb5565b9350506020611dff86828701611bb5565b9250506040611e1086828701611d1b565b9150509250925092565b600060208284031215611e3057611e2f611961565b5b6000611e3e84828501611bb5565b91505092915050565b611e50816119f0565b8114611e5b57600080fd5b50565b600081359050611e6d81611e47565b92915050565b60008060408385031215611e8a57611e89611961565b5b6000611e9885828601611bb5565b9250506020611ea985828601611e5e565b9150509250929050565b600067ffffffffffffffff821115611ece57611ecd611a41565b5b611ed782611a30565b9050602081019050919050565b6000611ef7611ef284611eb3565b611aa1565b905082815260208101848484011115611f1357611f12611a2b565b5b611f1e848285611aed565b509392505050565b600082601f830112611f3b57611f3a611a26565b5b8135611f4b848260208601611ee4565b91505092915050565b60008060008060808587031215611f6e57611f6d611961565b5b6000611f7c87828801611bb5565b9450506020611f8d87828801611bb5565b9350506040611f9e87828801611d1b565b925050606085013567ffffffffffffffff811115611fbf57611fbe611966565b5b611fcb87828801611f26565b91505092959194509250565b60008060408385031215611fee57611fed611961565b5b6000611ffc85828601611bb5565b925050602061200d85828601611bb5565b9150509250929050565b7f4e487b7100000000000000000000000000000000000000000000000000000000600052601160045260246000fd5b600061205182611c26565b915061205c83611c26565b9250827fffffffffffffffffffffffffffffffffffffffffffffffffffffffffffffffff0382111561209157612090612017565b5b828201905092915050565b7f4e487b7100000000000000000000000000000000000000000000000000000000600052602260045260246000fd5b600060028204905060018216806120e357607f821691505b602082108114156120f7576120f661209c565b5b50919050565b7f4552433732313a20617070726f76656420717565727920666f72206e6f6e657860008201527f697374656e7420746f6b656e0000000000000000000000000000000000000000602082015250565b6000612159602c83611c65565b9150612164826120fd565b604082019050919050565b600060208201905081810360008301526121888161214c565b9050919050565b7f4552433732313a20617070726f76616c20746f2063757272656e74206f776e6560008201527f7200000000000000000000000000000000000000000000000000000000000000602082015250565b60006121eb602183611c65565b91506121f68261218f565b604082019050919050565b6000602082019050818103600083015261221a816121de565b9050919050565b7f4552433732313a20617070726f76652063616c6c6572206973206e6f74206f7760008201527f6e6572206e6f7220617070726f76656420666f7220616c6c0000000000000000602082015250565b600061227d603883611c65565b915061228882612221565b604082019050919050565b600060208201905081810360008301526122ac81612270565b9050919050565b7f4552433732313a207472616e736665722063616c6c6572206973206e6f74206f60008201527f776e6572206e6f7220617070726f766564000000000000000000000000000000602082015250565b600061230f603183611c65565b915061231a826122b3565b604082019050919050565b6000602082019050818103600083015261233e81612302565b9050919050565b7f4552433732313a206f776e657220717565727920666f72206e6f6e657869737460008201527f656e7420746f6b656e0000000000000000000000000000000000000000000000602082015250565b60006123a1602983611c65565b91506123ac82612345565b604082019050919050565b600060208201905081810360008301526123d081612394565b9050919050565b7f4552433732313a2062616c616e636520717565727920666f7220746865207a6560008201527f726f206164647265737300000000000000000000000000000000000000000000602082015250565b6000612433602a83611c65565b915061243e826123d7565b604082019050919050565b6000602082019050818103600083015261246281612426565b9050919050565b7f45524337323155524953746f726167653a2055524920717565727920666f722060008201527f6e6f6e6578697374656e7420746f6b656e000000000000000000000000000000602082015250565b60006124c5603183611c65565b91506124d082612469565b604082019050919050565b600060208201905081810360008301526124f4816124b8565b9050919050565b600081905092915050565b600061251182611c5a565b61251b81856124fb565b935061252b818560208601611c76565b80840191505092915050565b60006125438285612506565b915061254f8284612506565b91508190509392505050565b6000819050919050565b61257661257182611c26565b61255b565b82525050565b60006125888286612565565b6020820191506125988285612565565b6020820191506125a88284612565565b602082019150819050949350505050565b7f45524337323155524953746f726167653a2055524920736574206f66206e6f6e60008201527f6578697374656e7420746f6b656e000000000000000000000000000000000000602082015250565b6000612615602e83611c65565b9150612620826125b9565b604082019050919050565b6000602082019050818103600083015261264481612608565b9050919050565b7f4552433732313a206f70657261746f7220717565727920666f72206e6f6e657860008201527f697374656e7420746f6b656e0000000000000000000000000000000000000000602082015250565b60006126a7602c83611c65565b91506126b28261264b565b604082019050919050565b600060208201905081810360008301526126d68161269a565b9050919050565b7f4552433732313a207472616e73666572206f6620746f6b656e2074686174206960008201527f73206e6f74206f776e0000000000000000000000000000000000000000000000602082015250565b6000612739602983611c65565b9150612744826126dd565b604082019050919050565b600060208201905081810360008301526127688161272c565b9050919050565b7f4552433732313a207472616e7366657220746f20746865207a65726f2061646460008201527f7265737300000000000000000000000000000000000000000000000000000000602082015250565b60006127cb602483611c65565b91506127d68261276f565b604082019050919050565b600060208201905081810360008301526127fa816127be565b9050919050565b600061280c82611c26565b915061281783611c26565b92508282101561282a57612829612017565b5b828203905092915050565b7f4552433732313a20617070726f766520746f2063616c6c657200000000000000600082015250565b600061286b601983611c65565b915061287682612835565b602082019050919050565b6000602082019050818103600083015261289a8161285e565b9050919050565b7f4552433732313a207472616e7366657220746f206e6f6e20455243373231526560008201527f63656976657220696d706c656d656e7465720000000000000000000000000000602082015250565b60006128fd603283611c65565b9150612908826128a1565b604082019050919050565b6000602082019050818103600083015261292c816128f0565b9050919050565b7f4552433732314d657461646174613a2055524920717565727920666f72206e6f60008201527f6e6578697374656e7420746f6b656e0000000000000000000000000000000000602082015250565b600061298f602f83611c65565b915061299a82612933565b604082019050919050565b600060208201905081810360008301526129be81612982565b9050919050565b600081519050919050565b600082825260208201905092915050565b60006129ec826129c5565b6129f681856129d0565b9350612a06818560208601611c76565b612a0f81611a30565b840191505092915050565b6000608082019050612a2f6000830187611d5d565b612a3c6020830186611d5d565b612a496040830185611c30565b8181036060830152612a5b81846129e1565b905095945050505050565b600081519050612a7581611997565b92915050565b600060208284031215612a9157612a90611961565b5b6000612a9f84828501612a66565b91505092915050565b6000612ab382611c26565b91507fffffffffffffffffffffffffffffffffffffffffffffffffffffffffffffffff821415612ae657612ae5612017565b5b600182019050919050565b7f4e487b7100000000000000000000000000000000000000000000000000000000600052601260045260246000fd5b6000612b2b82611c26565b9150612b3683611c26565b925082612b4657612b45612af1565b5b828204905092915050565b6000612b5c82611c26565b9150612b6783611c26565b925082612b7757612b76612af1565b5b828206905092915050565b7f4e487b7100000000000000000000000000000000000000000000000000000000600052603260045260246000fd5b7f4552433732313a206d696e7420746f20746865207a65726f2061646472657373600082015250565b6000612be7602083611c65565b9150612bf282612bb1565b602082019050919050565b60006020820190508181036000830152612c1681612bda565b9050919050565b7f4552433732313a20746f6b656e20616c7265616479206d696e74656400000000600082015250565b6000612c53601c83611c65565b9150612c5e82612c1d565b602082019050919050565b60006020820190508181036000830152612c8281612c46565b905091905056fea26469706673582212202e6fe8150948eaafe6763ce664c0e69428e3736850425bf28314573d024bdf9e64736f6c634300080a0033a26469706673582212209048de056217f0116d97ee435d7b53a8ec6b9879f532c9456e1216acf73211a664736f6c634300080a0033",
  "immutableReferences": {},
  "source": "// File: @openzeppelin/contracts/utils/introspection/IERC165.sol\n\n// OpenZeppelin Contracts v4.4.0 (utils/introspection/IERC165.sol)\n\npragma solidity ^0.8.0;\n\n/**\n * @dev Interface of the ERC165 standard, as defined in the\n * https://eips.ethereum.org/EIPS/eip-165[EIP].\n *\n * Implementers can declare support of contract interfaces, which can then be\n * queried by others ({ERC165Checker}).\n *\n * For an implementation, see {ERC165}.\n */\ninterface IERC165 {\n    /**\n     * @dev Returns true if this contract implements the interface defined by\n     * `interfaceId`. See the corresponding\n     * https://eips.ethereum.org/EIPS/eip-165#how-interfaces-are-identified[EIP section]\n     * to learn more about how these ids are created.\n     *\n     * This function call must use less than 30 000 gas.\n     */\n    function supportsInterface(bytes4 interfaceId) external view returns (bool);\n}\n\n// File: @openzeppelin/contracts/token/ERC721/IERC721.sol\n\n// OpenZeppelin Contracts v4.4.0 (token/ERC721/IERC721.sol)\n\npragma solidity ^0.8.0;\n\n/**\n * @dev Required interface of an ERC721 compliant contract.\n */\ninterface IERC721 is IERC165 {\n    /**\n     * @dev Emitted when `tokenId` token is transferred from `from` to `to`.\n     */\n    event Transfer(\n        address indexed from,\n        address indexed to,\n        uint256 indexed tokenId\n    );\n\n    /**\n     * @dev Emitted when `owner` enables `approved` to manage the `tokenId` token.\n     */\n    event Approval(\n        address indexed owner,\n        address indexed approved,\n        uint256 indexed tokenId\n    );\n\n    /**\n     * @dev Emitted when `owner` enables or disables (`approved`) `operator` to manage all of its assets.\n     */\n    event ApprovalForAll(\n        address indexed owner,\n        address indexed operator,\n        bool approved\n    );\n\n    /**\n     * @dev Returns the number of tokens in ``owner``'s account.\n     */\n    function balanceOf(address owner) external view returns (uint256 balance);\n\n    /**\n     * @dev Returns the owner of the `tokenId` token.\n     *\n     * Requirements:\n     *\n     * - `tokenId` must exist.\n     */\n    function ownerOf(uint256 tokenId) external view returns (address owner);\n\n    /**\n     * @dev Safely transfers `tokenId` token from `from` to `to`, checking first that contract recipients\n     * are aware of the ERC721 protocol to prevent tokens from being forever locked.\n     *\n     * Requirements:\n     *\n     * - `from` cannot be the zero address.\n     * - `to` cannot be the zero address.\n     * - `tokenId` token must exist and be owned by `from`.\n     * - If the caller is not `from`, it must be have been allowed to move this token by either {approve} or {setApprovalForAll}.\n     * - If `to` refers to a smart contract, it must implement {IERC721Receiver-onERC721Received}, which is called upon a safe transfer.\n     *\n     * Emits a {Transfer} event.\n     */\n    function safeTransferFrom(\n        address from,\n        address to,\n        uint256 tokenId\n    ) external;\n\n    /**\n     * @dev Transfers `tokenId` token from `from` to `to`.\n     *\n     * WARNING: Usage of this method is discouraged, use {safeTransferFrom} whenever possible.\n     *\n     * Requirements:\n     *\n     * - `from` cannot be the zero address.\n     * - `to` cannot be the zero address.\n     * - `tokenId` token must be owned by `from`.\n     * - If the caller is not `from`, it must be approved to move this token by either {approve} or {setApprovalForAll}.\n     *\n     * Emits a {Transfer} event.\n     */\n    function transferFrom(\n        address from,\n        address to,\n        uint256 tokenId\n    ) external;\n\n    /**\n     * @dev Gives permission to `to` to transfer `tokenId` token to another account.\n     * The approval is cleared when the token is transferred.\n     *\n     * Only a single account can be approved at a time, so approving the zero address clears previous approvals.\n     *\n     * Requirements:\n     *\n     * - The caller must own the token or be an approved operator.\n     * - `tokenId` must exist.\n     *\n     * Emits an {Approval} event.\n     */\n    function approve(address to, uint256 tokenId) external;\n\n    /**\n     * @dev Returns the account approved for `tokenId` token.\n     *\n     * Requirements:\n     *\n     * - `tokenId` must exist.\n     */\n    function getApproved(uint256 tokenId)\n        external\n        view\n        returns (address operator);\n\n    /**\n     * @dev Approve or remove `operator` as an operator for the caller.\n     * Operators can call {transferFrom} or {safeTransferFrom} for any token owned by the caller.\n     *\n     * Requirements:\n     *\n     * - The `operator` cannot be the caller.\n     *\n     * Emits an {ApprovalForAll} event.\n     */\n    function setApprovalForAll(address operator, bool _approved) external;\n\n    /**\n     * @dev Returns if the `operator` is allowed to manage all of the assets of `owner`.\n     *\n     * See {setApprovalForAll}\n     */\n    function isApprovedForAll(address owner, address operator)\n        external\n        view\n        returns (bool);\n\n    /**\n     * @dev Safely transfers `tokenId` token from `from` to `to`.\n     *\n     * Requirements:\n     *\n     * - `from` cannot be the zero address.\n     * - `to` cannot be the zero address.\n     * - `tokenId` token must exist and be owned by `from`.\n     * - If the caller is not `from`, it must be approved to move this token by either {approve} or {setApprovalForAll}.\n     * - If `to` refers to a smart contract, it must implement {IERC721Receiver-onERC721Received}, which is called upon a safe transfer.\n     *\n     * Emits a {Transfer} event.\n     */\n    function safeTransferFrom(\n        address from,\n        address to,\n        uint256 tokenId,\n        bytes calldata data\n    ) external;\n}\n\n// File: @openzeppelin/contracts/token/ERC721/IERC721Receiver.sol\n\n// OpenZeppelin Contracts v4.4.0 (token/ERC721/IERC721Receiver.sol)\n\npragma solidity ^0.8.0;\n\n/**\n * @title ERC721 token receiver interface\n * @dev Interface for any contract that wants to support safeTransfers\n * from ERC721 asset contracts.\n */\ninterface IERC721Receiver {\n    /**\n     * @dev Whenever an {IERC721} `tokenId` token is transferred to this contract via {IERC721-safeTransferFrom}\n     * by `operator` from `from`, this function is called.\n     *\n     * It must return its Solidity selector to confirm the token transfer.\n     * If any other value is returned or the interface is not implemented by the recipient, the transfer will be reverted.\n     *\n     * The selector can be obtained in Solidity with `IERC721.onERC721Received.selector`.\n     */\n    function onERC721Received(\n        address operator,\n        address from,\n        uint256 tokenId,\n        bytes calldata data\n    ) external returns (bytes4);\n}\n\n// File: @openzeppelin/contracts/token/ERC721/extensions/IERC721Metadata.sol\n\n// OpenZeppelin Contracts v4.4.0 (token/ERC721/extensions/IERC721Metadata.sol)\n\npragma solidity ^0.8.0;\n\n/**\n * @title ERC-721 Non-Fungible Token Standard, optional metadata extension\n * @dev See https://eips.ethereum.org/EIPS/eip-721\n */\ninterface IERC721Metadata is IERC721 {\n    /**\n     * @dev Returns the token collection name.\n     */\n    function name() external view returns (string memory);\n\n    /**\n     * @dev Returns the token collection symbol.\n     */\n    function symbol() external view returns (string memory);\n\n    /**\n     * @dev Returns the Uniform Resource Identifier (URI) for `tokenId` token.\n     */\n    function tokenURI(uint256 tokenId) external view returns (string memory);\n}\n\n// File: @openzeppelin/contracts/utils/Address.sol\n\n// OpenZeppelin Contracts v4.4.0 (utils/Address.sol)\n\npragma solidity ^0.8.0;\n\n/**\n * @dev Collection of functions related to the address type\n */\nlibrary Address {\n    /**\n     * @dev Returns true if `account` is a contract.\n     *\n     * [IMPORTANT]\n     * ====\n     * It is unsafe to assume that an address for which this function returns\n     * false is an externally-owned account (EOA) and not a contract.\n     *\n     * Among others, `isContract` will return false for the following\n     * types of addresses:\n     *\n     *  - an externally-owned account\n     *  - a contract in construction\n     *  - an address where a contract will be created\n     *  - an address where a contract lived, but was destroyed\n     * ====\n     */\n    function isContract(address account) internal view returns (bool) {\n        // This method relies on extcodesize, which returns 0 for contracts in\n        // construction, since the code is only stored at the end of the\n        // constructor execution.\n\n        uint256 size;\n        assembly {\n            size := extcodesize(account)\n        }\n        return size > 0;\n    }\n\n    /**\n     * @dev Replacement for Solidity's `transfer`: sends `amount` wei to\n     * `recipient`, forwarding all available gas and reverting on errors.\n     *\n     * https://eips.ethereum.org/EIPS/eip-1884[EIP1884] increases the gas cost\n     * of certain opcodes, possibly making contracts go over the 2300 gas limit\n     * imposed by `transfer`, making them unable to receive funds via\n     * `transfer`. {sendValue} removes this limitation.\n     *\n     * https://diligence.consensys.net/posts/2019/09/stop-using-soliditys-transfer-now/[Learn more].\n     *\n     * IMPORTANT: because control is transferred to `recipient`, care must be\n     * taken to not create reentrancy vulnerabilities. Consider using\n     * {ReentrancyGuard} or the\n     * https://solidity.readthedocs.io/en/v0.5.11/security-considerations.html#use-the-checks-effects-interactions-pattern[checks-effects-interactions pattern].\n     */\n    function sendValue(address payable recipient, uint256 amount) internal {\n        require(\n            address(this).balance >= amount,\n            \"Address: insufficient balance\"\n        );\n\n        (bool success, ) = recipient.call{value: amount}(\"\");\n        require(\n            success,\n            \"Address: unable to send value, recipient may have reverted\"\n        );\n    }\n\n    /**\n     * @dev Performs a Solidity function call using a low level `call`. A\n     * plain `call` is an unsafe replacement for a function call: use this\n     * function instead.\n     *\n     * If `target` reverts with a revert reason, it is bubbled up by this\n     * function (like regular Solidity function calls).\n     *\n     * Returns the raw returned data. To convert to the expected return value,\n     * use https://solidity.readthedocs.io/en/latest/units-and-global-variables.html?highlight=abi.decode#abi-encoding-and-decoding-functions[`abi.decode`].\n     *\n     * Requirements:\n     *\n     * - `target` must be a contract.\n     * - calling `target` with `data` must not revert.\n     *\n     * _Available since v3.1._\n     */\n    function functionCall(address target, bytes memory data)\n        internal\n        returns (bytes memory)\n    {\n        return functionCall(target, data, \"Address: low-level call failed\");\n    }\n\n    /**\n     * @dev Same as {xref-Address-functionCall-address-bytes-}[`functionCall`], but with\n     * `errorMessage` as a fallback revert reason when `target` reverts.\n     *\n     * _Available since v3.1._\n     */\n    function functionCall(\n        address target,\n        bytes memory data,\n        string memory errorMessage\n    ) internal returns (bytes memory) {\n        return functionCallWithValue(target, data, 0, errorMessage);\n    }\n\n    /**\n     * @dev Same as {xref-Address-functionCall-address-bytes-}[`functionCall`],\n     * but also transferring `value` wei to `target`.\n     *\n     * Requirements:\n     *\n     * - the calling contract must have an ETH balance of at least `value`.\n     * - the called Solidity function must be `payable`.\n     *\n     * _Available since v3.1._\n     */\n    function functionCallWithValue(\n        address target,\n        bytes memory data,\n        uint256 value\n    ) internal returns (bytes memory) {\n        return\n            functionCallWithValue(\n                target,\n                data,\n                value,\n                \"Address: low-level call with value failed\"\n            );\n    }\n\n    /**\n     * @dev Same as {xref-Address-functionCallWithValue-address-bytes-uint256-}[`functionCallWithValue`], but\n     * with `errorMessage` as a fallback revert reason when `target` reverts.\n     *\n     * _Available since v3.1._\n     */\n    function functionCallWithValue(\n        address target,\n        bytes memory data,\n        uint256 value,\n        string memory errorMessage\n    ) internal returns (bytes memory) {\n        require(\n            address(this).balance >= value,\n            \"Address: insufficient balance for call\"\n        );\n        require(isContract(target), \"Address: call to non-contract\");\n\n        (bool success, bytes memory returndata) = target.call{value: value}(\n            data\n        );\n        return verifyCallResult(success, returndata, errorMessage);\n    }\n\n    /**\n     * @dev Same as {xref-Address-functionCall-address-bytes-}[`functionCall`],\n     * but performing a static call.\n     *\n     * _Available since v3.3._\n     */\n    function functionStaticCall(address target, bytes memory data)\n        internal\n        view\n        returns (bytes memory)\n    {\n        return\n            functionStaticCall(\n                target,\n                data,\n                \"Address: low-level static call failed\"\n            );\n    }\n\n    /**\n     * @dev Same as {xref-Address-functionCall-address-bytes-string-}[`functionCall`],\n     * but performing a static call.\n     *\n     * _Available since v3.3._\n     */\n    function functionStaticCall(\n        address target,\n        bytes memory data,\n        string memory errorMessage\n    ) internal view returns (bytes memory) {\n        require(isContract(target), \"Address: static call to non-contract\");\n\n        (bool success, bytes memory returndata) = target.staticcall(data);\n        return verifyCallResult(success, returndata, errorMessage);\n    }\n\n    /**\n     * @dev Same as {xref-Address-functionCall-address-bytes-}[`functionCall`],\n     * but performing a delegate call.\n     *\n     * _Available since v3.4._\n     */\n    function functionDelegateCall(address target, bytes memory data)\n        internal\n        returns (bytes memory)\n    {\n        return\n            functionDelegateCall(\n                target,\n                data,\n                \"Address: low-level delegate call failed\"\n            );\n    }\n\n    /**\n     * @dev Same as {xref-Address-functionCall-address-bytes-string-}[`functionCall`],\n     * but performing a delegate call.\n     *\n     * _Available since v3.4._\n     */\n    function functionDelegateCall(\n        address target,\n        bytes memory data,\n        string memory errorMessage\n    ) internal returns (bytes memory) {\n        require(isContract(target), \"Address: delegate call to non-contract\");\n\n        (bool success, bytes memory returndata) = target.delegatecall(data);\n        return verifyCallResult(success, returndata, errorMessage);\n    }\n\n    /**\n     * @dev Tool to verifies that a low level call was successful, and revert if it wasn't, either by bubbling the\n     * revert reason using the provided one.\n     *\n     * _Available since v4.3._\n     */\n    function verifyCallResult(\n        bool success,\n        bytes memory returndata,\n        string memory errorMessage\n    ) internal pure returns (bytes memory) {\n        if (success) {\n            return returndata;\n        } else {\n            // Look for revert reason and bubble it up if present\n            if (returndata.length > 0) {\n                // The easiest way to bubble the revert reason is using memory via assembly\n\n                assembly {\n                    let returndata_size := mload(returndata)\n                    revert(add(32, returndata), returndata_size)\n                }\n            } else {\n                revert(errorMessage);\n            }\n        }\n    }\n}\n\n// File: @openzeppelin/contracts/utils/Context.sol\n\n// OpenZeppelin Contracts v4.4.0 (utils/Context.sol)\n\npragma solidity ^0.8.0;\n\n/**\n * @dev Provides information about the current execution context, including the\n * sender of the transaction and its data. While these are generally available\n * via msg.sender and msg.data, they should not be accessed in such a direct\n * manner, since when dealing with meta-transactions the account sending and\n * paying for execution may not be the actual sender (as far as an application\n * is concerned).\n *\n * This contract is only required for intermediate, library-like contracts.\n */\nabstract contract Context {\n    function _msgSender() internal view virtual returns (address) {\n        return msg.sender;\n    }\n\n    function _msgData() internal view virtual returns (bytes calldata) {\n        return msg.data;\n    }\n}\n\n// File: @openzeppelin/contracts/utils/Strings.sol\n\n// OpenZeppelin Contracts v4.4.0 (utils/Strings.sol)\n\npragma solidity ^0.8.0;\n\n/**\n * @dev String operations.\n */\nlibrary Strings {\n    bytes16 private constant _HEX_SYMBOLS = \"0123456789abcdef\";\n\n    /**\n     * @dev Converts a `uint256` to its ASCII `string` decimal representation.\n     */\n    function toString(uint256 value) internal pure returns (string memory) {\n        // Inspired by OraclizeAPI's implementation - MIT licence\n        // https://github.com/oraclize/ethereum-api/blob/b42146b063c7d6ee1358846c198246239e9360e8/oraclizeAPI_0.4.25.sol\n\n        if (value == 0) {\n            return \"0\";\n        }\n        uint256 temp = value;\n        uint256 digits;\n        while (temp != 0) {\n            digits++;\n            temp /= 10;\n        }\n        bytes memory buffer = new bytes(digits);\n        while (value != 0) {\n            digits -= 1;\n            buffer[digits] = bytes1(uint8(48 + uint256(value % 10)));\n            value /= 10;\n        }\n        return string(buffer);\n    }\n\n    /**\n     * @dev Converts a `uint256` to its ASCII `string` hexadecimal representation.\n     */\n    function toHexString(uint256 value) internal pure returns (string memory) {\n        if (value == 0) {\n            return \"0x00\";\n        }\n        uint256 temp = value;\n        uint256 length = 0;\n        while (temp != 0) {\n            length++;\n            temp >>= 8;\n        }\n        return toHexString(value, length);\n    }\n\n    /**\n     * @dev Converts a `uint256` to its ASCII `string` hexadecimal representation with fixed length.\n     */\n    function toHexString(uint256 value, uint256 length)\n        internal\n        pure\n        returns (string memory)\n    {\n        bytes memory buffer = new bytes(2 * length + 2);\n        buffer[0] = \"0\";\n        buffer[1] = \"x\";\n        for (uint256 i = 2 * length + 1; i > 1; --i) {\n            buffer[i] = _HEX_SYMBOLS[value & 0xf];\n            value >>= 4;\n        }\n        require(value == 0, \"Strings: hex length insufficient\");\n        return string(buffer);\n    }\n}\n\n// File: @openzeppelin/contracts/utils/introspection/ERC165.sol\n\n// OpenZeppelin Contracts v4.4.0 (utils/introspection/ERC165.sol)\n\npragma solidity ^0.8.0;\n\n/**\n * @dev Implementation of the {IERC165} interface.\n *\n * Contracts that want to implement ERC165 should inherit from this contract and override {supportsInterface} to check\n * for the additional interface id that will be supported. For example:\n *\n * ```solidity\n * function supportsInterface(bytes4 interfaceId) public view virtual override returns (bool) {\n *     return interfaceId == type(MyInterface).interfaceId || super.supportsInterface(interfaceId);\n * }\n * ```\n *\n * Alternatively, {ERC165Storage} provides an easier to use but more expensive implementation.\n */\nabstract contract ERC165 is IERC165 {\n    /**\n     * @dev See {IERC165-supportsInterface}.\n     */\n    function supportsInterface(bytes4 interfaceId)\n        public\n        view\n        virtual\n        override\n        returns (bool)\n    {\n        return interfaceId == type(IERC165).interfaceId;\n    }\n}\n\n// File: @openzeppelin/contracts/token/ERC721/ERC721.sol\n\n// OpenZeppelin Contracts v4.4.0 (token/ERC721/ERC721.sol)\n\npragma solidity ^0.8.0;\n\n/**\n * @dev Implementation of https://eips.ethereum.org/EIPS/eip-721[ERC721] Non-Fungible Token Standard, including\n * the Metadata extension, but not including the Enumerable extension, which is available separately as\n * {ERC721Enumerable}.\n */\ncontract ERC721 is Context, ERC165, IERC721, IERC721Metadata {\n    using Address for address;\n    using Strings for uint256;\n\n    // Token name\n    string private _name;\n\n    // Token symbol\n    string private _symbol;\n\n    // Mapping from token ID to owner address\n    mapping(uint256 => address) private _owners;\n\n    // Mapping owner address to token count\n    mapping(address => uint256) private _balances;\n\n    // Mapping from token ID to approved address\n    mapping(uint256 => address) private _tokenApprovals;\n\n    // Mapping from owner to operator approvals\n    mapping(address => mapping(address => bool)) private _operatorApprovals;\n\n    /**\n     * @dev Initializes the contract by setting a `name` and a `symbol` to the token collection.\n     */\n    constructor(string memory name_, string memory symbol_) {\n        _name = name_;\n        _symbol = symbol_;\n    }\n\n    /**\n     * @dev See {IERC165-supportsInterface}.\n     */\n    function supportsInterface(bytes4 interfaceId)\n        public\n        view\n        virtual\n        override(ERC165, IERC165)\n        returns (bool)\n    {\n        return\n            interfaceId == type(IERC721).interfaceId ||\n            interfaceId == type(IERC721Metadata).interfaceId ||\n            super.supportsInterface(interfaceId);\n    }\n\n    /**\n     * @dev See {IERC721-balanceOf}.\n     */\n    function balanceOf(address owner)\n        public\n        view\n        virtual\n        override\n        returns (uint256)\n    {\n        require(\n            owner != address(0),\n            \"ERC721: balance query for the zero address\"\n        );\n        return _balances[owner];\n    }\n\n    /**\n     * @dev See {IERC721-ownerOf}.\n     */\n    function ownerOf(uint256 tokenId)\n        public\n        view\n        virtual\n        override\n        returns (address)\n    {\n        address owner = _owners[tokenId];\n        require(\n            owner != address(0),\n            \"ERC721: owner query for nonexistent token\"\n        );\n        return owner;\n    }\n\n    /**\n     * @dev See {IERC721Metadata-name}.\n     */\n    function name() public view virtual override returns (string memory) {\n        return _name;\n    }\n\n    /**\n     * @dev See {IERC721Metadata-symbol}.\n     */\n    function symbol() public view virtual override returns (string memory) {\n        return _symbol;\n    }\n\n    /**\n     * @dev See {IERC721Metadata-tokenURI}.\n     */\n    function tokenURI(uint256 tokenId)\n        public\n        view\n        virtual\n        override\n        returns (string memory)\n    {\n        require(\n            _exists(tokenId),\n            \"ERC721Metadata: URI query for nonexistent token\"\n        );\n\n        string memory baseURI = _baseURI();\n        return\n            bytes(baseURI).length > 0\n                ? string(abi.encodePacked(baseURI, tokenId.toString()))\n                : \"\";\n    }\n\n    /**\n     * @dev Base URI for computing {tokenURI}. If set, the resulting URI for each\n     * token will be the concatenation of the `baseURI` and the `tokenId`. Empty\n     * by default, can be overriden in child contracts.\n     */\n    function _baseURI() internal view virtual returns (string memory) {\n        return \"\";\n    }\n\n    /**\n     * @dev See {IERC721-approve}.\n     */\n    function approve(address to, uint256 tokenId) public virtual override {\n        address owner = ERC721.ownerOf(tokenId);\n        require(to != owner, \"ERC721: approval to current owner\");\n\n        require(\n            _msgSender() == owner || isApprovedForAll(owner, _msgSender()),\n            \"ERC721: approve caller is not owner nor approved for all\"\n        );\n\n        _approve(to, tokenId);\n    }\n\n    /**\n     * @dev See {IERC721-getApproved}.\n     */\n    function getApproved(uint256 tokenId)\n        public\n        view\n        virtual\n        override\n        returns (address)\n    {\n        require(\n            _exists(tokenId),\n            \"ERC721: approved query for nonexistent token\"\n        );\n\n        return _tokenApprovals[tokenId];\n    }\n\n    /**\n     * @dev See {IERC721-setApprovalForAll}.\n     */\n    function setApprovalForAll(address operator, bool approved)\n        public\n        virtual\n        override\n    {\n        _setApprovalForAll(_msgSender(), operator, approved);\n    }\n\n    /**\n     * @dev See {IERC721-isApprovedForAll}.\n     */\n    function isApprovedForAll(address owner, address operator)\n        public\n        view\n        virtual\n        override\n        returns (bool)\n    {\n        return _operatorApprovals[owner][operator];\n    }\n\n    /**\n     * @dev See {IERC721-transferFrom}.\n     */\n    function transferFrom(\n        address from,\n        address to,\n        uint256 tokenId\n    ) public virtual override {\n        //solhint-disable-next-line max-line-length\n        require(\n            _isApprovedOrOwner(_msgSender(), tokenId),\n            \"ERC721: transfer caller is not owner nor approved\"\n        );\n\n        _transfer(from, to, tokenId);\n    }\n\n    /**\n     * @dev See {IERC721-safeTransferFrom}.\n     */\n    function safeTransferFrom(\n        address from,\n        address to,\n        uint256 tokenId\n    ) public virtual override {\n        safeTransferFrom(from, to, tokenId, \"\");\n    }\n\n    /**\n     * @dev See {IERC721-safeTransferFrom}.\n     */\n    function safeTransferFrom(\n        address from,\n        address to,\n        uint256 tokenId,\n        bytes memory _data\n    ) public virtual override {\n        require(\n            _isApprovedOrOwner(_msgSender(), tokenId),\n            \"ERC721: transfer caller is not owner nor approved\"\n        );\n        _safeTransfer(from, to, tokenId, _data);\n    }\n\n    /**\n     * @dev Safely transfers `tokenId` token from `from` to `to`, checking first that contract recipients\n     * are aware of the ERC721 protocol to prevent tokens from being forever locked.\n     *\n     * `_data` is additional data, it has no specified format and it is sent in call to `to`.\n     *\n     * This internal function is equivalent to {safeTransferFrom}, and can be used to e.g.\n     * implement alternative mechanisms to perform token transfer, such as signature-based.\n     *\n     * Requirements:\n     *\n     * - `from` cannot be the zero address.\n     * - `to` cannot be the zero address.\n     * - `tokenId` token must exist and be owned by `from`.\n     * - If `to` refers to a smart contract, it must implement {IERC721Receiver-onERC721Received}, which is called upon a safe transfer.\n     *\n     * Emits a {Transfer} event.\n     */\n    function _safeTransfer(\n        address from,\n        address to,\n        uint256 tokenId,\n        bytes memory _data\n    ) internal virtual {\n        _transfer(from, to, tokenId);\n        require(\n            _checkOnERC721Received(from, to, tokenId, _data),\n            \"ERC721: transfer to non ERC721Receiver implementer\"\n        );\n    }\n\n    /**\n     * @dev Returns whether `tokenId` exists.\n     *\n     * Tokens can be managed by their owner or approved accounts via {approve} or {setApprovalForAll}.\n     *\n     * Tokens start existing when they are minted (`_mint`),\n     * and stop existing when they are burned (`_burn`).\n     */\n    function _exists(uint256 tokenId) internal view virtual returns (bool) {\n        return _owners[tokenId] != address(0);\n    }\n\n    /**\n     * @dev Returns whether `spender` is allowed to manage `tokenId`.\n     *\n     * Requirements:\n     *\n     * - `tokenId` must exist.\n     */\n    function _isApprovedOrOwner(address spender, uint256 tokenId)\n        internal\n        view\n        virtual\n        returns (bool)\n    {\n        require(\n            _exists(tokenId),\n            \"ERC721: operator query for nonexistent token\"\n        );\n        address owner = ERC721.ownerOf(tokenId);\n        return (spender == owner ||\n            getApproved(tokenId) == spender ||\n            isApprovedForAll(owner, spender));\n    }\n\n    /**\n     * @dev Safely mints `tokenId` and transfers it to `to`.\n     *\n     * Requirements:\n     *\n     * - `tokenId` must not exist.\n     * - If `to` refers to a smart contract, it must implement {IERC721Receiver-onERC721Received}, which is called upon a safe transfer.\n     *\n     * Emits a {Transfer} event.\n     */\n    function _safeMint(address to, uint256 tokenId) internal virtual {\n        _safeMint(to, tokenId, \"\");\n    }\n\n    /**\n     * @dev Same as {xref-ERC721-_safeMint-address-uint256-}[`_safeMint`], with an additional `data` parameter which is\n     * forwarded in {IERC721Receiver-onERC721Received} to contract recipients.\n     */\n    function _safeMint(\n        address to,\n        uint256 tokenId,\n        bytes memory _data\n    ) internal virtual {\n        _mint(to, tokenId);\n        require(\n            _checkOnERC721Received(address(0), to, tokenId, _data),\n            \"ERC721: transfer to non ERC721Receiver implementer\"\n        );\n    }\n\n    /**\n     * @dev Mints `tokenId` and transfers it to `to`.\n     *\n     * WARNING: Usage of this method is discouraged, use {_safeMint} whenever possible\n     *\n     * Requirements:\n     *\n     * - `tokenId` must not exist.\n     * - `to` cannot be the zero address.\n     *\n     * Emits a {Transfer} event.\n     */\n    function _mint(address to, uint256 tokenId) internal virtual {\n        require(to != address(0), \"ERC721: mint to the zero address\");\n        require(!_exists(tokenId), \"ERC721: token already minted\");\n\n        _beforeTokenTransfer(address(0), to, tokenId);\n\n        _balances[to] += 1;\n        _owners[tokenId] = to;\n\n        emit Transfer(address(0), to, tokenId);\n    }\n\n    /**\n     * @dev Destroys `tokenId`.\n     * The approval is cleared when the token is burned.\n     *\n     * Requirements:\n     *\n     * - `tokenId` must exist.\n     *\n     * Emits a {Transfer} event.\n     */\n    function _burn(uint256 tokenId) internal virtual {\n        address owner = ERC721.ownerOf(tokenId);\n\n        _beforeTokenTransfer(owner, address(0), tokenId);\n\n        // Clear approvals\n        _approve(address(0), tokenId);\n\n        _balances[owner] -= 1;\n        delete _owners[tokenId];\n\n        emit Transfer(owner, address(0), tokenId);\n    }\n\n    /**\n     * @dev Transfers `tokenId` from `from` to `to`.\n     *  As opposed to {transferFrom}, this imposes no restrictions on msg.sender.\n     *\n     * Requirements:\n     *\n     * - `to` cannot be the zero address.\n     * - `tokenId` token must be owned by `from`.\n     *\n     * Emits a {Transfer} event.\n     */\n    function _transfer(\n        address from,\n        address to,\n        uint256 tokenId\n    ) internal virtual {\n        require(\n            ERC721.ownerOf(tokenId) == from,\n            \"ERC721: transfer of token that is not own\"\n        );\n        require(to != address(0), \"ERC721: transfer to the zero address\");\n\n        _beforeTokenTransfer(from, to, tokenId);\n\n        // Clear approvals from the previous owner\n        _approve(address(0), tokenId);\n\n        _balances[from] -= 1;\n        _balances[to] += 1;\n        _owners[tokenId] = to;\n\n        emit Transfer(from, to, tokenId);\n    }\n\n    /**\n     * @dev Approve `to` to operate on `tokenId`\n     *\n     * Emits a {Approval} event.\n     */\n    function _approve(address to, uint256 tokenId) internal virtual {\n        _tokenApprovals[tokenId] = to;\n        emit Approval(ERC721.ownerOf(tokenId), to, tokenId);\n    }\n\n    /**\n     * @dev Approve `operator` to operate on all of `owner` tokens\n     *\n     * Emits a {ApprovalForAll} event.\n     */\n    function _setApprovalForAll(\n        address owner,\n        address operator,\n        bool approved\n    ) internal virtual {\n        require(owner != operator, \"ERC721: approve to caller\");\n        _operatorApprovals[owner][operator] = approved;\n        emit ApprovalForAll(owner, operator, approved);\n    }\n\n    /**\n     * @dev Internal function to invoke {IERC721Receiver-onERC721Received} on a target address.\n     * The call is not executed if the target address is not a contract.\n     *\n     * @param from address representing the previous owner of the given token ID\n     * @param to target address that will receive the tokens\n     * @param tokenId uint256 ID of the token to be transferred\n     * @param _data bytes optional data to send along with the call\n     * @return bool whether the call correctly returned the expected magic value\n     */\n    function _checkOnERC721Received(\n        address from,\n        address to,\n        uint256 tokenId,\n        bytes memory _data\n    ) private returns (bool) {\n        if (to.isContract()) {\n            try\n                IERC721Receiver(to).onERC721Received(\n                    _msgSender(),\n                    from,\n                    tokenId,\n                    _data\n                )\n            returns (bytes4 retval) {\n                return retval == IERC721Receiver.onERC721Received.selector;\n            } catch (bytes memory reason) {\n                if (reason.length == 0) {\n                    revert(\n                        \"ERC721: transfer to non ERC721Receiver implementer\"\n                    );\n                } else {\n                    assembly {\n                        revert(add(32, reason), mload(reason))\n                    }\n                }\n            }\n        } else {\n            return true;\n        }\n    }\n\n    /**\n     * @dev Hook that is called before any token transfer. This includes minting\n     * and burning.\n     *\n     * Calling conditions:\n     *\n     * - When `from` and `to` are both non-zero, ``from``'s `tokenId` will be\n     * transferred to `to`.\n     * - When `from` is zero, `tokenId` will be minted for `to`.\n     * - When `to` is zero, ``from``'s `tokenId` will be burned.\n     * - `from` and `to` are never both zero.\n     *\n     * To learn more about hooks, head to xref:ROOT:extending-contracts.adoc#using-hooks[Using Hooks].\n     */\n    function _beforeTokenTransfer(\n        address from,\n        address to,\n        uint256 tokenId\n    ) internal virtual {}\n}\n\n// File: @openzeppelin/contracts/token/ERC721/extensions/ERC721URIStorage.sol\n\n// OpenZeppelin Contracts v4.4.0 (token/ERC721/extensions/ERC721URIStorage.sol)\n\npragma solidity ^0.8.0;\n\n/**\n * @dev ERC721 token with storage based token URI management.\n */\nabstract contract ERC721URIStorage is ERC721 {\n    using Strings for uint256;\n\n    // Optional mapping for token URIs\n    mapping(uint256 => string) private _tokenURIs;\n\n    /**\n     * @dev See {IERC721Metadata-tokenURI}.\n     */\n    function tokenURI(uint256 tokenId)\n        public\n        view\n        virtual\n        override\n        returns (string memory)\n    {\n        require(\n            _exists(tokenId),\n            \"ERC721URIStorage: URI query for nonexistent token\"\n        );\n\n        string memory _tokenURI = _tokenURIs[tokenId];\n        string memory base = _baseURI();\n\n        // If there is no base URI, return the token URI.\n        if (bytes(base).length == 0) {\n            return _tokenURI;\n        }\n        // If both are set, concatenate the baseURI and tokenURI (via abi.encodePacked).\n        if (bytes(_tokenURI).length > 0) {\n            return string(abi.encodePacked(base, _tokenURI));\n        }\n\n        return super.tokenURI(tokenId);\n    }\n\n    /**\n     * @dev Sets `_tokenURI` as the tokenURI of `tokenId`.\n     *\n     * Requirements:\n     *\n     * - `tokenId` must exist.\n     */\n    function _setTokenURI(uint256 tokenId, string memory _tokenURI)\n        internal\n        virtual\n    {\n        require(\n            _exists(tokenId),\n            \"ERC721URIStorage: URI set of nonexistent token\"\n        );\n        _tokenURIs[tokenId] = _tokenURI;\n    }\n\n    /**\n     * @dev Destroys `tokenId`.\n     * The approval is cleared when the token is burned.\n     *\n     * Requirements:\n     *\n     * - `tokenId` must exist.\n     *\n     * Emits a {Transfer} event.\n     */\n    function _burn(uint256 tokenId) internal virtual override {\n        super._burn(tokenId);\n\n        if (bytes(_tokenURIs[tokenId]).length != 0) {\n            delete _tokenURIs[tokenId];\n        }\n    }\n}\n\n// File: backup/NFTtheWorld.sol\n\n// SPDX-License-Identifier: MIT\n// SPDX-FileCopyrightText: 2021 Berinike Tech <tech@campus.tu-berlin.de>, Jannis Pilgrim <j.pilgrim@campus.tu-berlin.de>\n\npragma solidity ^0.8.0;\n\ncontract NFTtheWorld {\n    address payable nftOwner;\n\n    uint256 percentageLimit;\n\n    address public user;\n\n    uint256 public numberOfDrops;\n\n    struct NFTOwnership {\n        address payable owner;\n        string uri;\n        uint256 dropId;\n        uint256 dropTime;\n        address reservedFor;\n        uint256 weiPrice;\n        string nftSymbol;\n        string nftName;\n    }\n\n    // To check if an address is an admin\n    mapping(address => bool) private isAdminAddress;\n    // Dictionary of form <dropHash>: list of NFTOwnerships\n    mapping(uint256 => NFTOwnership[]) private nftOwnerships;\n    // Dictionary of form <user address>: <<dropHash>: <number of reserved NFTs>>\n    mapping(address => mapping(uint256 => uint256)) private nftReservations;\n    // Dictionary of form <dropHash>: <list of nftHashes>\n    mapping(uint256 => string[]) private availableNFTs;\n    // Dictionary of form  <dropHash>: <nftCount>\n    mapping(uint256 => uint256) private availableNFTsCount;\n    // Dictionary of form <dropHash>: <maximal number of NFTs a user can reserve/buy from this drop>\n    mapping(uint256 => uint256) private maxNumberOfNFTsToBuy;\n    // Dictionary of form <dropHash>: <number of NFTs that have been requested by users>\n    mapping(uint256 => uint256) private reservedNFTsCount;\n\n    mapping(address => mapping(uint256 => string[]))\n        private nftReservationInformationOfUsers;\n    mapping(address => uint256[]) public nftAssetsInformationOfUsers;\n\n    // Used to track which addresses have joined the drop\n    mapping(uint256 => address[]) private joinedUsers;\n\n    //TODO add all of us in list of admins\n    constructor() {\n        isAdminAddress[msg.sender] = true;\n    }\n\n    // This function lets a user create a drop by specifiyng a drop time and the number of available NFTs.\n    // During the creation of the drop, the maximum number of NFTs a user can reserve/buy in this drop is calculated.\n    // It is one for a total number of NFTs lower than 20 and 5% otherwise.\n    function createDrop(\n        uint256 _dropTime,\n        string[] memory _uris,\n        uint256 _weiPrice,\n        string memory _nftName,\n        string memory _nftSymbol\n    ) public onlyByAdmins {\n        uint256 dropHash = numberOfDrops;\n\n        for (uint256 i = 0; i < _uris.length; i++) {\n            NFTOwnership memory nftOwnership;\n            nftOwnership.uri = _uris[i];\n            nftOwnership.owner = payable(msg.sender);\n            nftOwnership.reservedFor = msg.sender;\n            nftOwnership.dropTime = _dropTime;\n            nftOwnership.dropId = dropHash;\n            nftOwnership.weiPrice = _weiPrice;\n            nftOwnership.nftName = _nftName;\n            nftOwnership.nftSymbol = _nftSymbol;\n            nftOwnerships[dropHash].push(nftOwnership);\n            availableNFTs[dropHash].push(_uris[i]);\n        }\n\n        // We need to let users buy 1 NFT instead of 5% if there are less than 20\n        if (_uris.length < 20) {\n            maxNumberOfNFTsToBuy[dropHash] = 1;\n        } else {\n            maxNumberOfNFTsToBuy[dropHash] = (_uris.length * 5) / 100;\n        }\n        availableNFTsCount[dropHash] = availableNFTs[dropHash].length;\n        //TODO create mapping creator address -> dropHashes\n        numberOfDrops += 1;\n        reservedNFTsCount[dropHash] = 0;\n    }\n\n    // This function lets a user join a drop by specifying the number of NFTs she would like to reserve.\n    function joinDrop(uint256 _numberOfNFTs, uint256 _dropHash) public {\n        require(\n            reservedNFTsCount[_dropHash] != availableNFTs[_dropHash].length,\n            \"Cannot join the drop anymore.\"\n        );\n        require(\n            _numberOfNFTs <= maxNumberOfNFTsToBuy[_dropHash],\n            \"Sorry, you can't reserve more that 5% of the NFTs.\"\n        );\n        // We have to make sure that not more NFTs get reserved by users than we have NFTs available\n        require(\n            _numberOfNFTs <=\n                availableNFTs[_dropHash].length - reservedNFTsCount[_dropHash],\n            \"Sorry, not enough NFTs left for your request\"\n        );\n        reservedNFTsCount[_dropHash] += _numberOfNFTs;\n        nftReservations[msg.sender][_dropHash] = _numberOfNFTs;\n        joinedUsers[_dropHash].push(msg.sender);\n    }\n\n    // This function executes a drop.\n    // During the execution all joined users get their previously specificed number of NFTs randomly assigned.\n    // To make sure no NFT gets assigned to multiple users, it is removed from the list of available NFTs.\n    function drop(uint256 _dropHash) public {\n        require(\n            nftOwnerships[_dropHash][0].dropTime <= block.timestamp,\n            \"Droptime not yet reached!\"\n        );\n        for (uint256 i = 0; i < joinedUsers[_dropHash].length; i++) {\n            shuffle(_dropHash);\n            // loop trough the number of NFTs j reserved by user i\n            for (\n                uint256 j = 0;\n                j < nftReservations[joinedUsers[_dropHash][i]][_dropHash];\n                j++\n            ) {\n                uint256 nftElement = getNFTIndex(\n                    availableNFTs[_dropHash][j],\n                    _dropHash\n                );\n                nftOwnerships[_dropHash][nftElement].reservedFor = joinedUsers[\n                    _dropHash\n                ][i];\n                nftReservationInformationOfUsers[joinedUsers[_dropHash][i]][\n                    _dropHash\n                ].push(nftOwnerships[_dropHash][nftElement].uri);\n                remove(j, _dropHash);\n            }\n        }\n    }\n\n    // This function lets a user buy her reserved NFTs\n    //TODO: Think about a time span during which the reserved NFTs have to be bought\n    function buyNFT(uint256 _dropHash) public payable {\n        require(\n            nftOwnerships[_dropHash][0].dropTime <= block.timestamp,\n            \"Droptime not yet reached!\"\n        );\n        require(\n            nftOwnerships[_dropHash][0].weiPrice *\n                nftReservationInformationOfUsers[msg.sender][_dropHash]\n                    .length <=\n                msg.value,\n            \"Not enough funds\"\n        );\n        for (\n            uint256 i;\n            i < nftReservationInformationOfUsers[msg.sender][_dropHash].length;\n            i++\n        ) {\n            string storage uri = nftReservationInformationOfUsers[msg.sender][\n                _dropHash\n            ][i];\n            uint256 nftIndex = getNFTIndex(uri, _dropHash);\n            MintTheWorld tokenContract;\n            tokenContract = new MintTheWorld(\n                nftOwnerships[_dropHash][nftIndex].nftName,\n                nftOwnerships[_dropHash][nftIndex].nftSymbol\n            );\n            uint256 nftToken = tokenContract.mintNFT(uri, msg.sender);\n            nftOwnerships[_dropHash][nftIndex].owner.transfer(\n                nftOwnerships[_dropHash][nftIndex].weiPrice\n            );\n            nftOwnerships[_dropHash][nftIndex].owner = payable(msg.sender);\n            nftAssetsInformationOfUsers[msg.sender].push(nftToken);\n        }\n    }\n\n    // Helper function to created hashes\n    function generateRandomNumber(uint256 number)\n        internal\n        view\n        returns (uint256)\n    {\n        uint256 randomNumber = uint256(\n            keccak256(abi.encodePacked(block.timestamp, block.number, number))\n        ) % 1000;\n        return randomNumber;\n    }\n\n    // Helper function to remove NFT from list of available NFTs\n    function remove(uint256 _index, uint256 _dropHash) internal {\n        if (_index >= availableNFTs[_dropHash].length) return;\n\n        for (uint256 i = _index; i < availableNFTs[_dropHash].length - 1; i++) {\n            availableNFTs[_dropHash][i] = availableNFTs[_dropHash][i + 1];\n        }\n        availableNFTs[_dropHash].pop();\n        availableNFTsCount[_dropHash] = availableNFTs[_dropHash].length;\n    }\n\n    // Helper function to shuffle a list\n    function shuffle(uint256 _dropHash) internal {\n        for (uint256 i = 0; i < availableNFTs[_dropHash].length; i++) {\n            uint256 n = i +\n                (uint256(keccak256(abi.encodePacked(block.timestamp))) %\n                    (availableNFTs[_dropHash].length - i));\n            string memory temp = availableNFTs[_dropHash][n];\n            availableNFTs[_dropHash][n] = availableNFTs[_dropHash][i];\n            availableNFTs[_dropHash][i] = temp;\n        }\n    }\n\n    function getNFTIndex(string memory _uri, uint256 _dropHash)\n        internal\n        view\n        returns (uint256 index)\n    {\n        NFTOwnership[] memory nfts = nftOwnerships[_dropHash];\n        for (uint256 i = 0; i < nfts.length; i++) {\n            if (compareStrings(nfts[i].uri, _uri)) {\n                return i;\n            }\n        }\n    }\n\n    function compareStrings(string memory a, string memory b)\n        private\n        pure\n        returns (bool)\n    {\n        return (keccak256(abi.encodePacked((a))) ==\n            keccak256(abi.encodePacked((b))));\n    }\n\n    function getDropTime(uint256 _dropHash)\n        public\n        view\n        returns (uint256 dropTime)\n    {\n        return nftOwnerships[_dropHash][0].dropTime;\n    }\n\n    // Modifier to check if msg.sender is elligible\n    modifier onlyByAdmins() {\n        require(isAdminAddress[msg.sender] == true, \"Your are not elligible\");\n        _;\n    }\n\n    function addToAdmins(address payable _addressToAdd) public onlyByAdmins {\n        isAdminAddress[_addressToAdd] = true;\n    }\n\n    //Restriction to not remove oneself from admin list has been commented out for testing reasons, but generally is desired\n    function removeFromAdmins(address payable _addressToRemove)\n        public\n        onlyByAdmins\n    {\n        require(msg.sender != _addressToRemove, \"You can't remove yourself\");\n        isAdminAddress[_addressToRemove] = false;\n    }\n}\n\ncontract MintTheWorld is ERC721URIStorage {\n    uint256 public tokenCounter;\n\n    constructor(string memory nftName, string memory nftSymbol)\n        ERC721(nftName, nftSymbol)\n    {\n        tokenCounter = 0;\n    }\n\n    function mintNFT(string memory tokenURI, address receiver)\n        public\n        returns (uint256)\n    {\n        uint256 newItemId = generateRandomNumber(tokenCounter);\n        tokenCounter = tokenCounter + 1;\n        _safeMint(receiver, newItemId);\n        _setTokenURI(newItemId, tokenURI);\n\n        return newItemId;\n    }\n\n    // Helper function to created hashes\n    function generateRandomNumber(uint256 number)\n        internal\n        view\n        returns (uint256)\n    {\n        uint256 randomNumber = uint256(\n            keccak256(abi.encodePacked(block.timestamp, block.number, number))\n        );\n        return randomNumber;\n    }\n}\n",
  "sourcePath": "/Users/nike/nft-project/amos2021ws07-nft-development/blockchain/contracts/FlatNFTtheWorld.sol",
  "compiler": {
    "name": "solc",
    "version": "0.8.10+commit.fc410830.Emscripten.clang"
  },
  "schemaVersion": "3.4.3",
  "updatedAt": "2021-12-07T23:41:53.804Z",
  "networkType": "ethereum",
  "devdoc": {
    "kind": "dev",
    "methods": {},
    "version": 1
  },
  "userdoc": {
    "kind": "user",
    "methods": {},
    "version": 1
  }
}