{
  "contractName": "NFTtheWorld",
  "abi": [
    {
      "inputs": [],
      "stateMutability": "nonpayable",
      "type": "constructor"
    },
    {
      "inputs": [
        {
          "internalType": "uint256",
          "name": "",
          "type": "uint256"
        }
      ],
      "name": "dropData",
      "outputs": [
        {
          "internalType": "address",
          "name": "creator",
          "type": "address"
        },
        {
          "internalType": "string",
          "name": "nftSymbol",
          "type": "string"
        },
        {
          "internalType": "string",
          "name": "nftName",
          "type": "string"
        },
        {
          "internalType": "uint256",
          "name": "numberOfURIs",
          "type": "uint256"
        }
      ],
      "stateMutability": "view",
      "type": "function",
      "constant": true
    },
    {
      "inputs": [
        {
          "internalType": "uint256",
          "name": "",
          "type": "uint256"
        },
        {
          "internalType": "uint256",
          "name": "",
          "type": "uint256"
        }
      ],
      "name": "dropURIs",
      "outputs": [
        {
          "internalType": "string",
          "name": "",
          "type": "string"
        }
      ],
      "stateMutability": "view",
      "type": "function",
      "constant": true
    },
    {
      "inputs": [],
      "name": "numberOfDrops",
      "outputs": [
        {
          "internalType": "uint256",
          "name": "",
          "type": "uint256"
        }
      ],
      "stateMutability": "view",
      "type": "function",
      "constant": true
    },
    {
      "inputs": [],
      "name": "user",
      "outputs": [
        {
          "internalType": "address",
          "name": "",
          "type": "address"
        }
      ],
      "stateMutability": "view",
      "type": "function",
      "constant": true
    },
    {
      "inputs": [
        {
          "internalType": "address",
          "name": "_address",
          "type": "address"
        }
      ],
      "name": "setFactoryInterface",
      "outputs": [],
      "stateMutability": "nonpayable",
      "type": "function"
    },
    {
      "inputs": [
        {
          "internalType": "uint256",
          "name": "_dropTime",
          "type": "uint256"
        },
        {
          "internalType": "string[]",
          "name": "_uris",
          "type": "string[]"
        },
        {
          "internalType": "uint256",
          "name": "_weiPrice",
          "type": "uint256"
        },
        {
          "internalType": "uint256",
          "name": "_reservationTimeoutSeconds",
          "type": "uint256"
        },
        {
          "internalType": "string",
          "name": "_nftName",
          "type": "string"
        },
        {
          "internalType": "string",
          "name": "_nftSymbol",
          "type": "string"
        }
      ],
      "name": "createDrop",
      "outputs": [],
      "stateMutability": "nonpayable",
      "type": "function"
    },
    {
      "inputs": [
        {
          "internalType": "uint256",
          "name": "_numberOfNFTs",
          "type": "uint256"
        },
        {
          "internalType": "uint256",
          "name": "_dropHash",
          "type": "uint256"
        }
      ],
      "name": "joinDrop",
      "outputs": [],
      "stateMutability": "nonpayable",
      "type": "function"
    },
    {
      "inputs": [
        {
          "internalType": "uint256",
          "name": "_dropHash",
          "type": "uint256"
        }
      ],
      "name": "drop",
      "outputs": [],
      "stateMutability": "nonpayable",
      "type": "function"
    },
    {
      "inputs": [
        {
          "internalType": "uint256",
          "name": "_dropHash",
          "type": "uint256"
        }
      ],
      "name": "buyNFT",
      "outputs": [],
      "stateMutability": "payable",
      "type": "function",
      "payable": true
    },
    {
      "inputs": [
        {
          "internalType": "uint256",
          "name": "_dropHash",
          "type": "uint256"
        }
      ],
      "name": "revertTimedoutReservations",
      "outputs": [
        {
          "internalType": "uint256",
          "name": "",
          "type": "uint256"
        }
      ],
      "stateMutability": "nonpayable",
      "type": "function"
    },
    {
      "inputs": [
        {
          "internalType": "uint256",
          "name": "_dropHash",
          "type": "uint256"
        }
      ],
      "name": "getNotBoughtNFTs",
      "outputs": [
        {
          "internalType": "string[]",
          "name": "notBought",
          "type": "string[]"
        }
      ],
      "stateMutability": "view",
      "type": "function",
      "constant": true
    },
    {
      "inputs": [
        {
          "internalType": "uint256",
          "name": "_dropHash",
          "type": "uint256"
        }
      ],
      "name": "getDropTime",
      "outputs": [
        {
          "internalType": "uint256",
          "name": "dropTime",
          "type": "uint256"
        }
      ],
      "stateMutability": "view",
      "type": "function",
      "constant": true
    },
    {
      "inputs": [
        {
          "internalType": "address payable",
          "name": "_addressToAdd",
          "type": "address"
        }
      ],
      "name": "addToAdmins",
      "outputs": [],
      "stateMutability": "nonpayable",
      "type": "function"
    },
    {
      "inputs": [
        {
          "internalType": "address payable",
          "name": "_addressToRemove",
          "type": "address"
        }
      ],
      "name": "removeFromAdmins",
      "outputs": [],
      "stateMutability": "nonpayable",
      "type": "function"
    }
  ],
  "bytecode": "0x608060405234801561001057600080fd5b506001600460003373ffffffffffffffffffffffffffffffffffffffff1673ffffffffffffffffffffffffffffffffffffffff16815260200190815260200160002060006101000a81548160ff021916908315150217905550613e5f806100786000396000f3fe6080604052600436106100dd5760003560e01c80635b10dcb81161007f578063826396f611610059578063826396f6146102af57806394f4307a146102ef578063a8a5afe81461032c578063ee5fdf8614610355576100dd565b80635b10dcb81461021e57806367a57d971461024757806381de5bd914610284576100dd565b80632ef06531116100bb5780632ef06531146101715780634488750e146101ae5780634f8632ba146101d757806351ed828814610202576100dd565b806319afa824146100e2578063211d9a531461010b578063265993cb14610134575b600080fd5b3480156100ee57600080fd5b5061010960048036038101906101049190612ed1565b61037e565b005b34801561011757600080fd5b50610132600480360381019061012d9190612f34565b610454565b005b34801561014057600080fd5b5061015b60048036038101906101569190612f61565b6108ef565b604051610168919061303a565b60405180910390f35b34801561017d57600080fd5b5061019860048036038101906101939190612f34565b6109a8565b6040516101a59190613168565b60405180910390f35b3480156101ba57600080fd5b506101d560048036038101906101d091906131c8565b610f34565b005b3480156101e357600080fd5b506101ec611022565b6040516101f99190613204565b60405180910390f35b61021c60048036038101906102179190612f34565b611048565b005b34801561022a57600080fd5b50610245600480360381019061024091906131c8565b61155b565b005b34801561025357600080fd5b5061026e60048036038101906102699190612f34565b6116b8565b60405161027b919061322e565b60405180910390f35b34801561029057600080fd5b50610299611c4f565b6040516102a6919061322e565b60405180910390f35b3480156102bb57600080fd5b506102d660048036038101906102d19190612f34565b611c55565b6040516102e69493929190613249565b60405180910390f35b3480156102fb57600080fd5b5061031660048036038101906103119190612f34565b611db5565b604051610323919061322e565b60405180910390f35b34801561033857600080fd5b50610353600480360381019061034e9190612f61565b611df6565b005b34801561036157600080fd5b5061037c600480360381019061037791906134b7565b612026565b005b60011515600460003373ffffffffffffffffffffffffffffffffffffffff1673ffffffffffffffffffffffffffffffffffffffff16815260200190815260200160002060009054906101000a900460ff16151514610411576040517f08c379a0000000000000000000000000000000000000000000000000000000008152600401610408906135e4565b60405180910390fd5b806000806101000a81548173ffffffffffffffffffffffffffffffffffffffff021916908373ffffffffffffffffffffffffffffffffffffffff16021790555050565b426005600083815260200190815260200160002060008154811061047b5761047a613604565b5b90600052602060002090600a02016003015411156104ce576040517f08c379a00000000000000000000000000000000000000000000000000000000081526004016104c59061367f565b60405180910390fd5b60005b600e6000838152602001908152602001600020805490508110156108eb576104f882612544565b60005b60066000600e6000868152602001908152602001600020848154811061052457610523613604565b5b9060005260206000200160009054906101000a900473ffffffffffffffffffffffffffffffffffffffff1673ffffffffffffffffffffffffffffffffffffffff1673ffffffffffffffffffffffffffffffffffffffff1681526020019081526020016000206000848152602001908152602001600020548110156108d75760006106656007600086815260200190815260200160002083815481106105cc576105cb613604565b5b9060005260206000200180546105e1906136ce565b80601f016020809104026020016040519081016040528092919081815260200182805461060d906136ce565b801561065a5780601f1061062f5761010080835404028352916020019161065a565b820191906000526020600020905b81548152906001019060200180831161063d57829003601f168201915b505050505085612759565b9050600e6000858152602001908152602001600020838154811061068c5761068b613604565b5b9060005260206000200160009054906101000a900473ffffffffffffffffffffffffffffffffffffffff166005600086815260200190815260200160002082815481106106dc576106db613604565b5b90600052602060002090600a020160060160006101000a81548173ffffffffffffffffffffffffffffffffffffffff021916908373ffffffffffffffffffffffffffffffffffffffff1602179055504260056000868152602001908152602001600020828154811061075157610750613604565b5b90600052602060002090600a02016005015461076d919061372f565b60056000868152602001908152602001600020828154811061079257610791613604565b5b90600052602060002090600a020160040181905550600d6000600e600087815260200190815260200160002085815481106107d0576107cf613604565b5b9060005260206000200160009054906101000a900473ffffffffffffffffffffffffffffffffffffffff1673ffffffffffffffffffffffffffffffffffffffff1673ffffffffffffffffffffffffffffffffffffffff168152602001908152602001600020600085815260200190815260200160002060056000868152602001908152602001600020828154811061086b5761086a613604565b5b90600052602060002090600a0201600101908060018154018082558091505060019003906000526020600020016000909190919091509080546108ad906136ce565b6108b8929190612c70565b506108c38285612abb565b5080806108cf90613785565b9150506104fb565b5080806108e390613785565b9150506104d1565b5050565b600c602052816000526040600020818154811061090b57600080fd5b90600052602060002001600091509150508054610927906136ce565b80601f0160208091040260200160405190810160405280929190818152602001828054610953906136ce565b80156109a05780601f10610975576101008083540402835291602001916109a0565b820191906000526020600020905b81548152906001019060200180831161098357829003601f168201915b505050505081565b60606000600560008481526020019081526020016000206000815481106109d2576109d1613604565b5b90600052602060002090600a02016004015410158015610a2957504260056000848152602001908152602001600020600081548110610a1457610a13613604565b5b90600052602060002090600a02016004015411155b610a68576040517f08c379a0000000000000000000000000000000000000000000000000000000008152600401610a5f90613840565b60405180910390fd5b600060056000848152602001908152602001600020805480602002602001604051908101604052809291908181526020016000905b82821015610d6457838290600052602060002090600a0201604051806101400160405290816000820160009054906101000a900473ffffffffffffffffffffffffffffffffffffffff1673ffffffffffffffffffffffffffffffffffffffff1673ffffffffffffffffffffffffffffffffffffffff168152602001600182018054610b27906136ce565b80601f0160208091040260200160405190810160405280929190818152602001828054610b53906136ce565b8015610ba05780601f10610b7557610100808354040283529160200191610ba0565b820191906000526020600020905b815481529060010190602001808311610b8357829003601f168201915b50505050508152602001600282015481526020016003820154815260200160048201548152602001600582015481526020016006820160009054906101000a900473ffffffffffffffffffffffffffffffffffffffff1673ffffffffffffffffffffffffffffffffffffffff1673ffffffffffffffffffffffffffffffffffffffff16815260200160078201548152602001600882018054610c41906136ce565b80601f0160208091040260200160405190810160405280929190818152602001828054610c6d906136ce565b8015610cba5780601f10610c8f57610100808354040283529160200191610cba565b820191906000526020600020905b815481529060010190602001808311610c9d57829003601f168201915b50505050508152602001600982018054610cd3906136ce565b80601f0160208091040260200160405190810160405280929190818152602001828054610cff906136ce565b8015610d4c5780601f10610d2157610100808354040283529160200191610d4c565b820191906000526020600020905b815481529060010190602001808311610d2f57829003601f168201915b50505050508152505081526020019060010190610a9d565b5050505090506000815167ffffffffffffffff811115610d8757610d866132a1565b5b604051908082528060200260200182016040528015610dba57816020015b6060815260200190600190039081610da55790505b5090506000805b8351811015610e7b573373ffffffffffffffffffffffffffffffffffffffff16848281518110610df457610df3613604565b5b60200260200101516000015173ffffffffffffffffffffffffffffffffffffffff161415610e6857838181518110610e2f57610e2e613604565b5b602002602001015160200151838381518110610e4e57610e4d613604565b5b60200260200101819052508180610e6490613785565b9250505b8080610e7390613785565b915050610dc1565b506000825167ffffffffffffffff811115610e9957610e986132a1565b5b604051908082528060200260200182016040528015610ecc57816020015b6060815260200190600190039081610eb75790505b50905060005b8351811015610f2757838181518110610eee57610eed613604565b5b6020026020010151828281518110610f0957610f08613604565b5b60200260200101819052508080610f1f90613785565b915050610ed2565b5080945050505050919050565b60011515600460003373ffffffffffffffffffffffffffffffffffffffff1673ffffffffffffffffffffffffffffffffffffffff16815260200190815260200160002060009054906101000a900460ff16151514610fc7576040517f08c379a0000000000000000000000000000000000000000000000000000000008152600401610fbe906135e4565b60405180910390fd5b6001600460008373ffffffffffffffffffffffffffffffffffffffff1673ffffffffffffffffffffffffffffffffffffffff16815260200190815260200160002060006101000a81548160ff02191690831515021790555050565b600260009054906101000a900473ffffffffffffffffffffffffffffffffffffffff1681565b426005600083815260200190815260200160002060008154811061106f5761106e613604565b5b90600052602060002090600a02016003015411156110c2576040517f08c379a00000000000000000000000000000000000000000000000000000000081526004016110b99061367f565b60405180910390fd5b34600d60003373ffffffffffffffffffffffffffffffffffffffff1673ffffffffffffffffffffffffffffffffffffffff1681526020019081526020016000206000838152602001908152602001600020805490506005600084815260200190815260200160002060008154811061113d5761113c613604565b5b90600052602060002090600a0201600701546111599190613860565b111561119a576040517f08c379a000000000000000000000000000000000000000000000000000000000815260040161119190613906565b60405180910390fd5b60005b600d60003373ffffffffffffffffffffffffffffffffffffffff1673ffffffffffffffffffffffffffffffffffffffff168152602001908152602001600020600083815260200190815260200160002080549050811015611557576000600d60003373ffffffffffffffffffffffffffffffffffffffff1673ffffffffffffffffffffffffffffffffffffffff1681526020019081526020016000206000848152602001908152602001600020828154811061125c5761125b613604565b5b90600052602060002001905060006112fd828054611279906136ce565b80601f01602080910402602001604051908101604052809291908181526020018280546112a5906136ce565b80156112f25780601f106112c7576101008083540402835291602001916112f2565b820191906000526020600020905b8154815290600101906020018083116112d557829003601f168201915b505050505085612759565b905060008054906101000a900473ffffffffffffffffffffffffffffffffffffffff1673ffffffffffffffffffffffffffffffffffffffff16637b155afa8360056000888152602001908152602001600020848154811061136157611360613604565b5b90600052602060002090600a020160090160056000898152602001908152602001600020858154811061139757611396613604565b5b90600052602060002090600a0201600801336040518563ffffffff1660e01b81526004016113c89493929190613a50565b600060405180830381600087803b1580156113e257600080fd5b505af11580156113f6573d6000803e3d6000fd5b5050505060056000858152602001908152602001600020818154811061141f5761141e613604565b5b90600052602060002090600a020160000160009054906101000a900473ffffffffffffffffffffffffffffffffffffffff1673ffffffffffffffffffffffffffffffffffffffff166108fc60056000878152602001908152602001600020838154811061148f5761148e613604565b5b90600052602060002090600a0201600701549081150290604051600060405180830381858888f193505050501580156114cc573d6000803e3d6000fd5b50336005600086815260200190815260200160002082815481106114f3576114f2613604565b5b90600052602060002090600a020160000160006101000a81548173ffffffffffffffffffffffffffffffffffffffff021916908373ffffffffffffffffffffffffffffffffffffffff1602179055505050808061154f90613785565b91505061119d565b5050565b60011515600460003373ffffffffffffffffffffffffffffffffffffffff1673ffffffffffffffffffffffffffffffffffffffff16815260200190815260200160002060009054906101000a900460ff161515146115ee576040517f08c379a00000000000000000000000000000000000000000000000000000000081526004016115e5906135e4565b60405180910390fd5b8073ffffffffffffffffffffffffffffffffffffffff163373ffffffffffffffffffffffffffffffffffffffff16141561165d576040517f08c379a000000000000000000000000000000000000000000000000000000000815260040161165490613af6565b60405180910390fd5b6000600460008373ffffffffffffffffffffffffffffffffffffffff1673ffffffffffffffffffffffffffffffffffffffff16815260200190815260200160002060006101000a81548160ff02191690831515021790555050565b6000806000905060005b6005600085815260200190815260200160002080549050811015611c4557600060056000868152602001908152602001600020828154811061170757611706613604565b5b90600052602060002090600a0201600401541015801561175d57504260056000868152602001908152602001600020828154811061174857611747613604565b5b90600052602060002090600a02016004015411155b8015611841575060056000858152602001908152602001600020818154811061178957611788613604565b5b90600052602060002090600a020160060160009054906101000a900473ffffffffffffffffffffffffffffffffffffffff1673ffffffffffffffffffffffffffffffffffffffff166005600086815260200190815260200160002082815481106117f6576117f5613604565b5b90600052602060002090600a020160000160009054906101000a900473ffffffffffffffffffffffffffffffffffffffff1673ffffffffffffffffffffffffffffffffffffffff1614155b15611c3257600d600060056000878152602001908152602001600020838154811061186f5761186e613604565b5b90600052602060002090600a020160060160009054906101000a900473ffffffffffffffffffffffffffffffffffffffff1673ffffffffffffffffffffffffffffffffffffffff1673ffffffffffffffffffffffffffffffffffffffff16815260200190815260200160002060008581526020019081526020016000208054806118fc576118fb613b16565b5b6001900381819060005260206000200160006119189190612cfd565b9055600060056000868152602001908152602001600020828154811061194157611940613604565b5b90600052602060002090600a0201600401819055506006600060056000878152602001908152602001600020838154811061197f5761197e613604565b5b90600052602060002090600a020160060160009054906101000a900473ffffffffffffffffffffffffffffffffffffffff1673ffffffffffffffffffffffffffffffffffffffff1673ffffffffffffffffffffffffffffffffffffffff168152602001908152602001600020600085815260200190815260200160002054600a60008681526020019081526020016000206000828254611a1f9190613b45565b92505081905550600060066000600560008881526020019081526020016000208481548110611a5157611a50613604565b5b90600052602060002090600a020160060160009054906101000a900473ffffffffffffffffffffffffffffffffffffffff1673ffffffffffffffffffffffffffffffffffffffff1673ffffffffffffffffffffffffffffffffffffffff168152602001908152602001600020600086815260200190815260200160002081905550600560008581526020019081526020016000208181548110611af757611af6613604565b5b90600052602060002090600a020160000160009054906101000a900473ffffffffffffffffffffffffffffffffffffffff16600560008681526020019081526020016000208281548110611b4e57611b4d613604565b5b90600052602060002090600a020160060160006101000a81548173ffffffffffffffffffffffffffffffffffffffff021916908373ffffffffffffffffffffffffffffffffffffffff16021790555060076000858152602001908152602001600020600560008681526020019081526020016000208281548110611bd557611bd4613604565b5b90600052602060002090600a020160010190806001815401808255809150506001900390600052602060002001600090919091909150908054611c17906136ce565b611c22929190612c70565b508180611c2e90613785565b9250505b8080611c3d90613785565b9150506116c2565b5080915050919050565b60035481565b600b6020528060005260406000206000915090508060000160009054906101000a900473ffffffffffffffffffffffffffffffffffffffff1690806001018054611c9e906136ce565b80601f0160208091040260200160405190810160405280929190818152602001828054611cca906136ce565b8015611d175780601f10611cec57610100808354040283529160200191611d17565b820191906000526020600020905b815481529060010190602001808311611cfa57829003601f168201915b505050505090806002018054611d2c906136ce565b80601f0160208091040260200160405190810160405280929190818152602001828054611d58906136ce565b8015611da55780601f10611d7a57610100808354040283529160200191611da5565b820191906000526020600020905b815481529060010190602001808311611d8857829003601f168201915b5050505050908060030154905084565b600060056000838152602001908152602001600020600081548110611ddd57611ddc613604565b5b90600052602060002090600a0201600301549050919050565b6007600082815260200190815260200160002080549050600a6000838152602001908152602001600020541415611e62576040517f08c379a0000000000000000000000000000000000000000000000000000000008152600401611e5990613bc5565b60405180910390fd5b6009600082815260200190815260200160002054821115611eb8576040517f08c379a0000000000000000000000000000000000000000000000000000000008152600401611eaf90613c57565b60405180910390fd5b600a6000828152602001908152602001600020546007600083815260200190815260200160002080549050611eed9190613b45565b821115611f2f576040517f08c379a0000000000000000000000000000000000000000000000000000000008152600401611f2690613ce9565b60405180910390fd5b81600a60008381526020019081526020016000206000828254611f52919061372f565b9250508190555081600660003373ffffffffffffffffffffffffffffffffffffffff1673ffffffffffffffffffffffffffffffffffffffff168152602001908152602001600020600083815260200190815260200160002081905550600e6000828152602001908152602001600020339080600181540180825580915050600190039060005260206000200160009091909190916101000a81548173ffffffffffffffffffffffffffffffffffffffff021916908373ffffffffffffffffffffffffffffffffffffffff1602179055505050565b60011515600460003373ffffffffffffffffffffffffffffffffffffffff1673ffffffffffffffffffffffffffffffffffffffff16815260200190815260200160002060009054906101000a900460ff161515146120b9576040517f08c379a00000000000000000000000000000000000000000000000000000000081526004016120b0906135e4565b60405180910390fd5b600060035490506000600b60008381526020019081526020016000209050338160000160006101000a81548173ffffffffffffffffffffffffffffffffffffffff021916908373ffffffffffffffffffffffffffffffffffffffff16021790555082816001019080519060200190612132929190612d3d565b508381600201908051906020019061214b929190612d3d565b508651816003018190555060005b875181101561247e5761216a612dc3565b88828151811061217d5761217c613604565b5b6020026020010151816020018190525033816000019073ffffffffffffffffffffffffffffffffffffffff16908173ffffffffffffffffffffffffffffffffffffffff1681525050338160c0019073ffffffffffffffffffffffffffffffffffffffff16908173ffffffffffffffffffffffffffffffffffffffff1681525050898160600181815250506000816080018181525050868160a001818152505083816040018181525050878160e00181815250508581610120018190525084816101000181905250600560008581526020019081526020016000208190806001815401808255809150506001900390600052602060002090600a020160009091909190915060008201518160000160006101000a81548173ffffffffffffffffffffffffffffffffffffffff021916908373ffffffffffffffffffffffffffffffffffffffff16021790555060208201518160010190805190602001906122e4929190612d3d565b5060408201518160020155606082015181600301556080820151816004015560a0820151816005015560c08201518160060160006101000a81548173ffffffffffffffffffffffffffffffffffffffff021916908373ffffffffffffffffffffffffffffffffffffffff16021790555060e0820151816007015561010082015181600801908051906020019061237b929190612d3d565b50610120820151816009019080519060200190612399929190612d3d565b505050600c60008581526020019081526020016000208983815181106123c2576123c1613604565b5b6020026020010151908060018154018082558091505060019003906000526020600020016000909190919091509080519060200190612402929190612d3d565b506007600085815260200190815260200160002089838151811061242957612428613604565b5b6020026020010151908060018154018082558091505060019003906000526020600020016000909190919091509080519060200190612469929190612d3d565b5050808061247690613785565b915050612159565b506014875110156124a757600160096000848152602001908152602001600020819055506124d9565b6064600588516124b79190613860565b6124c19190613d38565b60096000848152602001908152602001600020819055505b6007600083815260200190815260200160002080549050600860008481526020019081526020016000208190555060016003600082825461251a919061372f565b925050819055506000600a6000848152602001908152602001600020819055505050505050505050565b60005b60076000838152602001908152602001600020805490508110156127555760008160076000858152602001908152602001600020805490506125899190613b45565b4260405160200161259a9190613d8a565b6040516020818303038152906040528051906020012060001c6125bd9190613da5565b826125c8919061372f565b905060006007600085815260200190815260200160002082815481106125f1576125f0613604565b5b906000526020600020018054612606906136ce565b80601f0160208091040260200160405190810160405280929190818152602001828054612632906136ce565b801561267f5780601f106126545761010080835404028352916020019161267f565b820191906000526020600020905b81548152906001019060200180831161266257829003601f168201915b505050505090506007600085815260200190815260200160002083815481106126ab576126aa613604565b5b906000526020600020016007600086815260200190815260200160002083815481106126da576126d9613604565b5b906000526020600020019080546126f0906136ce565b6126fb929190612c70565b508060076000868152602001908152602001600020848154811061272257612721613604565b5b90600052602060002001908051906020019061273f929190612d3d565b505050808061274d90613785565b915050612547565b5050565b60008060056000848152602001908152602001600020805480602002602001604051908101604052809291908181526020016000905b82821015612a5657838290600052602060002090600a0201604051806101400160405290816000820160009054906101000a900473ffffffffffffffffffffffffffffffffffffffff1673ffffffffffffffffffffffffffffffffffffffff1673ffffffffffffffffffffffffffffffffffffffff168152602001600182018054612819906136ce565b80601f0160208091040260200160405190810160405280929190818152602001828054612845906136ce565b80156128925780601f1061286757610100808354040283529160200191612892565b820191906000526020600020905b81548152906001019060200180831161287557829003601f168201915b50505050508152602001600282015481526020016003820154815260200160048201548152602001600582015481526020016006820160009054906101000a900473ffffffffffffffffffffffffffffffffffffffff1673ffffffffffffffffffffffffffffffffffffffff1673ffffffffffffffffffffffffffffffffffffffff16815260200160078201548152602001600882018054612933906136ce565b80601f016020809104026020016040519081016040528092919081815260200182805461295f906136ce565b80156129ac5780601f10612981576101008083540402835291602001916129ac565b820191906000526020600020905b81548152906001019060200180831161298f57829003601f168201915b505050505081526020016009820180546129c5906136ce565b80601f01602080910402602001604051908101604052809291908181526020018280546129f1906136ce565b8015612a3e5780601f10612a1357610100808354040283529160200191612a3e565b820191906000526020600020905b815481529060010190602001808311612a2157829003601f168201915b5050505050815250508152602001906001019061278f565b50505050905060005b8151811015612ab257612a90828281518110612a7e57612a7d613604565b5b60200260200101516020015186612c17565b15612a9f578092505050612ab5565b8080612aaa90613785565b915050612a5f565b50505b92915050565b60076000828152602001908152602001600020805490508210612add57612c13565b60008290505b60016007600084815260200190815260200160002080549050612b069190613b45565b811015612ba25760076000838152602001908152602001600020600182612b2d919061372f565b81548110612b3e57612b3d613604565b5b90600052602060002001600760008481526020019081526020016000208281548110612b6d57612b6c613604565b5b90600052602060002001908054612b83906136ce565b612b8e929190612c70565b508080612b9a90613785565b915050612ae3565b5060076000828152602001908152602001600020805480612bc657612bc5613b16565b5b600190038181906000526020600020016000612be29190612cfd565b9055600760008281526020019081526020016000208054905060086000838152602001908152602001600020819055505b5050565b600081604051602001612c2a9190613e12565b6040516020818303038152906040528051906020012083604051602001612c519190613e12565b6040516020818303038152906040528051906020012014905092915050565b828054612c7c906136ce565b90600052602060002090601f016020900481019282612c9e5760008555612cec565b82601f10612caf5780548555612cec565b82800160010185558215612cec57600052602060002091601f016020900482015b82811115612ceb578254825591600101919060010190612cd0565b5b509050612cf99190612e42565b5090565b508054612d09906136ce565b6000825580601f10612d1b5750612d3a565b601f016020900490600052602060002090810190612d399190612e42565b5b50565b828054612d49906136ce565b90600052602060002090601f016020900481019282612d6b5760008555612db2565b82601f10612d8457805160ff1916838001178555612db2565b82800160010185558215612db2579182015b82811115612db1578251825591602001919060010190612d96565b5b509050612dbf9190612e42565b5090565b604051806101400160405280600073ffffffffffffffffffffffffffffffffffffffff1681526020016060815260200160008152602001600081526020016000815260200160008152602001600073ffffffffffffffffffffffffffffffffffffffff1681526020016000815260200160608152602001606081525090565b5b80821115612e5b576000816000905550600101612e43565b5090565b6000604051905090565b600080fd5b600080fd5b600073ffffffffffffffffffffffffffffffffffffffff82169050919050565b6000612e9e82612e73565b9050919050565b612eae81612e93565b8114612eb957600080fd5b50565b600081359050612ecb81612ea5565b92915050565b600060208284031215612ee757612ee6612e69565b5b6000612ef584828501612ebc565b91505092915050565b6000819050919050565b612f1181612efe565b8114612f1c57600080fd5b50565b600081359050612f2e81612f08565b92915050565b600060208284031215612f4a57612f49612e69565b5b6000612f5884828501612f1f565b91505092915050565b60008060408385031215612f7857612f77612e69565b5b6000612f8685828601612f1f565b9250506020612f9785828601612f1f565b9150509250929050565b600081519050919050565b600082825260208201905092915050565b60005b83811015612fdb578082015181840152602081019050612fc0565b83811115612fea576000848401525b50505050565b6000601f19601f8301169050919050565b600061300c82612fa1565b6130168185612fac565b9350613026818560208601612fbd565b61302f81612ff0565b840191505092915050565b600060208201905081810360008301526130548184613001565b905092915050565b600081519050919050565b600082825260208201905092915050565b6000819050602082019050919050565b600082825260208201905092915050565b60006130a482612fa1565b6130ae8185613088565b93506130be818560208601612fbd565b6130c781612ff0565b840191505092915050565b60006130de8383613099565b905092915050565b6000602082019050919050565b60006130fe8261305c565b6131088185613067565b93508360208202850161311a85613078565b8060005b85811015613156578484038952815161313785826130d2565b9450613142836130e6565b925060208a0199505060018101905061311e565b50829750879550505050505092915050565b6000602082019050818103600083015261318281846130f3565b905092915050565b600061319582612e73565b9050919050565b6131a58161318a565b81146131b057600080fd5b50565b6000813590506131c28161319c565b92915050565b6000602082840312156131de576131dd612e69565b5b60006131ec848285016131b3565b91505092915050565b6131fe81612e93565b82525050565b600060208201905061321960008301846131f5565b92915050565b61322881612efe565b82525050565b6000602082019050613243600083018461321f565b92915050565b600060808201905061325e60008301876131f5565b81810360208301526132708186613001565b905081810360408301526132848185613001565b9050613293606083018461321f565b95945050505050565b600080fd5b7f4e487b7100000000000000000000000000000000000000000000000000000000600052604160045260246000fd5b6132d982612ff0565b810181811067ffffffffffffffff821117156132f8576132f76132a1565b5b80604052505050565b600061330b612e5f565b905061331782826132d0565b919050565b600067ffffffffffffffff821115613337576133366132a1565b5b602082029050602081019050919050565b600080fd5b600080fd5b600067ffffffffffffffff82111561336d5761336c6132a1565b5b61337682612ff0565b9050602081019050919050565b82818337600083830152505050565b60006133a56133a084613352565b613301565b9050828152602081018484840111156133c1576133c061334d565b5b6133cc848285613383565b509392505050565b600082601f8301126133e9576133e861329c565b5b81356133f9848260208601613392565b91505092915050565b60006134156134108461331c565b613301565b9050808382526020820190506020840283018581111561343857613437613348565b5b835b8181101561347f57803567ffffffffffffffff81111561345d5761345c61329c565b5b80860161346a89826133d4565b8552602085019450505060208101905061343a565b5050509392505050565b600082601f83011261349e5761349d61329c565b5b81356134ae848260208601613402565b91505092915050565b60008060008060008060c087890312156134d4576134d3612e69565b5b60006134e289828a01612f1f565b965050602087013567ffffffffffffffff81111561350357613502612e6e565b5b61350f89828a01613489565b955050604061352089828a01612f1f565b945050606061353189828a01612f1f565b935050608087013567ffffffffffffffff81111561355257613551612e6e565b5b61355e89828a016133d4565b92505060a087013567ffffffffffffffff81111561357f5761357e612e6e565b5b61358b89828a016133d4565b9150509295509295509295565b7f596f757220617265206e6f7420656c6c696769626c6500000000000000000000600082015250565b60006135ce601683612fac565b91506135d982613598565b602082019050919050565b600060208201905081810360008301526135fd816135c1565b9050919050565b7f4e487b7100000000000000000000000000000000000000000000000000000000600052603260045260246000fd5b7f44726f7074696d65206e6f742079657420726561636865642100000000000000600082015250565b6000613669601983612fac565b915061367482613633565b602082019050919050565b600060208201905081810360008301526136988161365c565b9050919050565b7f4e487b7100000000000000000000000000000000000000000000000000000000600052602260045260246000fd5b600060028204905060018216806136e657607f821691505b602082108114156136fa576136f961369f565b5b50919050565b7f4e487b7100000000000000000000000000000000000000000000000000000000600052601160045260246000fd5b600061373a82612efe565b915061374583612efe565b9250827fffffffffffffffffffffffffffffffffffffffffffffffffffffffffffffffff0382111561377a57613779613700565b5b828201905092915050565b600061379082612efe565b91507fffffffffffffffffffffffffffffffffffffffffffffffffffffffffffffffff8214156137c3576137c2613700565b5b600182019050919050565b7f5265736572766174696f6e20706572696f64206861736e277420656e6465642060008201527f7965742e00000000000000000000000000000000000000000000000000000000602082015250565b600061382a602483612fac565b9150613835826137ce565b604082019050919050565b600060208201905081810360008301526138598161381d565b9050919050565b600061386b82612efe565b915061387683612efe565b9250817fffffffffffffffffffffffffffffffffffffffffffffffffffffffffffffffff04831182151516156138af576138ae613700565b5b828202905092915050565b7f4e6f7420656e6f7567682066756e647300000000000000000000000000000000600082015250565b60006138f0601083612fac565b91506138fb826138ba565b602082019050919050565b6000602082019050818103600083015261391f816138e3565b9050919050565b60008190508160005260206000209050919050565b60008154613948816136ce565b6139528186612fac565b9450600182166000811461396d576001811461397f576139b2565b60ff19831686526020860193506139b2565b61398885613926565b60005b838110156139aa5781548189015260018201915060208101905061398b565b808801955050505b50505092915050565b60008190508160005260206000209050919050565b600081546139dd816136ce565b6139e78186612fac565b94506001821660008114613a025760018114613a1457613a47565b60ff1983168652602086019350613a47565b613a1d856139bb565b60005b83811015613a3f57815481890152600182019150602081019050613a20565b808801955050505b50505092915050565b60006080820190508181036000830152613a6a818761393b565b90508181036020830152613a7e81866139d0565b90508181036040830152613a9281856139d0565b9050613aa160608301846131f5565b95945050505050565b7f596f752063616e27742072656d6f766520796f757273656c6600000000000000600082015250565b6000613ae0601983612fac565b9150613aeb82613aaa565b602082019050919050565b60006020820190508181036000830152613b0f81613ad3565b9050919050565b7f4e487b7100000000000000000000000000000000000000000000000000000000600052603160045260246000fd5b6000613b5082612efe565b9150613b5b83612efe565b925082821015613b6e57613b6d613700565b5b828203905092915050565b7f43616e6e6f74206a6f696e207468652064726f7020616e796d6f72652e000000600082015250565b6000613baf601d83612fac565b9150613bba82613b79565b602082019050919050565b60006020820190508181036000830152613bde81613ba2565b9050919050565b7f536f7272792c20796f752063616e27742072657365727665206d6f726520746860008201527f6174203525206f6620746865204e4654732e0000000000000000000000000000602082015250565b6000613c41603283612fac565b9150613c4c82613be5565b604082019050919050565b60006020820190508181036000830152613c7081613c34565b9050919050565b7f536f7272792c206e6f7420656e6f756768204e465473206c65667420666f722060008201527f796f757220726571756573740000000000000000000000000000000000000000602082015250565b6000613cd3602c83612fac565b9150613cde82613c77565b604082019050919050565b60006020820190508181036000830152613d0281613cc6565b9050919050565b7f4e487b7100000000000000000000000000000000000000000000000000000000600052601260045260246000fd5b6000613d4382612efe565b9150613d4e83612efe565b925082613d5e57613d5d613d09565b5b828204905092915050565b6000819050919050565b613d84613d7f82612efe565b613d69565b82525050565b6000613d968284613d73565b60208201915081905092915050565b6000613db082612efe565b9150613dbb83612efe565b925082613dcb57613dca613d09565b5b828206905092915050565b600081905092915050565b6000613dec82612fa1565b613df68185613dd6565b9350613e06818560208601612fbd565b80840191505092915050565b6000613e1e8284613de1565b91508190509291505056fea2646970667358221220d05bbe6bcc49b2c7fc6492b17ef34f949b240c75c6e0fdd0cdf9f33215699ced64736f6c634300080a0033",
  "immutableReferences": {},
  "source": "\n// File: backup/NFTtheWorld.sol\n\n// SPDX-License-Identifier: MIT\n// SPDX-FileCopyrightText: 2021 Berinike Tech <tech@campus.tu-berlin.de>, Jannis Pilgrim <j.pilgrim@campus.tu-berlin.de>\n\npragma solidity ^0.8.0;\n\ninterface FactoryInterface{\n    function createToken(string memory _uri,string memory _nftName, string memory _nftSymbol,address  _sender)external ;\n}\n\ncontract NFTtheWorld {\n    FactoryInterface factoryInterface;\n\n    uint256 percentageLimit;\n\n    address public user;\n\n    uint256 public numberOfDrops;\n\n    struct NFTOwnership {\n        address payable owner;\n        string uri;\n        uint256 dropId;\n        uint256 dropTime;\n        uint256 reservedUntil;\n        uint256 reservationTimeoutSeconds;\n        address reservedFor;\n        uint256 weiPrice;\n        string nftSymbol;\n        string nftName;\n    }\n\n    struct dropInformation {\n        address creator;\n        string nftSymbol;\n        string nftName;\n        uint256 numberOfURIs;\n    }\n\n    // To check if an address is an admin\n    mapping(address => bool) private isAdminAddress;\n    // Dictionary of form <dropHash>: list of NFTOwnerships\n    mapping(uint256 => NFTOwnership[]) private nftOwnerships;\n    // Dictionary of form <user address>: <<dropHash>: <number of reserved NFTs>>\n    mapping(address => mapping(uint256 => uint256)) private nftReservations;\n    // Dictionary of form <dropHash>: <list of nftHashes>\n    mapping(uint256 => string[]) private availableNFTs;\n    // Dictionary of form  <dropHash>: <nftCount>\n    mapping(uint256 => uint256) private availableNFTsCount;\n    // Dictionary of form <dropHash>: <maximal number of NFTs a user can reserve/buy from this drop>\n    mapping(uint256 => uint256) private maxNumberOfNFTsToBuy;\n    // Dictionary of form <dropHash>: <number of NFTs that have been requested by users>\n    mapping(uint256 => uint256) private reservedNFTsCount;\n    // Dictionary of form <dropHash>: <dropInformation>\n    mapping(uint256 => dropInformation) public dropData;\n    // Dictionary of form <dropHash>: <urisInDrops>\n    mapping(uint256 => string[]) public dropURIs;\n\n    mapping(address => mapping(uint256 => string[]))\n        private nftReservationInformationOfUsers;\n\n    // Used to track which addresses have joined the drop\n    mapping(uint256 => address[]) private joinedUsers;\n\n    //TODO add all of us in list of admins\n    constructor() {\n        isAdminAddress[msg.sender] = true;\n    }\n\n    //Other contract-file with \"Token Factory\" inside should be deployed first and address copied\n    //Following function should be executed with just-copied address\n    function setFactoryInterface(address _address) external onlyByAdmins{\n        factoryInterface = FactoryInterface(_address);\n    }\n    // This function lets a user create a drop by specifiyng a drop time in UnixTime, an array of URIs, a Price in Wei, the TimeOut in UnixTime for reverting unbought\n    // reservations, the name of the NFT and the Symbol of the NFT.\n    // During the creation of the drop, the maximum number of NFTs a user can reserve/buy in this drop is calculated.\n    // It is one for a total number of NFTs lower than 20 and 5% otherwise.\n    \n    function createDrop(\n        uint256 _dropTime,\n        string[] memory _uris,\n        uint256 _weiPrice,\n        uint256 _reservationTimeoutSeconds,\n        string memory _nftName,\n        string memory _nftSymbol\n    ) public onlyByAdmins {\n        uint256 dropHash = numberOfDrops;\n        dropInformation storage dropInfo = dropData[dropHash];\n        dropInfo.creator = msg.sender;\n        dropInfo.nftSymbol = _nftSymbol;\n        dropInfo.nftName = _nftName;\n        dropInfo.numberOfURIs = _uris.length;\n        \n        for (uint256 i = 0; i < _uris.length; i++) {\n            NFTOwnership memory nftOwnership;\n            nftOwnership.uri = _uris[i];\n            nftOwnership.owner = payable(msg.sender);\n            nftOwnership.reservedFor = msg.sender;\n            nftOwnership.dropTime = _dropTime;\n            nftOwnership.reservedUntil = 0;\n            nftOwnership.reservationTimeoutSeconds = _reservationTimeoutSeconds;\n            nftOwnership.dropId = dropHash;\n            nftOwnership.weiPrice = _weiPrice;\n            nftOwnership.nftName = _nftName;\n            nftOwnership.nftSymbol = _nftSymbol;\n            nftOwnerships[dropHash].push(nftOwnership);\n            dropURIs[dropHash].push(_uris[i]);\n            availableNFTs[dropHash].push(_uris[i]);\n        }\n\n        // We need to let users buy 1 NFT instead of 5% if there are less than 20\n        if (_uris.length < 20) {\n            maxNumberOfNFTsToBuy[dropHash] = 1;\n        } else {\n            maxNumberOfNFTsToBuy[dropHash] = (_uris.length * 5) / 100;\n        }\n        availableNFTsCount[dropHash] = availableNFTs[dropHash].length;\n        numberOfDrops += 1;\n        reservedNFTsCount[dropHash] = 0;\n    }\n\n    // This function lets a user join a drop by specifying the number of NFTs she would like to reserve.\n    function joinDrop(uint256 _numberOfNFTs, uint256 _dropHash) public {\n        require(\n            reservedNFTsCount[_dropHash] != availableNFTs[_dropHash].length,\n            \"Cannot join the drop anymore.\"\n        );\n        require(\n            _numberOfNFTs <= maxNumberOfNFTsToBuy[_dropHash],\n            \"Sorry, you can't reserve more that 5% of the NFTs.\"\n        );\n        // We have to make sure that not more NFTs get reserved by users than we have NFTs available\n        require(\n            _numberOfNFTs <=\n                availableNFTs[_dropHash].length - reservedNFTsCount[_dropHash],\n            \"Sorry, not enough NFTs left for your request\"\n        );\n        reservedNFTsCount[_dropHash] += _numberOfNFTs;\n        nftReservations[msg.sender][_dropHash] = _numberOfNFTs;\n        joinedUsers[_dropHash].push(msg.sender);\n    }\n\n    // This function executes a drop.\n    // During the execution all joined users get their previously specificed number of NFTs randomly assigned.\n    // To make sure no NFT gets assigned to multiple users, it is removed from the list of available NFTs.\n    function drop(uint256 _dropHash) public {\n        require(\n            nftOwnerships[_dropHash][0].dropTime <= block.timestamp,\n            \"Droptime not yet reached!\"\n        );\n        for (uint256 i = 0; i < joinedUsers[_dropHash].length; i++) {\n            shuffle(_dropHash);\n            // loop trough the number of NFTs j reserved by user i\n            for (\n                uint256 j = 0;\n                j < nftReservations[joinedUsers[_dropHash][i]][_dropHash];\n                j++\n            ) {\n                uint256 nftElement = getNFTIndex(\n                    availableNFTs[_dropHash][j],\n                    _dropHash\n                );\n                nftOwnerships[_dropHash][nftElement].reservedFor = joinedUsers[\n                    _dropHash\n                ][i];\n                nftOwnerships[_dropHash][nftElement].reservedUntil =\n                    nftOwnerships[_dropHash][nftElement]\n                        .reservationTimeoutSeconds +\n                    block.timestamp;\n                nftReservationInformationOfUsers[joinedUsers[_dropHash][i]][\n                    _dropHash\n                ].push(nftOwnerships[_dropHash][nftElement].uri);\n                remove(j, _dropHash);\n            }\n        }\n    }\n\n    // This function lets a user buy her reserved NFTs\n    function buyNFT(uint256 _dropHash) public payable {\n        require(\n            nftOwnerships[_dropHash][0].dropTime <= block.timestamp,\n            \"Droptime not yet reached!\"\n        );\n        require(\n            nftOwnerships[_dropHash][0].weiPrice *\n                nftReservationInformationOfUsers[msg.sender][_dropHash]\n                    .length <=\n                msg.value,\n            \"Not enough funds\"\n        );\n        for (\n            uint256 i;\n            i < nftReservationInformationOfUsers[msg.sender][_dropHash].length;\n            i++\n        ) {\n            string storage uri = nftReservationInformationOfUsers[msg.sender][\n                _dropHash\n            ][i];\n            uint256 nftIndex = getNFTIndex(uri, _dropHash);\n            factoryInterface.createToken(uri,nftOwnerships[_dropHash][nftIndex].nftName,\n                nftOwnerships[_dropHash][nftIndex].nftSymbol,msg.sender);\n            nftOwnerships[_dropHash][nftIndex].owner.transfer(\n                nftOwnerships[_dropHash][nftIndex].weiPrice\n            );\n            nftOwnerships[_dropHash][nftIndex].owner = payable(msg.sender);\n        }\n    }\n\n    // To be called automatically from backend\n    // Checks whether reservation has timed out & if so, if reservedFor != owner, meaning it wasnt bought,\n    // reinstate as if drop was executed but NFT wasnt reserved\n    function revertTimedoutReservations(uint256 _dropHash)\n        public\n        returns (uint256)\n    {\n        uint256 reservationsReverted = 0;\n        for (uint256 i; i < nftOwnerships[_dropHash].length; i++) {\n            if (\n                nftOwnerships[_dropHash][i].reservedUntil >= 0 &&\n                nftOwnerships[_dropHash][i].reservedUntil <= block.timestamp &&\n                nftOwnerships[_dropHash][i].owner !=\n                nftOwnerships[_dropHash][i].reservedFor\n            ) {\n                nftReservationInformationOfUsers[\n                    nftOwnerships[_dropHash][i].reservedFor\n                ][_dropHash].pop();\n                nftOwnerships[_dropHash][i].reservedUntil = 0;\n                reservedNFTsCount[_dropHash] -= nftReservations[\n                    nftOwnerships[_dropHash][i].reservedFor\n                ][_dropHash];\n                nftReservations[nftOwnerships[_dropHash][i].reservedFor][\n                    _dropHash\n                ] = 0;\n                nftOwnerships[_dropHash][i].reservedFor = nftOwnerships[\n                    _dropHash\n                ][i].owner;\n                availableNFTs[_dropHash].push(nftOwnerships[_dropHash][i].uri);\n                reservationsReverted++;\n            }\n        }\n        return reservationsReverted;\n    }\n\n    function getNotBoughtNFTs(uint256 _dropHash)\n        public\n        view\n        returns (string[] memory notBought)\n    {\n        require(\n            nftOwnerships[_dropHash][0].reservedUntil >= 0 &&\n                nftOwnerships[_dropHash][0].reservedUntil <= block.timestamp,\n            \"Reservation period hasn't ended yet.\"\n        );\n        NFTOwnership[] memory nfts = nftOwnerships[_dropHash];\n        // Dynamic arrays can't be used in memory in functions. That's why we need to create a too large array first\n        // and then copy the not minted uris in a new one of correct size\n        string[] memory notBoughtNFTs = new string[](nfts.length);\n        uint256 notBoughtNFTs_index = 0;\n        for (uint256 i = 0; i < nfts.length; i++) {\n            if (nfts[i].owner == msg.sender) {\n                notBoughtNFTs[notBoughtNFTs_index] = (nfts[i].uri);\n                notBoughtNFTs_index++;\n            }\n        }\n\n        string[] memory trimmedNotBoughtNFTs = new string[](\n            notBoughtNFTs.length\n        );\n        for (uint256 j = 0; j < notBoughtNFTs.length; j++) {\n            trimmedNotBoughtNFTs[j] = notBoughtNFTs[j];\n        }\n        return trimmedNotBoughtNFTs;\n    }\n\n\n    // Helper function to created hashes\n    function generateRandomNumber(uint256 number)\n        internal\n        view\n        returns (uint256)\n    {\n        uint256 randomNumber = uint256(\n            keccak256(abi.encodePacked(block.timestamp, block.number, number))\n        ) % 1000;\n        return randomNumber;\n    }\n\n    // Helper function to remove NFT from list of available NFTs\n    function remove(uint256 _index, uint256 _dropHash) internal {\n        if (_index >= availableNFTs[_dropHash].length) return;\n\n        for (uint256 i = _index; i < availableNFTs[_dropHash].length - 1; i++) {\n            availableNFTs[_dropHash][i] = availableNFTs[_dropHash][i + 1];\n        }\n        availableNFTs[_dropHash].pop();\n        availableNFTsCount[_dropHash] = availableNFTs[_dropHash].length;\n    }\n\n    // Helper function to shuffle a list\n    function shuffle(uint256 _dropHash) internal {\n        for (uint256 i = 0; i < availableNFTs[_dropHash].length; i++) {\n            uint256 n = i +\n                (uint256(keccak256(abi.encodePacked(block.timestamp))) %\n                    (availableNFTs[_dropHash].length - i));\n            string memory temp = availableNFTs[_dropHash][n];\n            availableNFTs[_dropHash][n] = availableNFTs[_dropHash][i];\n            availableNFTs[_dropHash][i] = temp;\n        }\n    }\n\n    // Helper function to get the index of an NFT in the nftOwnerships mapping\n    function getNFTIndex(string memory _uri, uint256 _dropHash)\n        internal\n        view\n        returns (uint256 index)\n    {\n        NFTOwnership[] memory nfts = nftOwnerships[_dropHash];\n        for (uint256 i = 0; i < nfts.length; i++) {\n            if (compareStrings(nfts[i].uri, _uri)) {\n                return i;\n            }\n        }\n    }\n\n    function compareStrings(string memory a, string memory b)\n        private\n        pure\n        returns (bool)\n    {\n        return (keccak256(abi.encodePacked((a))) ==\n            keccak256(abi.encodePacked((b))));\n    }\n\n    function getDropTime(uint256 _dropHash)\n        public\n        view\n        returns (uint256 dropTime)\n    {\n        return nftOwnerships[_dropHash][0].dropTime;\n    }\n\n    // Modifier to check if msg.sender is elligible\n    modifier onlyByAdmins() {\n        require(isAdminAddress[msg.sender] == true, \"Your are not elligible\");\n        _;\n    }\n\n    function addToAdmins(address payable _addressToAdd) public onlyByAdmins {\n        isAdminAddress[_addressToAdd] = true;\n    }\n\n    function removeFromAdmins(address payable _addressToRemove)\n        public\n        onlyByAdmins\n    {\n        require(msg.sender != _addressToRemove, \"You can't remove yourself\");\n        isAdminAddress[_addressToRemove] = false;\n    }\n}\n",
  "sourcePath": "/Users/nike/nft-project/amos2021ws07-nft-development/blockchain/contracts/MainContract.sol",
  "compiler": {
    "name": "solc",
    "version": "0.8.10+commit.fc410830.Emscripten.clang"
  },
  "schemaVersion": "3.4.3",
  "updatedAt": "2022-01-16T20:37:06.090Z",
  "networkType": "ethereum",
  "devdoc": {
    "kind": "dev",
    "methods": {},
    "version": 1
  },
  "userdoc": {
    "kind": "user",
    "methods": {},
    "version": 1
  }
}