{
  "contractName": "NFTtheWorld",
  "abi": [
    {
      "inputs": [
        {
          "internalType": "uint256",
          "name": "",
          "type": "uint256"
        }
      ],
      "name": "availableNFTs",
      "outputs": [
        {
          "internalType": "uint256",
          "name": "",
          "type": "uint256"
        }
      ],
      "stateMutability": "view",
      "type": "function",
      "constant": true
    },
    {
      "inputs": [],
      "name": "availableNFTsCount",
      "outputs": [
        {
          "internalType": "uint256",
          "name": "",
          "type": "uint256"
        }
      ],
      "stateMutability": "view",
      "type": "function",
      "constant": true
    },
    {
      "inputs": [],
      "name": "maxNumberOfNFTsToBuy",
      "outputs": [
        {
          "internalType": "uint256",
          "name": "",
          "type": "uint256"
        }
      ],
      "stateMutability": "view",
      "type": "function",
      "constant": true
    },
    {
      "inputs": [
        {
          "internalType": "uint256",
          "name": "",
          "type": "uint256"
        }
      ],
      "name": "nftOwnerships",
      "outputs": [
        {
          "internalType": "address",
          "name": "owner",
          "type": "address"
        },
        {
          "internalType": "uint256",
          "name": "nftId",
          "type": "uint256"
        },
        {
          "internalType": "uint256",
          "name": "dropTime",
          "type": "uint256"
        },
        {
          "internalType": "address",
          "name": "reservedFor",
          "type": "address"
        }
      ],
      "stateMutability": "view",
      "type": "function",
      "constant": true
    },
    {
      "inputs": [
        {
          "internalType": "address",
          "name": "",
          "type": "address"
        }
      ],
      "name": "nftReservations",
      "outputs": [
        {
          "internalType": "uint256",
          "name": "",
          "type": "uint256"
        }
      ],
      "stateMutability": "view",
      "type": "function",
      "constant": true
    },
    {
      "inputs": [],
      "name": "reservedNFTsCount",
      "outputs": [
        {
          "internalType": "uint256",
          "name": "",
          "type": "uint256"
        }
      ],
      "stateMutability": "view",
      "type": "function",
      "constant": true
    },
    {
      "inputs": [],
      "name": "user",
      "outputs": [
        {
          "internalType": "address",
          "name": "",
          "type": "address"
        }
      ],
      "stateMutability": "view",
      "type": "function",
      "constant": true
    },
    {
      "inputs": [
        {
          "internalType": "uint256",
          "name": "_dropTime",
          "type": "uint256"
        },
        {
          "internalType": "uint256",
          "name": "_numberOfNFTS",
          "type": "uint256"
        }
      ],
      "name": "createDrop",
      "outputs": [],
      "stateMutability": "nonpayable",
      "type": "function"
    },
    {
      "inputs": [
        {
          "internalType": "uint256",
          "name": "_numberOfNFTs",
          "type": "uint256"
        }
      ],
      "name": "joinDrop",
      "outputs": [],
      "stateMutability": "nonpayable",
      "type": "function"
    },
    {
      "inputs": [],
      "name": "drop",
      "outputs": [],
      "stateMutability": "nonpayable",
      "type": "function"
    },
    {
      "inputs": [
        {
          "internalType": "uint256",
          "name": "_price",
          "type": "uint256"
        },
        {
          "internalType": "uint256",
          "name": "_nftHash",
          "type": "uint256"
        }
      ],
      "name": "buyNFT",
      "outputs": [],
      "stateMutability": "payable",
      "type": "function",
      "payable": true
    },
    {
      "inputs": [
        {
          "internalType": "uint256",
          "name": "index",
          "type": "uint256"
        }
      ],
      "name": "getJoinedUser",
      "outputs": [],
      "stateMutability": "nonpayable",
      "type": "function"
    }
  ],
  "bytecode": "0x608060405234801561001057600080fd5b50611586806100206000396000f3fe6080604052600436106100a75760003560e01c806389ceeb831161006457806389ceeb83146101b25780638abbdf1b146101dd578063adec9cdd14610206578063da78238a1461022f578063e9b2e0d71461026c578063f751cd8f146102a9576100a7565b80631d85bf03146100ac57806324fbb4b0146100c85780634f8632ba146100f35780635428b8741461011e5780636ed2644d146101475780637d668f0914610187575b600080fd5b6100c660048036038101906100c19190610e0b565b6102c0565b005b3480156100d457600080fd5b506100dd610525565b6040516100ea9190610e5a565b60405180910390f35b3480156100ff57600080fd5b5061010861052b565b6040516101159190610eb6565b60405180910390f35b34801561012a57600080fd5b5061014560048036038101906101409190610ed1565b610551565b005b34801561015357600080fd5b5061016e60048036038101906101699190610ed1565b6106fb565b60405161017e9493929190610efe565b60405180910390f35b34801561019357600080fd5b5061019c61076b565b6040516101a99190610e5a565b60405180910390f35b3480156101be57600080fd5b506101c7610771565b6040516101d49190610e5a565b60405180910390f35b3480156101e957600080fd5b5061020460048036038101906101ff9190610ed1565b610777565b005b34801561021257600080fd5b5061022d60048036038101906102289190610e0b565b6107fc565b005b34801561023b57600080fd5b5061025660048036038101906102519190610f6f565b610880565b6040516102639190610e5a565b60405180910390f35b34801561027857600080fd5b50610293600480360381019061028e9190610ed1565b610898565b6040516102a09190610e5a565b60405180910390f35b3480156102b557600080fd5b506102be6108bc565b005b4260076000838152602001908152602001600020600201541115610319576040517f08c379a000000000000000000000000000000000000000000000000000000000815260040161031090610ff9565b60405180910390fd5b3373ffffffffffffffffffffffffffffffffffffffff166007600083815260200190815260200160002060030160009054906101000a900473ffffffffffffffffffffffffffffffffffffffff1673ffffffffffffffffffffffffffffffffffffffff16146103bd576040517f08c379a00000000000000000000000000000000000000000000000000000000081526004016103b490611065565b60405180910390fd5b3373ffffffffffffffffffffffffffffffffffffffff166007600083815260200190815260200160002060000160009054906101000a900473ffffffffffffffffffffffffffffffffffffffff1673ffffffffffffffffffffffffffffffffffffffff161415610462576040517f08c379a0000000000000000000000000000000000000000000000000000000008152600401610459906110d1565b60405180910390fd5b34915060008054906101000a900473ffffffffffffffffffffffffffffffffffffffff1673ffffffffffffffffffffffffffffffffffffffff166108fc839081150290604051600060405180830381858888f193505050501580156104cb573d6000803e3d6000fd5b50336007600083815260200190815260200160002060000160006101000a81548173ffffffffffffffffffffffffffffffffffffffff021916908373ffffffffffffffffffffffffffffffffffffffff1602179055505050565b60055481565b600360009054906101000a900473ffffffffffffffffffffffffffffffffffffffff1681565b600280549050600554141561059b576040517f08c379a000000000000000000000000000000000000000000000000000000000815260040161059290611163565b60405180910390fd5b6006548111156105e0576040517f08c379a00000000000000000000000000000000000000000000000000000000081526004016105d7906111f5565b60405180910390fd5b6005546002805490506105f39190611244565b811115610635576040517f08c379a000000000000000000000000000000000000000000000000000000000815260040161062c906112ea565b60405180910390fd5b8060056000828254610647919061130a565b9250508190555080600860003373ffffffffffffffffffffffffffffffffffffffff1673ffffffffffffffffffffffffffffffffffffffff168152602001908152602001600020819055506009600001339080600181540180825580915050600190039060005260206000200160009091909190916101000a81548173ffffffffffffffffffffffffffffffffffffffff021916908373ffffffffffffffffffffffffffffffffffffffff16021790555050565b60076020528060005260406000206000915090508060000160009054906101000a900473ffffffffffffffffffffffffffffffffffffffff16908060010154908060020154908060030160009054906101000a900473ffffffffffffffffffffffffffffffffffffffff16905084565b60045481565b60065481565b6009600001818154811061078e5761078d611360565b5b9060005260206000200160009054906101000a900473ffffffffffffffffffffffffffffffffffffffff16600360006101000a81548173ffffffffffffffffffffffffffffffffffffffff021916908373ffffffffffffffffffffffffffffffffffffffff16021790555050565b60005b818110156108455761083283600183610818919061130a565b73c77787e364e3420c0609a249f18de47430900f0c610adc565b808061083d9061138f565b9150506107ff565b50601481101561085c57600160068190555061087c565b606460058261086b91906113d8565b6108759190611461565b6006819055505b5050565b60086020528060005260406000206000915090505481565b600281815481106108a857600080fd5b906000526020600020016000915090505481565b426007600060026000815481106108d6576108d5611360565b5b90600052602060002001548152602001908152602001600020600201541115610934576040517f08c379a000000000000000000000000000000000000000000000000000000000815260040161092b90610ff9565b60405180910390fd5b60008060005b600960000180549050811015610ad75760005b600860006009600001848154811061096857610967611360565b5b9060005260206000200160009054906101000a900473ffffffffffffffffffffffffffffffffffffffff1673ffffffffffffffffffffffffffffffffffffffff1673ffffffffffffffffffffffffffffffffffffffff16815260200190815260200160002054811015610ac3576002805490506109e482610c6a565b6109ee9190611492565b935060028481548110610a0457610a03611360565b5b90600052602060002001549250610a1a84610cb3565b60096000018281548110610a3157610a30611360565b5b9060005260206000200160009054906101000a900473ffffffffffffffffffffffffffffffffffffffff166007600085815260200190815260200160002060030160006101000a81548173ffffffffffffffffffffffffffffffffffffffff021916908373ffffffffffffffffffffffffffffffffffffffff1602179055508080610abb9061138f565b91505061094d565b508080610acf9061138f565b91505061093a565b505050565b6000610ae783610c6a565b9050610af1610d7c565b8181602001818152505082816000019073ffffffffffffffffffffffffffffffffffffffff16908173ffffffffffffffffffffffffffffffffffffffff168152505082816060019073ffffffffffffffffffffffffffffffffffffffff16908173ffffffffffffffffffffffffffffffffffffffff168152505084816040018181525050806007600084815260200190815260200160002060008201518160000160006101000a81548173ffffffffffffffffffffffffffffffffffffffff021916908373ffffffffffffffffffffffffffffffffffffffff160217905550602082015181600101556040820151816002015560608201518160030160006101000a81548173ffffffffffffffffffffffffffffffffffffffff021916908373ffffffffffffffffffffffffffffffffffffffff16021790555090505060028290806001815401808255809150506001900390600052602060002001600090919091909150556002805490506004819055505050505050565b6000806103e8424385604051602001610c85939291906114e4565b6040516020818303038152906040528051906020012060001c610ca89190611492565b905080915050919050565b6002805490508110610cc457610d79565b60008190505b6001600280549050610cdc9190611244565b811015610d43576002600182610cf2919061130a565b81548110610d0357610d02611360565b5b906000526020600020015460028281548110610d2257610d21611360565b5b90600052602060002001819055508080610d3b9061138f565b915050610cca565b506002805480610d5657610d55611521565b5b600190038181906000526020600020016000905590556002805490506004819055505b50565b6040518060800160405280600073ffffffffffffffffffffffffffffffffffffffff1681526020016000815260200160008152602001600073ffffffffffffffffffffffffffffffffffffffff1681525090565b600080fd5b6000819050919050565b610de881610dd5565b8114610df357600080fd5b50565b600081359050610e0581610ddf565b92915050565b60008060408385031215610e2257610e21610dd0565b5b6000610e3085828601610df6565b9250506020610e4185828601610df6565b9150509250929050565b610e5481610dd5565b82525050565b6000602082019050610e6f6000830184610e4b565b92915050565b600073ffffffffffffffffffffffffffffffffffffffff82169050919050565b6000610ea082610e75565b9050919050565b610eb081610e95565b82525050565b6000602082019050610ecb6000830184610ea7565b92915050565b600060208284031215610ee757610ee6610dd0565b5b6000610ef584828501610df6565b91505092915050565b6000608082019050610f136000830187610ea7565b610f206020830186610e4b565b610f2d6040830185610e4b565b610f3a6060830184610ea7565b95945050505050565b610f4c81610e95565b8114610f5757600080fd5b50565b600081359050610f6981610f43565b92915050565b600060208284031215610f8557610f84610dd0565b5b6000610f9384828501610f5a565b91505092915050565b600082825260208201905092915050565b7f44726f7074696d65206e6f742079657420726561636865642100000000000000600082015250565b6000610fe3601983610f9c565b9150610fee82610fad565b602082019050919050565b6000602082019050818103600083015261101281610fd6565b9050919050565b7f54686973204e4654207761736e27742061737369676e656420746f20796f7500600082015250565b600061104f601f83610f9c565b915061105a82611019565b602082019050919050565b6000602082019050818103600083015261107e81611042565b9050919050565b7f54686973204e465420616c72656164792062656c6f6e677320746f20796f7500600082015250565b60006110bb601f83610f9c565b91506110c682611085565b602082019050919050565b600060208201905081810360008301526110ea816110ae565b9050919050565b7f596f752063616e6e6f74206a6f696e207468652064726f7020616e796d6f726560008201527f2e00000000000000000000000000000000000000000000000000000000000000602082015250565b600061114d602183610f9c565b9150611158826110f1565b604082019050919050565b6000602082019050818103600083015261117c81611140565b9050919050565b7f536f7272792c20796f752063616e27742072657365727665206d6f726520746860008201527f6174203525206f6620746865204e4654732e0000000000000000000000000000602082015250565b60006111df603283610f9c565b91506111ea82611183565b604082019050919050565b6000602082019050818103600083015261120e816111d2565b9050919050565b7f4e487b7100000000000000000000000000000000000000000000000000000000600052601160045260246000fd5b600061124f82610dd5565b915061125a83610dd5565b92508282101561126d5761126c611215565b5b828203905092915050565b7f536f7272792c206e6f7420656e6f756768204e465473206c65667420666f722060008201527f796f757220726571756573740000000000000000000000000000000000000000602082015250565b60006112d4602c83610f9c565b91506112df82611278565b604082019050919050565b60006020820190508181036000830152611303816112c7565b9050919050565b600061131582610dd5565b915061132083610dd5565b9250827fffffffffffffffffffffffffffffffffffffffffffffffffffffffffffffffff0382111561135557611354611215565b5b828201905092915050565b7f4e487b7100000000000000000000000000000000000000000000000000000000600052603260045260246000fd5b600061139a82610dd5565b91507fffffffffffffffffffffffffffffffffffffffffffffffffffffffffffffffff8214156113cd576113cc611215565b5b600182019050919050565b60006113e382610dd5565b91506113ee83610dd5565b9250817fffffffffffffffffffffffffffffffffffffffffffffffffffffffffffffffff048311821515161561142757611426611215565b5b828202905092915050565b7f4e487b7100000000000000000000000000000000000000000000000000000000600052601260045260246000fd5b600061146c82610dd5565b915061147783610dd5565b92508261148757611486611432565b5b828204905092915050565b600061149d82610dd5565b91506114a883610dd5565b9250826114b8576114b7611432565b5b828206905092915050565b6000819050919050565b6114de6114d982610dd5565b6114c3565b82525050565b60006114f082866114cd565b60208201915061150082856114cd565b60208201915061151082846114cd565b602082019150819050949350505050565b7f4e487b7100000000000000000000000000000000000000000000000000000000600052603160045260246000fdfea264697066735822122082f5e64852aaf04b65ea4627203406a9090d042ee986bf311fe0f264ad5da55664736f6c634300080a0033",
  "immutableReferences": {},
  "source": "// SPDX-License-Identifier: MIT\n// SPDX-FileCopyrightText: 2021 Berinike Tech <tech@campus.tu-berlin.de>\n\npragma solidity ^0.8.0;\n\ncontract NFTtheWorld {\n\n    struct Addresses {\n        address[] _items;\n    }\n\n    address payable nftOwner;\n\n    uint256 percentageLimit;\n\n    uint256[] public availableNFTs;\n\n    address public user;\n\n    uint256 public availableNFTsCount;\n\n    uint256 public reservedNFTsCount;\n\n    uint256 public maxNumberOfNFTsToBuy;\n\n    struct NFTOwnership {\n        address owner;\n        uint256 nftId;\n        uint256 dropTime;\n        address reservedFor;\n    }\n\n    mapping(uint256 => NFTOwnership) public nftOwnerships;\n    mapping(address => uint256) public nftReservations;\n\n    // Used to track which addresses have joined the drop\n    // address[] private joinedUsers;\n    Addresses joinedUsers;\n\n    // This function lets a user create a drop by specifiyng a drop time and the number of available NFTs.\n    // During the creation of the drop, the maximum number of NFTs a user can reserve/buy in this drop is calculated.\n    // It is one for a total number of NFTs lower than 20 and 5% otherwise.\n    function createDrop(uint256 _dropTime, uint256 _numberOfNFTS) public {\n        for (uint256 i = 0; i < _numberOfNFTS; i++) {\n            // hardcoded address for testing reasons, to be replaced with msg.sender\n            mockNFT(_dropTime, i + 1, payable(0xC77787e364E3420c0609a249F18De47430900f0C));\n        }\n        // We need to let users buy 1 NFT instead of 5% if there are less than 20\n        if (_numberOfNFTS < 20) {\n            maxNumberOfNFTsToBuy = 1;\n        } else {\n            maxNumberOfNFTsToBuy = (_numberOfNFTS * 5) / 100;\n        }\n    }\n\n    // Create mock NFTs for drop by creating a list of hashes.\n    function mockNFT(uint256 _dropTime, uint256 _number, address _nftOwner) internal {\n        uint256 nftHash = generateRandomNumber(_number);\n        NFTOwnership memory nftOwnership;\n        nftOwnership.nftId = nftHash;\n        nftOwnership.owner = _nftOwner;\n        nftOwnership.reservedFor = _nftOwner;\n        nftOwnership.dropTime = _dropTime;\n        nftOwnerships[nftHash] = nftOwnership;\n        availableNFTs.push(nftHash);\n        availableNFTsCount = availableNFTs.length;\n    }\n\n    // This function lets a user join a drop by specifying the number of NFTs she would like to reserve.\n    function joinDrop(uint256 _numberOfNFTs) public {\n\n        require(\n            reservedNFTsCount != availableNFTs.length,\n            \"You cannot join the drop anymore.\"\n        );\n        require(\n            _numberOfNFTs <= maxNumberOfNFTsToBuy,\n            \"Sorry, you can't reserve more that 5% of the NFTs.\"\n        );\n        // We have to make sure that not more NFTs get reserved by users than we have NFTs available\n        require(\n            _numberOfNFTs <= availableNFTs.length - reservedNFTsCount,\n            \"Sorry, not enough NFTs left for your request\"\n        );\n        reservedNFTsCount += _numberOfNFTs;\n        nftReservations[msg.sender] = _numberOfNFTs;\n        joinedUsers._items.push(msg.sender);\n    }\n\n    // This function executes a drop.\n    // During the execution all joined users get their previously specificed number of NFTs randomly assigned.\n    // To make sure no NFT gets assigned to multiple users, it is removed from the list of available NFTs.\n    function drop() public {\n        require(\n            nftOwnerships[availableNFTs[0]].dropTime <= block.timestamp,\n            \"Droptime not yet reached!\"\n        );\n        uint256 nftElement;\n        uint256 nftHash;\n        for (uint256 i = 0; i < joinedUsers._items.length; i++) {\n            for (\n                uint256 j = 0;\n                j < nftReservations[joinedUsers._items[i]];\n                j++\n            ) {\n                nftElement = generateRandomNumber(j) % availableNFTs.length;\n                nftHash = availableNFTs[nftElement];\n                remove(nftElement);\n                nftOwnerships[nftHash].reservedFor = joinedUsers._items[i];\n            }\n        }\n    }\n\n    // This function lets a user buy her reserved NFTs (one at a time)\n    //TODO: Think about a time span during which the reserved NFTs have to be bought\n    function buyNFT(uint256 _price, uint256 _nftHash) public payable {\n        require(\n            nftOwnerships[_nftHash].dropTime <= block.timestamp,\n            \"Droptime not yet reached!\"\n        );\n        require(\n            nftOwnerships[_nftHash].reservedFor == msg.sender,\n            \"This NFT wasn't assigned to you\"\n        );\n        require(\n            nftOwnerships[_nftHash].owner != msg.sender,\n            \"This NFT already belongs to you\"\n        );\n        // string(abi.encodePacked(\"Drop has not started yet! \",((nftOwnerships[_nftHash].droptime-block.timestamp)/86400),\" Days, \",((nftOwnerships[_nftHash].droptime-block.timestamp)/3600),\" Hours,\", ((nftOwnerships[_nftHash].droptime-block.timestamp)/60),\" Minutes, and \", ((nftOwnerships[_nftHash].droptime-block.timestamp)),\" Seconds left.\")));\n        _price = msg.value;\n        nftOwner.transfer(_price);\n        nftOwnerships[_nftHash].owner = msg.sender;\n    }\n\n    // Helper function to created hashes\n    function generateRandomNumber(uint256 number)\n        internal\n        view\n        returns (uint256)\n    {\n        uint256 randomNumber = uint256(\n            keccak256(abi.encodePacked(block.timestamp, block.number, number))\n        ) % 1000;\n        return randomNumber;\n    }\n\n    // Helper function to remove NFT from list of available NFTs\n    function remove(uint256 index) internal {\n        if (index >= availableNFTs.length) return;\n\n        for (uint256 i = index; i < availableNFTs.length - 1; i++) {\n            availableNFTs[i] = availableNFTs[i + 1];\n        }\n        availableNFTs.pop();\n        availableNFTsCount = availableNFTs.length;\n    }\n\n    // Helper function for testing\n    function getJoinedUser(uint256 index) public {\n        user = joinedUsers._items[index];\n    }\n}\n",
  "sourcePath": "/Users/nike/nft-project/amos2021ws07-nft-development/blockchain/contracts/NFTtheWorld.sol",
  "compiler": {
    "name": "solc",
    "version": "0.8.10+commit.fc410830.Emscripten.clang"
  },
  "schemaVersion": "3.4.3",
  "updatedAt": "2021-11-30T10:12:18.551Z",
  "networkType": "ethereum",
  "devdoc": {
    "kind": "dev",
    "methods": {},
    "version": 1
  },
  "userdoc": {
    "kind": "user",
    "methods": {},
    "version": 1
  }
}